{
  "contractName": "RagnarokProject",
  "abi": [
    {
      "inputs": [],
      "stateMutability": "nonpayable",
      "type": "constructor"
    },
    {
      "anonymous": false,
      "inputs": [
        {
          "indexed": true,
          "internalType": "address",
          "name": "owner",
          "type": "address"
        },
        {
          "indexed": true,
          "internalType": "address",
          "name": "approved",
          "type": "address"
        },
        {
          "indexed": true,
          "internalType": "uint256",
          "name": "tokenId",
          "type": "uint256"
        }
      ],
      "name": "Approval",
      "type": "event"
    },
    {
      "anonymous": false,
      "inputs": [
        {
          "indexed": true,
          "internalType": "address",
          "name": "owner",
          "type": "address"
        },
        {
          "indexed": true,
          "internalType": "address",
          "name": "operator",
          "type": "address"
        },
        {
          "indexed": false,
          "internalType": "bool",
          "name": "approved",
          "type": "bool"
        }
      ],
      "name": "ApprovalForAll",
      "type": "event"
    },
    {
      "anonymous": false,
      "inputs": [
        {
          "indexed": true,
          "internalType": "uint256",
          "name": "tokenId",
          "type": "uint256"
        },
        {
          "indexed": true,
          "internalType": "address",
          "name": "minter",
          "type": "address"
        },
        {
          "indexed": false,
          "internalType": "uint256",
          "name": "tokenCount",
          "type": "uint256"
        },
        {
          "indexed": false,
          "internalType": "uint256",
          "name": "tokenPrice",
          "type": "uint256"
        }
      ],
      "name": "MintNFT",
      "type": "event"
    },
    {
      "anonymous": false,
      "inputs": [
        {
          "indexed": true,
          "internalType": "address",
          "name": "previousOwner",
          "type": "address"
        },
        {
          "indexed": true,
          "internalType": "address",
          "name": "newOwner",
          "type": "address"
        }
      ],
      "name": "OwnershipTransferred",
      "type": "event"
    },
    {
      "anonymous": false,
      "inputs": [
        {
          "indexed": true,
          "internalType": "address",
          "name": "from",
          "type": "address"
        },
        {
          "indexed": true,
          "internalType": "address",
          "name": "to",
          "type": "address"
        },
        {
          "indexed": true,
          "internalType": "uint256",
          "name": "tokenId",
          "type": "uint256"
        }
      ],
      "name": "Transfer",
      "type": "event"
    },
    {
      "inputs": [],
      "name": "MAX_NFT_SUPPLY",
      "outputs": [
        {
          "internalType": "uint256",
          "name": "",
          "type": "uint256"
        }
      ],
      "stateMutability": "view",
      "type": "function",
      "constant": true
    },
    {
      "inputs": [
        {
          "internalType": "address",
          "name": "to",
          "type": "address"
        },
        {
          "internalType": "uint256",
          "name": "tokenId",
          "type": "uint256"
        }
      ],
      "name": "approve",
      "outputs": [],
      "stateMutability": "nonpayable",
      "type": "function"
    },
    {
      "inputs": [
        {
          "internalType": "address",
          "name": "owner",
          "type": "address"
        }
      ],
      "name": "balanceOf",
      "outputs": [
        {
          "internalType": "uint256",
          "name": "",
          "type": "uint256"
        }
      ],
      "stateMutability": "view",
      "type": "function",
      "constant": true
    },
    {
      "inputs": [],
      "name": "devFee",
      "outputs": [
        {
          "internalType": "uint256",
          "name": "",
          "type": "uint256"
        }
      ],
      "stateMutability": "view",
      "type": "function",
      "constant": true
    },
    {
      "inputs": [],
      "name": "devWallet",
      "outputs": [
        {
          "internalType": "address",
          "name": "",
          "type": "address"
        }
      ],
      "stateMutability": "view",
      "type": "function",
      "constant": true
    },
    {
      "inputs": [],
      "name": "endSale",
      "outputs": [
        {
          "internalType": "bool",
          "name": "",
          "type": "bool"
        }
      ],
      "stateMutability": "view",
      "type": "function",
      "constant": true
    },
    {
      "inputs": [],
      "name": "feeDivisor",
      "outputs": [
        {
          "internalType": "uint256",
          "name": "",
          "type": "uint256"
        }
      ],
      "stateMutability": "view",
      "type": "function",
      "constant": true
    },
    {
      "inputs": [
        {
          "internalType": "uint256",
          "name": "tokenId",
          "type": "uint256"
        }
      ],
      "name": "getApproved",
      "outputs": [
        {
          "internalType": "address",
          "name": "",
          "type": "address"
        }
      ],
      "stateMutability": "view",
      "type": "function",
      "constant": true
    },
    {
      "inputs": [
        {
          "internalType": "address",
          "name": "owner",
          "type": "address"
        },
        {
          "internalType": "address",
          "name": "operator",
          "type": "address"
        }
      ],
      "name": "isApprovedForAll",
      "outputs": [
        {
          "internalType": "bool",
          "name": "",
          "type": "bool"
        }
      ],
      "stateMutability": "view",
      "type": "function",
      "constant": true
    },
    {
      "inputs": [],
      "name": "marketFee",
      "outputs": [
        {
          "internalType": "uint256",
          "name": "",
          "type": "uint256"
        }
      ],
      "stateMutability": "view",
      "type": "function",
      "constant": true
    },
    {
      "inputs": [],
      "name": "marketWallet",
      "outputs": [
        {
          "internalType": "address",
          "name": "",
          "type": "address"
        }
      ],
      "stateMutability": "view",
      "type": "function",
      "constant": true
    },
    {
      "inputs": [],
      "name": "name",
      "outputs": [
        {
          "internalType": "string",
          "name": "",
          "type": "string"
        }
      ],
      "stateMutability": "view",
      "type": "function",
      "constant": true
    },
    {
      "inputs": [],
      "name": "otherFee",
      "outputs": [
        {
          "internalType": "uint256",
          "name": "",
          "type": "uint256"
        }
      ],
      "stateMutability": "view",
      "type": "function",
      "constant": true
    },
    {
      "inputs": [],
      "name": "otherWallet",
      "outputs": [
        {
          "internalType": "address",
          "name": "",
          "type": "address"
        }
      ],
      "stateMutability": "view",
      "type": "function",
      "constant": true
    },
    {
      "inputs": [],
      "name": "owner",
      "outputs": [
        {
          "internalType": "address",
          "name": "",
          "type": "address"
        }
      ],
      "stateMutability": "view",
      "type": "function",
      "constant": true
    },
    {
      "inputs": [
        {
          "internalType": "uint256",
          "name": "tokenId",
          "type": "uint256"
        }
      ],
      "name": "ownerOf",
      "outputs": [
        {
          "internalType": "address",
          "name": "",
          "type": "address"
        }
      ],
      "stateMutability": "view",
      "type": "function",
      "constant": true
    },
    {
      "inputs": [],
      "name": "publicSale",
      "outputs": [
        {
          "internalType": "bool",
          "name": "",
          "type": "bool"
        }
      ],
      "stateMutability": "view",
      "type": "function",
      "constant": true
    },
    {
      "inputs": [],
      "name": "renounceOwnership",
      "outputs": [],
      "stateMutability": "nonpayable",
      "type": "function"
    },
    {
      "inputs": [],
      "name": "reveal",
      "outputs": [
        {
          "internalType": "bool",
          "name": "",
          "type": "bool"
        }
      ],
      "stateMutability": "view",
      "type": "function",
      "constant": true
    },
    {
      "inputs": [
        {
          "internalType": "uint256",
          "name": "",
          "type": "uint256"
        }
      ],
      "name": "revealURIs",
      "outputs": [
        {
          "internalType": "string",
          "name": "",
          "type": "string"
        }
      ],
      "stateMutability": "view",
      "type": "function",
      "constant": true
    },
    {
      "inputs": [],
      "name": "routerAddress",
      "outputs": [
        {
          "internalType": "address",
          "name": "",
          "type": "address"
        }
      ],
      "stateMutability": "view",
      "type": "function",
      "constant": true
    },
    {
      "inputs": [
        {
          "internalType": "address",
          "name": "from",
          "type": "address"
        },
        {
          "internalType": "address",
          "name": "to",
          "type": "address"
        },
        {
          "internalType": "uint256",
          "name": "tokenId",
          "type": "uint256"
        }
      ],
      "name": "safeTransferFrom",
      "outputs": [],
      "stateMutability": "nonpayable",
      "type": "function"
    },
    {
      "inputs": [
        {
          "internalType": "address",
          "name": "from",
          "type": "address"
        },
        {
          "internalType": "address",
          "name": "to",
          "type": "address"
        },
        {
          "internalType": "uint256",
          "name": "tokenId",
          "type": "uint256"
        },
        {
          "internalType": "bytes",
          "name": "_data",
          "type": "bytes"
        }
      ],
      "name": "safeTransferFrom",
      "outputs": [],
      "stateMutability": "nonpayable",
      "type": "function"
    },
    {
      "inputs": [
        {
          "internalType": "address",
          "name": "operator",
          "type": "address"
        },
        {
          "internalType": "bool",
          "name": "approved",
          "type": "bool"
        }
      ],
      "name": "setApprovalForAll",
      "outputs": [],
      "stateMutability": "nonpayable",
      "type": "function"
    },
    {
      "inputs": [],
      "name": "stableToken",
      "outputs": [
        {
          "internalType": "address",
          "name": "",
          "type": "address"
        }
      ],
      "stateMutability": "view",
      "type": "function",
      "constant": true
    },
    {
      "inputs": [],
      "name": "subMintedCount",
      "outputs": [
        {
          "internalType": "uint256",
          "name": "",
          "type": "uint256"
        }
      ],
      "stateMutability": "view",
      "type": "function",
      "constant": true
    },
    {
      "inputs": [
        {
          "internalType": "bytes4",
          "name": "interfaceId",
          "type": "bytes4"
        }
      ],
      "name": "supportsInterface",
      "outputs": [
        {
          "internalType": "bool",
          "name": "",
          "type": "bool"
        }
      ],
      "stateMutability": "view",
      "type": "function",
      "constant": true
    },
    {
      "inputs": [],
      "name": "symbol",
      "outputs": [
        {
          "internalType": "string",
          "name": "",
          "type": "string"
        }
      ],
      "stateMutability": "view",
      "type": "function",
      "constant": true
    },
    {
      "inputs": [
        {
          "internalType": "uint256",
          "name": "index",
          "type": "uint256"
        }
      ],
      "name": "tokenByIndex",
      "outputs": [
        {
          "internalType": "uint256",
          "name": "",
          "type": "uint256"
        }
      ],
      "stateMutability": "view",
      "type": "function",
      "constant": true
    },
    {
      "inputs": [
        {
          "internalType": "uint256",
          "name": "",
          "type": "uint256"
        }
      ],
      "name": "tokenIds",
      "outputs": [
        {
          "internalType": "uint256",
          "name": "",
          "type": "uint256"
        }
      ],
      "stateMutability": "view",
      "type": "function",
      "constant": true
    },
    {
      "inputs": [],
      "name": "tokenMinted",
      "outputs": [
        {
          "internalType": "uint256",
          "name": "",
          "type": "uint256"
        }
      ],
      "stateMutability": "view",
      "type": "function",
      "constant": true
    },
    {
      "inputs": [
        {
          "internalType": "address",
          "name": "owner",
          "type": "address"
        },
        {
          "internalType": "uint256",
          "name": "index",
          "type": "uint256"
        }
      ],
      "name": "tokenOfOwnerByIndex",
      "outputs": [
        {
          "internalType": "uint256",
          "name": "",
          "type": "uint256"
        }
      ],
      "stateMutability": "view",
      "type": "function",
      "constant": true
    },
    {
      "inputs": [],
      "name": "totalSupply",
      "outputs": [
        {
          "internalType": "uint256",
          "name": "",
          "type": "uint256"
        }
      ],
      "stateMutability": "view",
      "type": "function",
      "constant": true
    },
    {
      "inputs": [
        {
          "internalType": "address",
          "name": "from",
          "type": "address"
        },
        {
          "internalType": "address",
          "name": "to",
          "type": "address"
        },
        {
          "internalType": "uint256",
          "name": "tokenId",
          "type": "uint256"
        }
      ],
      "name": "transferFrom",
      "outputs": [],
      "stateMutability": "nonpayable",
      "type": "function"
    },
    {
      "inputs": [
        {
          "internalType": "address",
          "name": "newOwner",
          "type": "address"
        }
      ],
      "name": "transferOwnership",
      "outputs": [],
      "stateMutability": "nonpayable",
      "type": "function"
    },
    {
      "inputs": [],
      "name": "uniswapV2Router",
      "outputs": [
        {
          "internalType": "contract IUniswapV2Router02",
          "name": "",
          "type": "address"
        }
      ],
      "stateMutability": "view",
      "type": "function",
      "constant": true
    },
    {
      "inputs": [],
      "name": "unrevealURI",
      "outputs": [
        {
          "internalType": "string",
          "name": "",
          "type": "string"
        }
      ],
      "stateMutability": "view",
      "type": "function",
      "constant": true
    },
    {
      "inputs": [
        {
          "internalType": "bool",
          "name": "_endSale",
          "type": "bool"
        }
      ],
      "name": "setEndSale",
      "outputs": [],
      "stateMutability": "nonpayable",
      "type": "function"
    },
    {
      "inputs": [
        {
          "internalType": "address",
          "name": "_add",
          "type": "address"
        }
      ],
      "name": "setWhitelist",
      "outputs": [],
      "stateMutability": "nonpayable",
      "type": "function"
    },
    {
      "inputs": [
        {
          "internalType": "address[]",
          "name": "_adds",
          "type": "address[]"
        }
      ],
      "name": "setWhitelistAll",
      "outputs": [],
      "stateMutability": "nonpayable",
      "type": "function"
    },
    {
      "inputs": [
        {
          "internalType": "address",
          "name": "_owner",
          "type": "address"
        }
      ],
      "name": "getNFTBalance",
      "outputs": [
        {
          "internalType": "uint256",
          "name": "",
          "type": "uint256"
        }
      ],
      "stateMutability": "view",
      "type": "function",
      "constant": true
    },
    {
      "inputs": [],
      "name": "getNFTPrice",
      "outputs": [
        {
          "internalType": "uint256",
          "name": "",
          "type": "uint256"
        }
      ],
      "stateMutability": "view",
      "type": "function",
      "constant": true
    },
    {
      "inputs": [],
      "name": "claimNFT",
      "outputs": [],
      "stateMutability": "nonpayable",
      "type": "function"
    },
    {
      "inputs": [
        {
          "internalType": "uint256",
          "name": "_cnt",
          "type": "uint256"
        }
      ],
      "name": "mintNFT",
      "outputs": [],
      "stateMutability": "payable",
      "type": "function",
      "payable": true
    },
    {
      "inputs": [
        {
          "internalType": "string[]",
          "name": "_revealURIs",
          "type": "string[]"
        }
      ],
      "name": "batchURLs",
      "outputs": [],
      "stateMutability": "nonpayable",
      "type": "function"
    },
    {
      "inputs": [],
      "name": "withdraw",
      "outputs": [],
      "stateMutability": "nonpayable",
      "type": "function"
    },
    {
      "inputs": [
        {
          "internalType": "uint256",
          "name": "tokenId",
          "type": "uint256"
        }
      ],
      "name": "tokenURI",
      "outputs": [
        {
          "internalType": "string",
          "name": "",
          "type": "string"
        }
      ],
      "stateMutability": "view",
      "type": "function",
      "constant": true
    },
    {
      "inputs": [
        {
          "internalType": "string",
          "name": "_uri",
          "type": "string"
        }
      ],
      "name": "setUnrevealURI",
      "outputs": [],
      "stateMutability": "nonpayable",
      "type": "function"
    },
    {
      "inputs": [],
      "name": "_price",
      "outputs": [
        {
          "internalType": "uint256",
          "name": "",
          "type": "uint256"
        }
      ],
      "stateMutability": "view",
      "type": "function",
      "constant": true
    },
    {
      "inputs": [
        {
          "internalType": "uint256",
          "name": "_priceextended_",
          "type": "uint256"
        }
      ],
      "name": "setPrice",
      "outputs": [],
      "stateMutability": "nonpayable",
      "type": "function"
    },
    {
      "inputs": [
        {
          "internalType": "address",
          "name": "_addr",
          "type": "address"
        }
      ],
      "name": "setMarketWallet",
      "outputs": [],
      "stateMutability": "nonpayable",
      "type": "function"
    },
    {
      "inputs": [
        {
          "internalType": "address",
          "name": "_addr",
          "type": "address"
        }
      ],
      "name": "setDevWallet",
      "outputs": [],
      "stateMutability": "nonpayable",
      "type": "function"
    },
    {
      "inputs": [
        {
          "internalType": "address",
          "name": "_addr",
          "type": "address"
        }
      ],
      "name": "setOtherWallet",
      "outputs": [],
      "stateMutability": "nonpayable",
      "type": "function"
    },
    {
      "inputs": [
        {
          "internalType": "uint256",
          "name": "_newFee",
          "type": "uint256"
        }
      ],
      "name": "setMarketFee",
      "outputs": [],
      "stateMutability": "nonpayable",
      "type": "function"
    },
    {
      "inputs": [
        {
          "internalType": "uint256",
          "name": "_newFee",
          "type": "uint256"
        }
      ],
      "name": "setDevFee",
      "outputs": [],
      "stateMutability": "nonpayable",
      "type": "function"
    },
    {
      "inputs": [
        {
          "internalType": "uint256",
          "name": "_newFee",
          "type": "uint256"
        }
      ],
      "name": "setOtherFee",
      "outputs": [],
      "stateMutability": "nonpayable",
      "type": "function"
    }
  ],
  "bytecode": "0x612710600b556103e8600c819055600d819055600e55600f80546001600160a01b0319908116909155601080549091169055601180546001600160a81b031916600160a01b17905560e06040526022608081815290620038e060a0398051620000719160149160209091019062000216565b506016805461ffff19169055601c80546001600160a01b031916731b02da8cb0d097eb8d57a175b88c7d8b479975061790556000601d819055601e55348015620000ba57600080fd5b50604080518082018252601081526f149859db985c9bdac8141c9bda9958dd60821b6020808301918252835180850190945260088452675261676e61726f6b60c01b908401528151919291620001139160009162000216565b5080516200012990600190602084019062000216565b5050506200014662000140620001c060201b60201c565b620001c4565b6040805180820190915260158082527f68747470733a2f2f697066732e696f2f697066732f000000000000000000000060209092019182526200018c9160179162000216565b50662386f26fc10000601855601c54601b80546001600160a01b0319166001600160a01b03909216919091179055620002f9565b3390565b600a80546001600160a01b038381166001600160a01b0319831681179093556040519116919082907f8be0079c531659141344cd1fd0a4f28419497f9722a3daafe3b4186f6b6457e090600090a35050565b8280546200022490620002bc565b90600052602060002090601f01602090048101928262000248576000855562000293565b82601f106200026357805160ff191683800117855562000293565b8280016001018555821562000293579182015b828111156200029357825182559160200191906001019062000276565b50620002a1929150620002a5565b5090565b5b80821115620002a15760008155600101620002a6565b600281046001821680620002d157607f821691505b60208210811415620002f357634e487b7160e01b600052602260045260246000fd5b50919050565b6135d780620003096000396000f3fe60806040526004361061036b5760003560e01c8063715018a6116101c6578063aeb0bc79116100f7578063d58778d611610095578063e4440a861161006f578063e4440a861461091a578063e985e9c51461092f578063f2fde38b1461094f578063fb107a4f1461096f5761036b565b8063d58778d6146108c5578063d5f51717146108e5578063dee6dd41146108fa5761036b565b8063b9f236a6116100d1578063b9f236a614610845578063bf8ebd8514610865578063c04508de14610885578063c87b56dd146108a55761036b565b8063aeb0bc79146107f0578063b5077f4414610810578063b88d4fde146108255761036b565b806395d89b41116101645780639a36f9321161013e5780639a36f93214610791578063a22cb465146107a6578063a475b5dd146107c6578063a9d75b2b146107db5761036b565b806395d89b4114610747578063963563551461075c57806397bc411c146107715761036b565b80638da5cb5b116101a05780638da5cb5b146106ea5780638ea5220f146106ff57806391b7f5ed1461071457806392642744146107345761036b565b8063715018a6146106955780638256b448146106aa578063854cff2f146106ca5761036b565b80632f745c59116102a05780634f6ccce71161023e578063650db3ac11610218578063650db3ac1461062b578063672756ad1461064b5780636827e7641461066057806370a08231146106755761036b565b80634f6ccce7146105cb57806354332266146105eb5780636352211e1461060b5761036b565b8063343ab2161161027a578063343ab2161461056c578063380d831b146105815780633ccfd60b1461059657806342842e0e146105ab5761036b565b80632f745c59146105225780633268cc561461054257806333bc1c5c146105575761036b565b806318160ddd1161030d5780632126ea81116102e75780632126ea81146104b8578063235b6ea1146104cd57806323b872dd146104e257806326b825d2146105025761036b565b806318160ddd146104635780631c75b6b2146104785780631f53ac02146104985761036b565b8063095ea7b311610349578063095ea7b3146103f55780630ccf2156146104175780630d36f564146104395780631694505e1461044e5761036b565b806301ffc9a71461037057806306fdde03146103a6578063081812fc146103c8575b600080fd5b34801561037c57600080fd5b5061039061038b366004612bc1565b610984565b60405161039d9190612d1b565b60405180910390f35b3480156103b257600080fd5b506103bb6109b1565b60405161039d9190612d26565b3480156103d457600080fd5b506103e86103e3366004612c2c565b610a43565b60405161039d9190612cca565b34801561040157600080fd5b50610415610410366004612a59565b610a8f565b005b34801561042357600080fd5b5061042c610b27565b60405161039d91906133e5565b34801561044557600080fd5b506103e8610b2d565b34801561045a57600080fd5b506103e8610b3c565b34801561046f57600080fd5b5061042c610b4b565b34801561048457600080fd5b50610415610493366004612c2c565b610b51565b3480156104a457600080fd5b506104156104b3366004612930565b610bb7565b3480156104c457600080fd5b506103bb610c3e565b3480156104d957600080fd5b5061042c610ccc565b3480156104ee57600080fd5b506104156104fd36600461297c565b610cd2565b34801561050e57600080fd5b5061041561051d366004612c2c565b610d0a565b34801561052e57600080fd5b5061042c61053d366004612a59565b610d70565b34801561054e57600080fd5b506103e8610dc2565b34801561056357600080fd5b50610390610dd1565b34801561057857600080fd5b5061042c610de1565b34801561058d57600080fd5b50610390610de7565b3480156105a257600080fd5b50610415610df5565b3480156105b757600080fd5b506104156105c636600461297c565b610e8c565b3480156105d757600080fd5b5061042c6105e6366004612c2c565b610ea7565b3480156105f757600080fd5b50610415610606366004612930565b610f02565b34801561061757600080fd5b506103e8610626366004612c2c565b610f89565b34801561063757600080fd5b50610415610646366004612a82565b610fbe565b34801561065757600080fd5b50610415611070565b34801561066c57600080fd5b5061042c611157565b34801561068157600080fd5b5061042c610690366004612930565b61115d565b3480156106a157600080fd5b506104156111a1565b3480156106b657600080fd5b506103bb6106c5366004612c2c565b6111ec565b3480156106d657600080fd5b506104156106e5366004612930565b611217565b3480156106f657600080fd5b506103e86112a0565b34801561070b57600080fd5b506103e86112af565b34801561072057600080fd5b5061041561072f366004612c2c565b6112be565b610415610742366004612c2c565b611302565b34801561075357600080fd5b506103bb611732565b34801561076857600080fd5b5061042c611741565b34801561077d57600080fd5b5061041561078c366004612bf9565b611747565b34801561079d57600080fd5b5061042c611799565b3480156107b257600080fd5b506104156107c1366004612a30565b61179f565b3480156107d257600080fd5b506103906117b1565b3480156107e757600080fd5b506103e86117ba565b3480156107fc57600080fd5b5061041561080b366004612c2c565b6117d2565b34801561081c57600080fd5b5061042c611838565b34801561083157600080fd5b506104156108403660046129b7565b61183f565b34801561085157600080fd5b50610415610860366004612b1e565b61187e565b34801561087157600080fd5b5061042c610880366004612930565b611930565b34801561089157600080fd5b506104156108a0366004612930565b61193b565b3480156108b157600080fd5b506103bb6108c0366004612c2c565b6119c2565b3480156108d157600080fd5b5061042c6108e0366004612c2c565b611bab565b3480156108f157600080fd5b5061042c611bbd565b34801561090657600080fd5b50610415610915366004612ba7565b611bc3565b34801561092657600080fd5b506103e8611c1c565b34801561093b57600080fd5b5061039061094a36600461294a565b611c2b565b34801561095b57600080fd5b5061041561096a366004612930565b611c59565b34801561097b57600080fd5b5061042c611cca565b60006001600160e01b0319821663780e9d6360e01b14806109a957506109a982611cf7565b90505b919050565b6060600080546109c0906134df565b80601f01602080910402602001604051908101604052809291908181526020018280546109ec906134df565b8015610a395780601f10610a0e57610100808354040283529160200191610a39565b820191906000526020600020905b815481529060010190602001808311610a1c57829003601f168201915b5050505050905090565b6000610a4e82611d37565b610a735760405162461bcd60e51b8152600401610a6a90613135565b60405180910390fd5b506000908152600460205260409020546001600160a01b031690565b6000610a9a82610f89565b9050806001600160a01b0316836001600160a01b03161415610ace5760405162461bcd60e51b8152600401610a6a90613271565b806001600160a01b0316610ae0611d54565b6001600160a01b03161480610afc5750610afc8161094a611d54565b610b185760405162461bcd60e51b8152600401610a6a90612f88565b610b228383611d58565b505050565b600d5481565b6011546001600160a01b031681565b601b546001600160a01b031681565b60085490565b610b59611d54565b6001600160a01b0316610b6a6112a0565b6001600160a01b031614610b905760405162461bcd60e51b8152600401610a6a90613181565b6103e8811115610bb25760405162461bcd60e51b8152600401610a6a906133b6565b600c55565b610bbf611d54565b6001600160a01b0316610bd06112a0565b6001600160a01b031614610bf65760405162461bcd60e51b8152600401610a6a90613181565b6001600160a01b038116610c1c5760405162461bcd60e51b8152600401610a6a906131de565b600f80546001600160a01b0319166001600160a01b0392909216919091179055565b60148054610c4b906134df565b80601f0160208091040260200160405190810160405280929190818152602001828054610c77906134df565b8015610cc45780601f10610c9957610100808354040283529160200191610cc4565b820191906000526020600020905b815481529060010190602001808311610ca757829003601f168201915b505050505081565b60185490565b610ce3610cdd611d54565b82611dc6565b610cff5760405162461bcd60e51b8152600401610a6a906132e2565b610b22838383611e43565b610d12611d54565b6001600160a01b0316610d236112a0565b6001600160a01b031614610d495760405162461bcd60e51b8152600401610a6a90613181565b6103e8811115610d6b5760405162461bcd60e51b8152600401610a6a906133b6565b600d55565b6000610d7b8361115d565b8210610d995760405162461bcd60e51b8152600401610a6a90612d39565b506001600160a01b03919091166000908152600660209081526040808320938352929052205490565b601c546001600160a01b031681565b601154600160a01b900460ff1681565b600e5481565b601654610100900460ff1681565b610dfd611d54565b6001600160a01b0316610e0e6112a0565b6001600160a01b031614610e345760405162461bcd60e51b8152600401610a6a90613181565b601654610100900460ff16610e5b5760405162461bcd60e51b8152600401610a6a90612e98565b60405147903390819083156108fc029084906000818181858888f19350505050158015610b22573d6000803e3d6000fd5b610b228383836040518060200160405280600081525061183f565b6000610eb1610b4b565b8210610ecf5760405162461bcd60e51b8152600401610a6a90613333565b60088281548110610ef057634e487b7160e01b600052603260045260246000fd5b90600052602060002001549050919050565b610f0a611d54565b6001600160a01b0316610f1b6112a0565b6001600160a01b031614610f415760405162461bcd60e51b8152600401610a6a90613181565b6001600160a01b038116610f675760405162461bcd60e51b8152600401610a6a906131de565b601080546001600160a01b0319166001600160a01b0392909216919091179055565b6000818152600260205260408120546001600160a01b0316806109a95760405162461bcd60e51b8152600401610a6a9061302f565b610fc6611d54565b6001600160a01b0316610fd76112a0565b6001600160a01b031614610ffd5760405162461bcd60e51b8152600401610a6a90613181565b60005b815181101561106c57600082828151811061102b57634e487b7160e01b600052603260045260246000fd5b6020908102919091018101516001600160a01b03166000908152601290915260409020805460ff1916600117905550806110648161351a565b915050611000565b5050565b611078611d54565b6001600160a01b03166110896112a0565b6001600160a01b0316146110af5760405162461bcd60e51b8152600401610a6a90613181565b62030d40601d54106110d35760405162461bcd60e51b8152600401610a6a906132b2565b6110dd601f611f76565b60006110e7611f7f565b90506110f33382611ff8565b6000818152601960205260408120805460ff19166001908117909155601d805491929091611122908490613451565b9091555050601d546000828152601a6020526040812091909155601e80546001929061114f908490613451565b909155505050565b600c5481565b60006001600160a01b0382166111855760405162461bcd60e51b8152600401610a6a90612fe5565b506001600160a01b031660009081526003602052604090205490565b6111a9611d54565b6001600160a01b03166111ba6112a0565b6001600160a01b0316146111e05760405162461bcd60e51b8152600401610a6a90613181565b6111ea6000612012565b565b601581815481106111fc57600080fd5b906000526020600020016000915090508054610c4b906134df565b61121f611d54565b6001600160a01b03166112306112a0565b6001600160a01b0316146112565760405162461bcd60e51b8152600401610a6a90613181565b6001600160a01b03811661127c5760405162461bcd60e51b8152600401610a6a906131de565b6001600160a01b03166000908152601260205260409020805460ff19166001179055565b600a546001600160a01b031690565b600f546001600160a01b031681565b6112c6611d54565b6001600160a01b03166112d76112a0565b6001600160a01b0316146112fd5760405162461bcd60e51b8152600401610a6a90613181565b601855565b62030d40601d54106113265760405162461bcd60e51b8152600401610a6a906132b2565b600061134a6064611344606361133e8661133e611cca565b90612064565b90612077565b90503481111561136c5760405162461bcd60e51b8152600401610a6a9061337f565b601154600160a01b900460ff166113cd573360009081526012602052604090205460ff166113ac5760405162461bcd60e51b8152600401610a6a90613204565b60058211156113cd5760405162461bcd60e51b8152600401610a6a90613078565b6000600b54600c54346113e0919061347d565b6113ea9190613469565b90506000600b54600d54346113ff919061347d565b6114099190613469565b90506000600b54600e543461141e919061347d565b6114289190613469565b6010549091506001600160a01b0316158015906114455750600083115b156114cd576010546040516000916001600160a01b031690849061146890612c9f565b60006040518083038185875af1925050503d80600081146114a5576040519150601f19603f3d011682016040523d82523d6000602084013e6114aa565b606091505b50509050806114cb5760405162461bcd60e51b8152600401610a6a906131b6565b505b600f546001600160a01b0316158015906114e75750600083115b1561156f57600f546040516000916001600160a01b031690859061150a90612c9f565b60006040518083038185875af1925050503d8060008114611547576040519150601f19603f3d011682016040523d82523d6000602084013e61154c565b606091505b505090508061156d5760405162461bcd60e51b8152600401610a6a906131b6565b505b6011546001600160a01b0316158015906115895750600083115b15611611576011546040516000916001600160a01b03169083906115ac90612c9f565b60006040518083038185875af1925050503d80600081146115e9576040519150601f19603f3d011682016040523d82523d6000602084013e6115ee565b606091505b505090508061160f5760405162461bcd60e51b8152600401610a6a906131b6565b505b60005b858110156116db57611626601f611f76565b6000611630611f7f565b90506103e8601e541061165b576000601e5560185461165790606490611344906065612064565b6018555b6116653382611ff8565b6000818152601960205260408120805460ff19166001908117909155601d805491929091611694908490613451565b9091555050601d546000828152601a6020526040812091909155601e8054600192906116c1908490613451565b909155508291506116d390508161351a565b915050611614565b506116e4611d54565b6001600160a01b0316601d547fa8df055256606ba5aac9eb70062e4896d61ca7e3a678b0e783be2a1c18cdc0e6876018546040516117239291906133ee565b60405180910390a35050505050565b6060600180546109c0906134df565b601d5481565b61174f611d54565b6001600160a01b03166117606112a0565b6001600160a01b0316146117865760405162461bcd60e51b8152600401610a6a90613181565b805161106c9060149060208401906127f9565b600b5481565b61106c6117aa611d54565b8383612083565b60165460ff1681565b73a02f6adc7926efebbd59fd43a84f4e0c0c91e83281565b6117da611d54565b6001600160a01b03166117eb6112a0565b6001600160a01b0316146118115760405162461bcd60e51b8152600401610a6a90613181565b6103e88111156118335760405162461bcd60e51b8152600401610a6a906133b6565b600e55565b62030d4081565b61185061184a611d54565b83611dc6565b61186c5760405162461bcd60e51b8152600401610a6a906132e2565b61187884848484612126565b50505050565b611886611d54565b6001600160a01b03166118976112a0565b6001600160a01b0316146118bd5760405162461bcd60e51b8152600401610a6a90613181565b60005b815181101561106c5760158282815181106118eb57634e487b7160e01b600052603260045260246000fd5b6020908102919091018101518254600181018455600093845292829020815161191d94919091019291909101906127f9565b50806119288161351a565b9150506118c0565b60006109a98261115d565b611943611d54565b6001600160a01b03166119546112a0565b6001600160a01b03161461197a5760405162461bcd60e51b8152600401610a6a90613181565b6001600160a01b0381166119a05760405162461bcd60e51b8152600401610a6a906131de565b601180546001600160a01b0319166001600160a01b0392909216919091179055565b60606119cd82611d37565b6119e95760405162461bcd60e51b8152600401610a6a906130e4565b60165460609060ff1615611a955760008381526013602052604090208054611a10906134df565b80601f0160208091040260200160405190810160405280929190818152602001828054611a3c906134df565b8015611a895780601f10611a5e57610100808354040283529160200191611a89565b820191906000526020600020905b815481529060010190602001808311611a6c57829003601f168201915b50505050509050611b23565b60148054611aa2906134df565b80601f0160208091040260200160405190810160405280929190818152602001828054611ace906134df565b8015611b1b5780601f10611af057610100808354040283529160200191611b1b565b820191906000526020600020905b815481529060010190602001808311611afe57829003601f168201915b505050505090505b6000611b2d612159565b9050805160001415611b41575090506109ac565b815115611b8b576000848152601a60205260409020548290611b6290612168565b604051602001611b73929190612c70565b604051602081830303815290604052925050506109ac565b6000848152601a6020526040902054611ba390612283565b949350505050565b601a6020526000908152604090205481565b601e5481565b611bcb611d54565b6001600160a01b0316611bdc6112a0565b6001600160a01b031614611c025760405162461bcd60e51b8152600401610a6a90613181565b601680549115156101000261ff0019909216919091179055565b6010546001600160a01b031681565b6001600160a01b03918216600090815260056020908152604080832093909416825291909152205460ff1690565b611c61611d54565b6001600160a01b0316611c726112a0565b6001600160a01b031614611c985760405162461bcd60e51b8152600401610a6a90613181565b6001600160a01b038116611cbe5760405162461bcd60e51b8152600401610a6a90612dd6565b611cc781612012565b50565b600062030d40601d5410611cf05760405162461bcd60e51b8152600401610a6a906132b2565b5060185490565b60006001600160e01b031982166380ac58cd60e01b1480611d2857506001600160e01b03198216635b5e139f60e01b145b806109a957506109a982612305565b6000908152600260205260409020546001600160a01b0316151590565b3390565b600081815260046020526040902080546001600160a01b0319166001600160a01b0384169081179091558190611d8d82610f89565b6001600160a01b03167f8c5be1e5ebec7d5bd14f71427d1e84f3dd0314c0f7b2291e5b200ac8c7c3b92560405160405180910390a45050565b6000611dd182611d37565b611ded5760405162461bcd60e51b8152600401610a6a90612f3c565b6000611df883610f89565b9050806001600160a01b0316846001600160a01b03161480611e335750836001600160a01b0316611e2884610a43565b6001600160a01b0316145b80611ba35750611ba38185611c2b565b826001600160a01b0316611e5682610f89565b6001600160a01b031614611e7c5760405162461bcd60e51b8152600401610a6a90612e1c565b6001600160a01b038216611ea25760405162461bcd60e51b8152600401610a6a90612ec1565b611ead83838361231e565b611eb8600082611d58565b6001600160a01b0383166000908152600360205260408120805460019290611ee190849061349c565b90915550506001600160a01b0382166000908152600360205260408120805460019290611f0f908490613451565b909155505060008181526002602052604080822080546001600160a01b0319166001600160a01b0386811691821790925591518493918716917fddf252ad1be2c89b69c2b068fc378daa952ba7f163c4a11628f55a4df523b3ef91a4610b22838383610b22565b80546001019055565b6000805b611fc6629896804233611f96601f6123a7565b604051602001611fa893929190612ca2565b60408051601f198184030181529190528051602090910120906123ab565b60008181526019602052604090205490915060ff16611fe457611ff3565b611fee601f611f76565b611f83565b905090565b61106c8282604051806020016040528060008152506123b7565b600a80546001600160a01b038381166001600160a01b0319831681179093556040519116919082907f8be0079c531659141344cd1fd0a4f28419497f9722a3daafe3b4186f6b6457e090600090a35050565b6000612070828461347d565b9392505050565b60006120708284613469565b816001600160a01b0316836001600160a01b031614156120b55760405162461bcd60e51b8152600401610a6a90612f05565b6001600160a01b0383811660008181526005602090815260408083209487168084529490915290819020805460ff1916851515179055517f17307eab39ab6107e8899845ad3d59bd9653f200f220920489ca2b5937696c3190612119908590612d1b565b60405180910390a3505050565b612131848484611e43565b61213d848484846123ea565b6118785760405162461bcd60e51b8152600401610a6a90612d84565b6060601780546109c0906134df565b60608161218d57506040805180820190915260018152600360fc1b60208201526109ac565b8160005b81156121b757806121a18161351a565b91506121b09050600a83613469565b9150612191565b60008167ffffffffffffffff8111156121e057634e487b7160e01b600052604160045260246000fd5b6040519080825280601f01601f19166020018201604052801561220a576020820181803683370190505b5090505b8415611ba35761221f60018361349c565b915061222c600a86613535565b612237906030613451565b60f81b81838151811061225a57634e487b7160e01b600052603260045260246000fd5b60200101906001600160f81b031916908160001a90535061227c600a86613469565b945061220e565b606061228e82611d37565b6122aa5760405162461bcd60e51b8152600401610a6a90613222565b60006122b4612159565b905060008151116122d45760405180602001604052806000815250612070565b806122de84612168565b6040516020016122ef929190612c70565b6040516020818303038152906040529392505050565b6001600160e01b031981166301ffc9a760e01b14919050565b612329838383610b22565b6001600160a01b0383166123455761234081612505565b612368565b816001600160a01b0316836001600160a01b031614612368576123688382612549565b6001600160a01b0382166123845761237f816125e6565b610b22565b826001600160a01b0316826001600160a01b031614610b2257610b2282826126bf565b5490565b60006120708284613535565b6123c18383612703565b6123ce60008484846123ea565b610b225760405162461bcd60e51b8152600401610a6a90612d84565b60006123fe846001600160a01b03166127ea565b156124fa57836001600160a01b031663150b7a0261241a611d54565b8786866040518563ffffffff1660e01b815260040161243c9493929190612cde565b602060405180830381600087803b15801561245657600080fd5b505af1925050508015612486575060408051601f3d908101601f1916820190925261248391810190612bdd565b60015b6124e0573d8080156124b4576040519150601f19603f3d011682016040523d82523d6000602084013e6124b9565b606091505b5080516124d85760405162461bcd60e51b8152600401610a6a90612d84565b805181602001fd5b6001600160e01b031916630a85bd0160e11b149050611ba3565b506001949350505050565b600880546000838152600960205260408120829055600182018355919091527ff3f7a9fe364faab93b216da50a3214154f22a0a2b415b23a84c8169e8b636ee30155565b600060016125568461115d565b612560919061349c565b6000838152600760205260409020549091508082146125b3576001600160a01b03841660009081526006602090815260408083208584528252808320548484528184208190558352600790915290208190555b5060009182526007602090815260408084208490556001600160a01b039094168352600681528383209183525290812055565b6008546000906125f89060019061349c565b6000838152600960205260408120546008805493945090928490811061262e57634e487b7160e01b600052603260045260246000fd5b90600052602060002001549050806008838154811061265d57634e487b7160e01b600052603260045260246000fd5b60009182526020808320909101929092558281526009909152604080822084905585825281205560088054806126a357634e487b7160e01b600052603160045260246000fd5b6001900381819060005260206000200160009055905550505050565b60006126ca8361115d565b6001600160a01b039093166000908152600660209081526040808320868452825280832085905593825260079052919091209190915550565b6001600160a01b0382166127295760405162461bcd60e51b8152600401610a6a906130af565b61273281611d37565b1561274f5760405162461bcd60e51b8152600401610a6a90612e61565b61275b6000838361231e565b6001600160a01b0382166000908152600360205260408120805460019290612784908490613451565b909155505060008181526002602052604080822080546001600160a01b0319166001600160a01b03861690811790915590518392907fddf252ad1be2c89b69c2b068fc378daa952ba7f163c4a11628f55a4df523b3ef908290a461106c60008383610b22565b6001600160a01b03163b151590565b828054612805906134df565b90600052602060002090601f016020900481019282612827576000855561286d565b82601f1061284057805160ff191683800117855561286d565b8280016001018555821561286d579182015b8281111561286d578251825591602001919060010190612852565b5061287992915061287d565b5090565b5b80821115612879576000815560010161287e565b600067ffffffffffffffff8311156128ac576128ac613575565b6128bf601f8401601f19166020016133fc565b90508281528383830111156128d357600080fd5b828260208301376000602084830101529392505050565b80356001600160a01b03811681146109ac57600080fd5b803580151581146109ac57600080fd5b600082601f830112612921578081fd5b61207083833560208501612892565b600060208284031215612941578081fd5b612070826128ea565b6000806040838503121561295c578081fd5b612965836128ea565b9150612973602084016128ea565b90509250929050565b600080600060608486031215612990578081fd5b612999846128ea565b92506129a7602085016128ea565b9150604084013590509250925092565b600080600080608085870312156129cc578081fd5b6129d5856128ea565b93506129e3602086016128ea565b925060408501359150606085013567ffffffffffffffff811115612a05578182fd5b8501601f81018713612a15578182fd5b612a2487823560208401612892565b91505092959194509250565b60008060408385031215612a42578182fd5b612a4b836128ea565b915061297360208401612901565b60008060408385031215612a6b578182fd5b612a74836128ea565b946020939093013593505050565b60006020808385031215612a94578182fd5b823567ffffffffffffffff811115612aaa578283fd5b8301601f81018513612aba578283fd5b8035612acd612ac88261342d565b6133fc565b8181528381019083850185840285018601891015612ae9578687fd5b8694505b83851015612b1257612afe816128ea565b835260019490940193918501918501612aed565b50979650505050505050565b60006020808385031215612b30578182fd5b823567ffffffffffffffff811115612b46578283fd5b8301601f81018513612b56578283fd5b8035612b64612ac88261342d565b81815283810190838501865b84811015612b9957612b878a888435890101612911565b84529286019290860190600101612b70565b509098975050505050505050565b600060208284031215612bb8578081fd5b61207082612901565b600060208284031215612bd2578081fd5b81356120708161358b565b600060208284031215612bee578081fd5b81516120708161358b565b600060208284031215612c0a578081fd5b813567ffffffffffffffff811115612c20578182fd5b611ba384828501612911565b600060208284031215612c3d578081fd5b5035919050565b60008151808452612c5c8160208601602086016134b3565b601f01601f19169290920160200192915050565b60008351612c828184602088016134b3565b835190830190612c968183602088016134b3565b01949350505050565b90565b92835260609190911b6bffffffffffffffffffffffff19166020830152603482015260540190565b6001600160a01b0391909116815260200190565b6001600160a01b0385811682528416602082015260408101839052608060608201819052600090612d1190830184612c44565b9695505050505050565b901515815260200190565b6000602082526120706020830184612c44565b6020808252602b908201527f455243373231456e756d657261626c653a206f776e657220696e646578206f7560408201526a74206f6620626f756e647360a81b606082015260800190565b60208082526032908201527f4552433732313a207472616e7366657220746f206e6f6e20455243373231526560408201527131b2b4bb32b91034b6b83632b6b2b73a32b960711b606082015260800190565b60208082526026908201527f4f776e61626c653a206e6577206f776e657220697320746865207a65726f206160408201526564647265737360d01b606082015260800190565b60208082526025908201527f4552433732313a207472616e736665722066726f6d20696e636f72726563742060408201526437bbb732b960d91b606082015260800190565b6020808252601c908201527f4552433732313a20746f6b656e20616c7265616479206d696e74656400000000604082015260600190565b6020808252600f908201526e4f6e676f696e67204d696e74696e6760881b604082015260600190565b60208082526024908201527f4552433732313a207472616e7366657220746f20746865207a65726f206164646040820152637265737360e01b606082015260800190565b60208082526019908201527f4552433732313a20617070726f766520746f2063616c6c657200000000000000604082015260600190565b6020808252602c908201527f4552433732313a206f70657261746f7220717565727920666f72206e6f6e657860408201526b34b9ba32b73a103a37b5b2b760a11b606082015260800190565b60208082526038908201527f4552433732313a20617070726f76652063616c6c6572206973206e6f74206f7760408201527f6e6572206e6f7220617070726f76656420666f7220616c6c0000000000000000606082015260800190565b6020808252602a908201527f4552433732313a2062616c616e636520717565727920666f7220746865207a65604082015269726f206164647265737360b01b606082015260800190565b60208082526029908201527f4552433732313a206f776e657220717565727920666f72206e6f6e657869737460408201526832b73a103a37b5b2b760b91b606082015260800190565b60208082526019908201527f4578636564656420746865204d696e74696e6720436f756e7400000000000000604082015260600190565b6020808252818101527f4552433732313a206d696e7420746f20746865207a65726f2061646472657373604082015260600190565b60208082526031908201527f45524337323155524953746f726167653a2055524920717565727920666f72206040820152703737b732bc34b9ba32b73a103a37b5b2b760791b606082015260800190565b6020808252602c908201527f4552433732313a20617070726f76656420717565727920666f72206e6f6e657860408201526b34b9ba32b73a103a37b5b2b760a11b606082015260800190565b6020808252818101527f4f776e61626c653a2063616c6c6572206973206e6f7420746865206f776e6572604082015260600190565b6020808252600e908201526d11985a5b1959081c185e5b595b9d60921b604082015260600190565b6020808252600c908201526b5a65726f204164647265737360a01b604082015260600190565b60208082526004908201526302737ba160e51b604082015260600190565b6020808252602f908201527f4552433732314d657461646174613a2055524920717565727920666f72206e6f60408201526e3732bc34b9ba32b73a103a37b5b2b760891b606082015260800190565b60208082526021908201527f4552433732313a20617070726f76616c20746f2063757272656e74206f776e656040820152603960f91b606082015260800190565b60208082526016908201527514d85b19481a185cc8185b1c9958591e48195b99195960521b604082015260600190565b60208082526031908201527f4552433732313a207472616e736665722063616c6c6572206973206e6f74206f6040820152701ddb995c881b9bdc88185c1c1c9bdd9959607a1b606082015260800190565b6020808252602c908201527f455243373231456e756d657261626c653a20676c6f62616c20696e646578206f60408201526b7574206f6620626f756e647360a01b606082015260800190565b6020808252601d908201527f4554482076616c75652073656e74206973206e6f7420636f7272656374000000604082015260600190565b6020808252601590820152745461782063616e2774206265206f7665722031302560581b604082015260600190565b90815260200190565b918252602082015260400190565b604051601f8201601f1916810167ffffffffffffffff8111828210171561342557613425613575565b604052919050565b600067ffffffffffffffff82111561344757613447613575565b5060209081020190565b6000821982111561346457613464613549565b500190565b6000826134785761347861355f565b500490565b600081600019048311821515161561349757613497613549565b500290565b6000828210156134ae576134ae613549565b500390565b60005b838110156134ce5781810151838201526020016134b6565b838111156118785750506000910152565b6002810460018216806134f357607f821691505b6020821081141561351457634e487b7160e01b600052602260045260246000fd5b50919050565b600060001982141561352e5761352e613549565b5060010190565b6000826135445761354461355f565b500690565b634e487b7160e01b600052601160045260246000fd5b634e487b7160e01b600052601260045260246000fd5b634e487b7160e01b600052604160045260246000fd5b6001600160e01b031981168114611cc757600080fdfea26469706673582212208e5976473fb9bac21d57fce5d2a533b1319eafdd97712243874d65754d684f9664736f6c6343000801003368747470733a2f2f676174657761792e70696e6174612e636c6f75642f697066732f",
  "immutableReferences": {},
  "source": "// SPDX-License-Identifier: MIT\n\npragma solidity ^0.8.0;\n\nimport \"@openzeppelin/contracts/token/ERC721/extensions/ERC721Enumerable.sol\";\nimport \"@openzeppelin/contracts/access/Ownable.sol\";\nimport \"@openzeppelin/contracts/utils/math/SafeMath.sol\";\nimport \"@openzeppelin/contracts/utils/Counters.sol\";\nimport \"./uniswapv2/interfaces/IUniswapV2Router02.sol\";\n\ncontract RagnarokProject is ERC721Enumerable, Ownable {\n    using Strings for uint256;\n    using SafeMath for uint256;\n\n    uint256 public feeDivisor = 10000;\n    uint256 public devFee = 1000;   // 1000: 10%\n    uint256 public marketFee = 1000;\n    uint256 public otherFee = 1000;\n\n    address public devWallet = address(0);\n    address public marketWallet = address(0);\n    address public otherWallet = address(0);\n\n    bool public publicSale = true;\n    mapping(address => bool) whitelist;\n\n    mapping (uint256 => string) private revealURI;\n    string public unrevealURI = \"https://gateway.pinata.cloud/ipfs/\";\n    string[] public revealURIs;\n    bool public reveal = false;\n\n    bool public endSale = false;\n\n    string private _baseURIextended;\n    uint256 private _priceextended;  // busd\n    mapping (uint256 => bool) registerID;\n    mapping (uint256 => uint256) public tokenIds;\n\n    IUniswapV2Router02 public uniswapV2Router;\n\n    address public routerAddress = address(0x1b02dA8Cb0d097eB8D57A175b88c7D8b47997506);\n\n    // pancakeswap testnet router address\n    // testnet PCS router: 0x9Ac64Cc6e4415144C455BD8E4837Fea55603e5c3\n    // mainnet PCS V2 router: 0x10ED43C718714eb63d5aA57B78B54704E256024E\n\n    // mumbai router:   0x1b02dA8Cb0d097eB8D57A175b88c7D8b47997506\n    // polygon router:  0xa5E0829CaCEd8fFDD4De3c43696c57F7D7A678ff\n\n    address public constant stableToken = address(0xA02f6adc7926efeBBd59Fd43A84f4E0c0c91e832);\n    // BUSD mainnet 0xe9e7CEA3DedcA5984780Bafc599bD69ADd087D56\n    // BUSD testnet 0x78867BbEeF44f2326bF8DDd1941a4439382EF2A7\n\n    // USDT mumbai  0xA02f6adc7926efeBBd59Fd43A84f4E0c0c91e832\n    // USDT polygon \n\n    uint256 public tokenMinted = 0;\n    uint256 public subMintedCount = 0;\n\n    using Counters for Counters.Counter;\n    Counters.Counter private _tokenIdentifiers;\n\n    uint256 private constant MAX_TOKENID_NUMBER = 1 * 10 ** 7;\n    uint256 public constant MAX_NFT_SUPPLY = 200000;\n\n    \n    /**\n     * @dev Emitted when new Token minted.\n     */\n    event MintNFT(\n        uint256 indexed tokenId,\n        address indexed minter, \n        uint256 tokenCount,\n        uint256 tokenPrice\n    );\n\n\n    constructor() ERC721(\"Ragnarok Project\", \"Ragnarok\") {\n        _baseURIextended = \"https://ipfs.io/ipfs/\";\n        // _priceextended = 10000000000000000000; // 10busd\n        _priceextended = 10000000000000000; // 0.01 MATIC\n\n        IUniswapV2Router02 _uniswapV2Router = IUniswapV2Router02(routerAddress);\n        uniswapV2Router = _uniswapV2Router;\n    }\n\n    function setEndSale(bool _endSale) public onlyOwner {\n        endSale = _endSale;\n    }\n\n    function setWhitelist(address _add) public onlyOwner {\n        require(_add != address(0), \"Zero Address\");\n        whitelist[_add] = true;\n    }\n\n    function setWhitelistAll(address[] memory _adds) public onlyOwner {\n        for(uint256 i = 0; i < _adds.length; i++) {\n            address tmp = address(_adds[i]);\n            whitelist[tmp] = true;\n        }\n    }\n\n    function getNFTBalance(address _owner) public view returns (uint256) {\n       return ERC721.balanceOf(_owner);\n    }\n\n    function getNFTPrice() public view returns (uint256) {\n        require(tokenMinted < MAX_NFT_SUPPLY, \"Sale has already ended\");\n        // return getAmountsTokenForETH(_priceextended);\n        return _priceextended;\n    }\n\n    function getAmountsTokenForETH(uint256 busdAmount) internal view returns(uint256) {\n\n        address[] memory path = new address[](2);\n        path[0] = address(stableToken);\n        path[1] = uniswapV2Router.WETH();\n\n        uint256[] memory amountOutMins = uniswapV2Router.getAmountsOut(busdAmount, path);\n        return amountOutMins[path.length - 1];\n    }\n\n    function random() internal returns (uint) {\n        uint256 ran = 0;\n        while(true) {\n            ran = uint256(keccak256(abi.encodePacked(block.timestamp, msg.sender, _tokenIdentifiers.current()))).mod(MAX_TOKENID_NUMBER);\n            if(registerID[ran] == false)\n                break;\n            _tokenIdentifiers.increment();\n        }\n        return ran;        \n    }\n\n    function claimNFT() public onlyOwner {\n        require(tokenMinted < MAX_NFT_SUPPLY, \"Sale has already ended\");\n\n        _tokenIdentifiers.increment();\n        uint256 newRECIdentifier = random();\n        _safeMint(msg.sender, newRECIdentifier);\n        registerID[newRECIdentifier] = true;\n        tokenMinted += 1;\n        tokenIds[newRECIdentifier] = tokenMinted;\n        subMintedCount += 1;\n    }\n\n    function mintNFT(uint256 _cnt) public payable {\n        require(tokenMinted < MAX_NFT_SUPPLY, \"Sale has already ended\");\n        // slippage 1%\n        uint256 minPriceForSale = getNFTPrice().mul(_cnt).mul(99).div(100);\n        require(minPriceForSale <= msg.value, \"ETH value sent is not correct\");\n\n        if(!publicSale) {\n            require(whitelist[msg.sender], \"Not \");\n            require(_cnt <= 5, \"Exceded the Minting Count\");\n        }\n\n        uint256 devFeePrice = msg.value * devFee /  feeDivisor;\n        uint256 marketFeePrice = msg.value * marketFee /  feeDivisor;\n        uint256 otherFeePrice = msg.value * otherFee /  feeDivisor;\n\n        if (marketWallet != address(0) && devFeePrice > 0) {\n            (bool sent, ) = payable(marketWallet).call{value: marketFeePrice}(\"\");\n            require(sent, \"Failed payment\");\n        }\n\n        if (devWallet != address(0) && devFeePrice > 0) {\n            (bool sent, ) = payable(devWallet).call{value: devFeePrice}(\"\");\n            require(sent, \"Failed payment\");\n        }\n\n        if (otherWallet != address(0) && devFeePrice > 0) {\n            (bool sent, ) = payable(otherWallet).call{value: otherFeePrice}(\"\");\n            require(sent, \"Failed payment\");\n        }\n\n        for(uint256 i = 0; i < _cnt; i++) {\n            _tokenIdentifiers.increment();\n            uint256 newRECIdentifier = random();\n\n            // price increasing\n            if (subMintedCount >= 1000) {\n                subMintedCount = 0;\n                _priceextended = _priceextended.mul(101).div(100);\n            }\n\n            _safeMint(msg.sender, newRECIdentifier);\n            registerID[newRECIdentifier] = true;\n            tokenMinted += 1;\n            tokenIds[newRECIdentifier] = tokenMinted;\n            subMintedCount += 1;\n        }\n\n        emit MintNFT(tokenMinted, _msgSender(), _cnt, _priceextended);\n    }\n\n    function batchURLs(string[] memory _revealURIs) public onlyOwner {\n        for(uint i = 0; i < _revealURIs.length; i++) {\n            revealURIs.push(_revealURIs[i]);\n        }\n    }\n\n    function withdraw() public onlyOwner {\n        require(endSale, \"Ongoing Minting\");\n        uint balance = address(this).balance;\n        address payable ownerAddress = payable(msg.sender);\n        ownerAddress.transfer(balance);\n    }\n\n    function tokenURI(uint256 tokenId) public view virtual override returns (string memory) {\n        require(_exists(tokenId), \"ERC721URIStorage: URI query for nonexistent token\");\n\n        string memory _tokenURI;        \n        if(reveal) {\n            _tokenURI = revealURI[tokenId];\n        } else {\n            _tokenURI = unrevealURI;\n        }\n        string memory base = _baseURI();\n\n        if (bytes(base).length == 0) {\n            return _tokenURI;\n        }\n\n        if (bytes(_tokenURI).length > 0) {\n            return string(abi.encodePacked(_tokenURI, tokenIds[tokenId].toString()));\n        }\n\n        return super.tokenURI(tokenIds[tokenId]);\n    }\n\n    function _baseURI() internal view virtual override returns (string memory) {\n        return _baseURIextended;\n    }\n\n    function setUnrevealURI(string memory _uri) external onlyOwner() {\n        unrevealURI = _uri;\n    }\n\n    function _price() public view returns (uint256) {\n        return _priceextended;\n    }\n\n    function setPrice(uint256 _priceextended_) external onlyOwner() {\n        _priceextended = _priceextended_; // as busd\n    }\n\n    function setMarketWallet(address _addr) external onlyOwner {\n        require(_addr != address(0), \"Zero Address\");\n        marketWallet = _addr;\n    }\n\n    function setDevWallet(address _addr) external onlyOwner {\n        require(_addr != address(0), \"Zero Address\");\n        devWallet = _addr;\n    }\n\n    function setOtherWallet(address _addr) external onlyOwner {\n        require(_addr != address(0), \"Zero Address\");\n        otherWallet = _addr;\n    }\n\n    function setMarketFee(uint256 _newFee) external onlyOwner {\n        require(_newFee <= 1000, \"Tax can't be over 10%\");\n        marketFee = _newFee;\n    }\n\n    function setDevFee(uint256 _newFee) external onlyOwner {\n        require(_newFee <= 1000, \"Tax can't be over 10%\");\n        devFee = _newFee;\n    }\n\n    function setOtherFee(uint256 _newFee) external onlyOwner {\n        require(_newFee <= 1000, \"Tax can't be over 10%\");\n        otherFee = _newFee;\n    }\n}",
  "sourcePath": "E:\\work\\hiccup\\Ragnarok\\contracts\\Ragnarok.sol",
  "compiler": {
    "name": "solc",
    "version": "0.8.1+commit.df193b15.Emscripten.clang"
  },
  "schemaVersion": "3.4.4",
  "updatedAt": "2022-02-21T20:03:03.421Z",
  "networkType": "ethereum",
  "devdoc": {
    "events": {
      "MintNFT(uint256,address,uint256,uint256)": {
        "details": "Emitted when new Token minted."
      }
    },
    "kind": "dev",
    "methods": {
      "approve(address,uint256)": {
        "details": "See {IERC721-approve}."
      },
      "balanceOf(address)": {
        "details": "See {IERC721-balanceOf}."
      },
      "getApproved(uint256)": {
        "details": "See {IERC721-getApproved}."
      },
      "isApprovedForAll(address,address)": {
        "details": "See {IERC721-isApprovedForAll}."
      },
      "name()": {
        "details": "See {IERC721Metadata-name}."
      },
      "owner()": {
        "details": "Returns the address of the current owner."
      },
      "ownerOf(uint256)": {
        "details": "See {IERC721-ownerOf}."
      },
      "renounceOwnership()": {
        "details": "Leaves the contract without owner. It will not be possible to call `onlyOwner` functions anymore. Can only be called by the current owner. NOTE: Renouncing ownership will leave the contract without an owner, thereby removing any functionality that is only available to the owner."
      },
      "safeTransferFrom(address,address,uint256)": {
        "details": "See {IERC721-safeTransferFrom}."
      },
      "safeTransferFrom(address,address,uint256,bytes)": {
        "details": "See {IERC721-safeTransferFrom}."
      },
      "setApprovalForAll(address,bool)": {
        "details": "See {IERC721-setApprovalForAll}."
      },
      "supportsInterface(bytes4)": {
        "details": "See {IERC165-supportsInterface}."
      },
      "symbol()": {
        "details": "See {IERC721Metadata-symbol}."
      },
      "tokenByIndex(uint256)": {
        "details": "See {IERC721Enumerable-tokenByIndex}."
      },
      "tokenOfOwnerByIndex(address,uint256)": {
        "details": "See {IERC721Enumerable-tokenOfOwnerByIndex}."
      },
      "tokenURI(uint256)": {
        "details": "See {IERC721Metadata-tokenURI}."
      },
      "totalSupply()": {
        "details": "See {IERC721Enumerable-totalSupply}."
      },
      "transferFrom(address,address,uint256)": {
        "details": "See {IERC721-transferFrom}."
      },
      "transferOwnership(address)": {
        "details": "Transfers ownership of the contract to a new account (`newOwner`). Can only be called by the current owner."
      }
    },
    "version": 1
  },
  "userdoc": {
    "kind": "user",
    "methods": {},
    "version": 1
  }
}