{
  "contractName": "RagnarokProject",
  "abi": [
    {
      "inputs": [],
      "stateMutability": "nonpayable",
      "type": "constructor"
    },
    {
      "anonymous": false,
      "inputs": [
        {
          "indexed": true,
          "internalType": "address",
          "name": "owner",
          "type": "address"
        },
        {
          "indexed": true,
          "internalType": "address",
          "name": "approved",
          "type": "address"
        },
        {
          "indexed": true,
          "internalType": "uint256",
          "name": "tokenId",
          "type": "uint256"
        }
      ],
      "name": "Approval",
      "type": "event"
    },
    {
      "anonymous": false,
      "inputs": [
        {
          "indexed": true,
          "internalType": "address",
          "name": "owner",
          "type": "address"
        },
        {
          "indexed": true,
          "internalType": "address",
          "name": "operator",
          "type": "address"
        },
        {
          "indexed": false,
          "internalType": "bool",
          "name": "approved",
          "type": "bool"
        }
      ],
      "name": "ApprovalForAll",
      "type": "event"
    },
    {
      "anonymous": false,
      "inputs": [
        {
          "indexed": true,
          "internalType": "uint256",
          "name": "tokenId",
          "type": "uint256"
        },
        {
          "indexed": true,
          "internalType": "address",
          "name": "minter",
          "type": "address"
        },
        {
          "indexed": false,
          "internalType": "uint256",
          "name": "tokenCount",
          "type": "uint256"
        },
        {
          "indexed": false,
          "internalType": "uint256",
          "name": "tokenPrice",
          "type": "uint256"
        }
      ],
      "name": "MintNFT",
      "type": "event"
    },
    {
      "anonymous": false,
      "inputs": [
        {
          "indexed": true,
          "internalType": "address",
          "name": "previousOwner",
          "type": "address"
        },
        {
          "indexed": true,
          "internalType": "address",
          "name": "newOwner",
          "type": "address"
        }
      ],
      "name": "OwnershipTransferred",
      "type": "event"
    },
    {
      "anonymous": false,
      "inputs": [
        {
          "indexed": true,
          "internalType": "address",
          "name": "from",
          "type": "address"
        },
        {
          "indexed": true,
          "internalType": "address",
          "name": "to",
          "type": "address"
        },
        {
          "indexed": true,
          "internalType": "uint256",
          "name": "tokenId",
          "type": "uint256"
        }
      ],
      "name": "Transfer",
      "type": "event"
    },
    {
      "inputs": [],
      "name": "MAX_NFT_SUPPLY",
      "outputs": [
        {
          "internalType": "uint256",
          "name": "",
          "type": "uint256"
        }
      ],
      "stateMutability": "view",
      "type": "function",
      "constant": true
    },
    {
      "inputs": [
        {
          "internalType": "address",
          "name": "to",
          "type": "address"
        },
        {
          "internalType": "uint256",
          "name": "tokenId",
          "type": "uint256"
        }
      ],
      "name": "approve",
      "outputs": [],
      "stateMutability": "nonpayable",
      "type": "function"
    },
    {
      "inputs": [
        {
          "internalType": "address",
          "name": "owner",
          "type": "address"
        }
      ],
      "name": "balanceOf",
      "outputs": [
        {
          "internalType": "uint256",
          "name": "",
          "type": "uint256"
        }
      ],
      "stateMutability": "view",
      "type": "function",
      "constant": true
    },
    {
      "inputs": [],
      "name": "busdToken",
      "outputs": [
        {
          "internalType": "address",
          "name": "",
          "type": "address"
        }
      ],
      "stateMutability": "view",
      "type": "function",
      "constant": true
    },
    {
      "inputs": [],
      "name": "devFee",
      "outputs": [
        {
          "internalType": "uint256",
          "name": "",
          "type": "uint256"
        }
      ],
      "stateMutability": "view",
      "type": "function",
      "constant": true
    },
    {
      "inputs": [],
      "name": "devWallet",
      "outputs": [
        {
          "internalType": "address",
          "name": "",
          "type": "address"
        }
      ],
      "stateMutability": "view",
      "type": "function",
      "constant": true
    },
    {
      "inputs": [],
      "name": "endSale",
      "outputs": [
        {
          "internalType": "bool",
          "name": "",
          "type": "bool"
        }
      ],
      "stateMutability": "view",
      "type": "function",
      "constant": true
    },
    {
      "inputs": [],
      "name": "feeDivisor",
      "outputs": [
        {
          "internalType": "uint256",
          "name": "",
          "type": "uint256"
        }
      ],
      "stateMutability": "view",
      "type": "function",
      "constant": true
    },
    {
      "inputs": [
        {
          "internalType": "uint256",
          "name": "tokenId",
          "type": "uint256"
        }
      ],
      "name": "getApproved",
      "outputs": [
        {
          "internalType": "address",
          "name": "",
          "type": "address"
        }
      ],
      "stateMutability": "view",
      "type": "function",
      "constant": true
    },
    {
      "inputs": [
        {
          "internalType": "address",
          "name": "owner",
          "type": "address"
        },
        {
          "internalType": "address",
          "name": "operator",
          "type": "address"
        }
      ],
      "name": "isApprovedForAll",
      "outputs": [
        {
          "internalType": "bool",
          "name": "",
          "type": "bool"
        }
      ],
      "stateMutability": "view",
      "type": "function",
      "constant": true
    },
    {
      "inputs": [],
      "name": "marketFee",
      "outputs": [
        {
          "internalType": "uint256",
          "name": "",
          "type": "uint256"
        }
      ],
      "stateMutability": "view",
      "type": "function",
      "constant": true
    },
    {
      "inputs": [],
      "name": "marketWallet",
      "outputs": [
        {
          "internalType": "address",
          "name": "",
          "type": "address"
        }
      ],
      "stateMutability": "view",
      "type": "function",
      "constant": true
    },
    {
      "inputs": [],
      "name": "name",
      "outputs": [
        {
          "internalType": "string",
          "name": "",
          "type": "string"
        }
      ],
      "stateMutability": "view",
      "type": "function",
      "constant": true
    },
    {
      "inputs": [],
      "name": "otherFee",
      "outputs": [
        {
          "internalType": "uint256",
          "name": "",
          "type": "uint256"
        }
      ],
      "stateMutability": "view",
      "type": "function",
      "constant": true
    },
    {
      "inputs": [],
      "name": "otherWallet",
      "outputs": [
        {
          "internalType": "address",
          "name": "",
          "type": "address"
        }
      ],
      "stateMutability": "view",
      "type": "function",
      "constant": true
    },
    {
      "inputs": [],
      "name": "owner",
      "outputs": [
        {
          "internalType": "address",
          "name": "",
          "type": "address"
        }
      ],
      "stateMutability": "view",
      "type": "function",
      "constant": true
    },
    {
      "inputs": [
        {
          "internalType": "uint256",
          "name": "tokenId",
          "type": "uint256"
        }
      ],
      "name": "ownerOf",
      "outputs": [
        {
          "internalType": "address",
          "name": "",
          "type": "address"
        }
      ],
      "stateMutability": "view",
      "type": "function",
      "constant": true
    },
    {
      "inputs": [],
      "name": "publicSale",
      "outputs": [
        {
          "internalType": "bool",
          "name": "",
          "type": "bool"
        }
      ],
      "stateMutability": "view",
      "type": "function",
      "constant": true
    },
    {
      "inputs": [],
      "name": "renounceOwnership",
      "outputs": [],
      "stateMutability": "nonpayable",
      "type": "function"
    },
    {
      "inputs": [],
      "name": "reveal",
      "outputs": [
        {
          "internalType": "bool",
          "name": "",
          "type": "bool"
        }
      ],
      "stateMutability": "view",
      "type": "function",
      "constant": true
    },
    {
      "inputs": [
        {
          "internalType": "uint256",
          "name": "",
          "type": "uint256"
        }
      ],
      "name": "revealURIs",
      "outputs": [
        {
          "internalType": "string",
          "name": "",
          "type": "string"
        }
      ],
      "stateMutability": "view",
      "type": "function",
      "constant": true
    },
    {
      "inputs": [],
      "name": "routerAddress",
      "outputs": [
        {
          "internalType": "address",
          "name": "",
          "type": "address"
        }
      ],
      "stateMutability": "view",
      "type": "function",
      "constant": true
    },
    {
      "inputs": [
        {
          "internalType": "address",
          "name": "from",
          "type": "address"
        },
        {
          "internalType": "address",
          "name": "to",
          "type": "address"
        },
        {
          "internalType": "uint256",
          "name": "tokenId",
          "type": "uint256"
        }
      ],
      "name": "safeTransferFrom",
      "outputs": [],
      "stateMutability": "nonpayable",
      "type": "function"
    },
    {
      "inputs": [
        {
          "internalType": "address",
          "name": "from",
          "type": "address"
        },
        {
          "internalType": "address",
          "name": "to",
          "type": "address"
        },
        {
          "internalType": "uint256",
          "name": "tokenId",
          "type": "uint256"
        },
        {
          "internalType": "bytes",
          "name": "_data",
          "type": "bytes"
        }
      ],
      "name": "safeTransferFrom",
      "outputs": [],
      "stateMutability": "nonpayable",
      "type": "function"
    },
    {
      "inputs": [
        {
          "internalType": "address",
          "name": "operator",
          "type": "address"
        },
        {
          "internalType": "bool",
          "name": "approved",
          "type": "bool"
        }
      ],
      "name": "setApprovalForAll",
      "outputs": [],
      "stateMutability": "nonpayable",
      "type": "function"
    },
    {
      "inputs": [],
      "name": "subMintedCount",
      "outputs": [
        {
          "internalType": "uint256",
          "name": "",
          "type": "uint256"
        }
      ],
      "stateMutability": "view",
      "type": "function",
      "constant": true
    },
    {
      "inputs": [
        {
          "internalType": "bytes4",
          "name": "interfaceId",
          "type": "bytes4"
        }
      ],
      "name": "supportsInterface",
      "outputs": [
        {
          "internalType": "bool",
          "name": "",
          "type": "bool"
        }
      ],
      "stateMutability": "view",
      "type": "function",
      "constant": true
    },
    {
      "inputs": [],
      "name": "symbol",
      "outputs": [
        {
          "internalType": "string",
          "name": "",
          "type": "string"
        }
      ],
      "stateMutability": "view",
      "type": "function",
      "constant": true
    },
    {
      "inputs": [
        {
          "internalType": "uint256",
          "name": "index",
          "type": "uint256"
        }
      ],
      "name": "tokenByIndex",
      "outputs": [
        {
          "internalType": "uint256",
          "name": "",
          "type": "uint256"
        }
      ],
      "stateMutability": "view",
      "type": "function",
      "constant": true
    },
    {
      "inputs": [],
      "name": "tokenMinted",
      "outputs": [
        {
          "internalType": "uint256",
          "name": "",
          "type": "uint256"
        }
      ],
      "stateMutability": "view",
      "type": "function",
      "constant": true
    },
    {
      "inputs": [
        {
          "internalType": "address",
          "name": "owner",
          "type": "address"
        },
        {
          "internalType": "uint256",
          "name": "index",
          "type": "uint256"
        }
      ],
      "name": "tokenOfOwnerByIndex",
      "outputs": [
        {
          "internalType": "uint256",
          "name": "",
          "type": "uint256"
        }
      ],
      "stateMutability": "view",
      "type": "function",
      "constant": true
    },
    {
      "inputs": [],
      "name": "totalSupply",
      "outputs": [
        {
          "internalType": "uint256",
          "name": "",
          "type": "uint256"
        }
      ],
      "stateMutability": "view",
      "type": "function",
      "constant": true
    },
    {
      "inputs": [
        {
          "internalType": "address",
          "name": "from",
          "type": "address"
        },
        {
          "internalType": "address",
          "name": "to",
          "type": "address"
        },
        {
          "internalType": "uint256",
          "name": "tokenId",
          "type": "uint256"
        }
      ],
      "name": "transferFrom",
      "outputs": [],
      "stateMutability": "nonpayable",
      "type": "function"
    },
    {
      "inputs": [
        {
          "internalType": "address",
          "name": "newOwner",
          "type": "address"
        }
      ],
      "name": "transferOwnership",
      "outputs": [],
      "stateMutability": "nonpayable",
      "type": "function"
    },
    {
      "inputs": [],
      "name": "uniswapV2Router",
      "outputs": [
        {
          "internalType": "contract IUniswapV2Router02",
          "name": "",
          "type": "address"
        }
      ],
      "stateMutability": "view",
      "type": "function",
      "constant": true
    },
    {
      "inputs": [],
      "name": "unrevealURI",
      "outputs": [
        {
          "internalType": "string",
          "name": "",
          "type": "string"
        }
      ],
      "stateMutability": "view",
      "type": "function",
      "constant": true
    },
    {
      "inputs": [
        {
          "internalType": "bool",
          "name": "_endSale",
          "type": "bool"
        }
      ],
      "name": "setEndSale",
      "outputs": [],
      "stateMutability": "nonpayable",
      "type": "function"
    },
    {
      "inputs": [
        {
          "internalType": "address",
          "name": "_add",
          "type": "address"
        }
      ],
      "name": "setWhitelist",
      "outputs": [],
      "stateMutability": "nonpayable",
      "type": "function"
    },
    {
      "inputs": [
        {
          "internalType": "address[]",
          "name": "_adds",
          "type": "address[]"
        }
      ],
      "name": "setWhitelistAll",
      "outputs": [],
      "stateMutability": "nonpayable",
      "type": "function"
    },
    {
      "inputs": [
        {
          "internalType": "address",
          "name": "_owner",
          "type": "address"
        }
      ],
      "name": "getNFTBalance",
      "outputs": [
        {
          "internalType": "uint256",
          "name": "",
          "type": "uint256"
        }
      ],
      "stateMutability": "view",
      "type": "function",
      "constant": true
    },
    {
      "inputs": [],
      "name": "getNFTPrice",
      "outputs": [
        {
          "internalType": "uint256",
          "name": "",
          "type": "uint256"
        }
      ],
      "stateMutability": "view",
      "type": "function",
      "constant": true
    },
    {
      "inputs": [],
      "name": "claimNFT",
      "outputs": [],
      "stateMutability": "nonpayable",
      "type": "function"
    },
    {
      "inputs": [
        {
          "internalType": "uint256",
          "name": "_cnt",
          "type": "uint256"
        }
      ],
      "name": "mintNFT",
      "outputs": [],
      "stateMutability": "payable",
      "type": "function",
      "payable": true
    },
    {
      "inputs": [
        {
          "internalType": "string[]",
          "name": "_revealURIs",
          "type": "string[]"
        }
      ],
      "name": "batchURLs",
      "outputs": [],
      "stateMutability": "nonpayable",
      "type": "function"
    },
    {
      "inputs": [],
      "name": "withdraw",
      "outputs": [],
      "stateMutability": "nonpayable",
      "type": "function"
    },
    {
      "inputs": [
        {
          "internalType": "uint256",
          "name": "tokenId",
          "type": "uint256"
        }
      ],
      "name": "tokenURI",
      "outputs": [
        {
          "internalType": "string",
          "name": "",
          "type": "string"
        }
      ],
      "stateMutability": "view",
      "type": "function",
      "constant": true
    },
    {
      "inputs": [
        {
          "internalType": "string",
          "name": "_uri",
          "type": "string"
        }
      ],
      "name": "setUnrevealURI",
      "outputs": [],
      "stateMutability": "nonpayable",
      "type": "function"
    },
    {
      "inputs": [],
      "name": "_price",
      "outputs": [
        {
          "internalType": "uint256",
          "name": "",
          "type": "uint256"
        }
      ],
      "stateMutability": "view",
      "type": "function",
      "constant": true
    },
    {
      "inputs": [
        {
          "internalType": "uint256",
          "name": "_priceextended_",
          "type": "uint256"
        }
      ],
      "name": "setPrice",
      "outputs": [],
      "stateMutability": "nonpayable",
      "type": "function"
    },
    {
      "inputs": [
        {
          "internalType": "address",
          "name": "_addr",
          "type": "address"
        }
      ],
      "name": "setMarketWallet",
      "outputs": [],
      "stateMutability": "nonpayable",
      "type": "function"
    },
    {
      "inputs": [
        {
          "internalType": "address",
          "name": "_addr",
          "type": "address"
        }
      ],
      "name": "setDevWallet",
      "outputs": [],
      "stateMutability": "nonpayable",
      "type": "function"
    },
    {
      "inputs": [
        {
          "internalType": "address",
          "name": "_addr",
          "type": "address"
        }
      ],
      "name": "setOtherWallet",
      "outputs": [],
      "stateMutability": "nonpayable",
      "type": "function"
    },
    {
      "inputs": [
        {
          "internalType": "uint256",
          "name": "_newFee",
          "type": "uint256"
        }
      ],
      "name": "setMarketFee",
      "outputs": [],
      "stateMutability": "nonpayable",
      "type": "function"
    },
    {
      "inputs": [
        {
          "internalType": "uint256",
          "name": "_newFee",
          "type": "uint256"
        }
      ],
      "name": "setDevFee",
      "outputs": [],
      "stateMutability": "nonpayable",
      "type": "function"
    },
    {
      "inputs": [
        {
          "internalType": "uint256",
          "name": "_newFee",
          "type": "uint256"
        }
      ],
      "name": "setOtherFee",
      "outputs": [],
      "stateMutability": "nonpayable",
      "type": "function"
    }
  ],
  "bytecode": "0x612710600b556103e8600c819055600d819055600e55600f80546001600160a01b0319908116909155601080549091169055601180546001600160a81b031916600160a01b17905560e0604052602260808181529062003ba960a0398051620000719160149160209091019062000217565b506016805461ffff19169055601c80546001600160a01b031916739ac64cc6e4415144c455bd8e4837fea55603e5c31790556000601d819055601e55348015620000ba57600080fd5b50604080518082018252601081526f149859db985c9bdac8141c9bda9958dd60821b6020808301918252835180850190945260088452675261676e61726f6b60c01b908401528151919291620001139160009162000217565b5080516200012990600190602084019062000217565b5050506200014662000140620001c160201b60201c565b620001c5565b6040805180820190915260158082527f68747470733a2f2f697066732e696f2f697066732f000000000000000000000060209092019182526200018c9160179162000217565b50678ac7230489e80000601855601c54601b80546001600160a01b0319166001600160a01b03909216919091179055620002fa565b3390565b600a80546001600160a01b038381166001600160a01b0319831681179093556040519116919082907f8be0079c531659141344cd1fd0a4f28419497f9722a3daafe3b4186f6b6457e090600090a35050565b8280546200022590620002bd565b90600052602060002090601f01602090048101928262000249576000855562000294565b82601f106200026457805160ff191683800117855562000294565b8280016001018555821562000294579182015b828111156200029457825182559160200191906001019062000277565b50620002a2929150620002a6565b5090565b5b80821115620002a25760008155600101620002a7565b600281046001821680620002d257607f821691505b60208210811415620002f457634e487b7160e01b600052602260045260246000fd5b50919050565b61389f806200030a6000396000f3fe6080604052600436106103505760003560e01c806370a08231116101c6578063aeb0bc79116100f7578063d5f5171711610095578063e4440a861161006f578063e4440a86146108df578063e985e9c5146108f4578063f2fde38b14610914578063fb107a4f1461093457610350565b8063d5f5171714610895578063de0e7014146108aa578063dee6dd41146108bf57610350565b8063b9f236a6116100d1578063b9f236a614610815578063bf8ebd8514610835578063c04508de14610855578063c87b56dd1461087557610350565b8063aeb0bc79146107c0578063b5077f44146107e0578063b88d4fde146107f557610350565b8063926427441161016457806397bc411c1161013e57806397bc411c146107565780639a36f93214610776578063a22cb4651461078b578063a475b5dd146107ab57610350565b8063926427441461071957806395d89b411461072c578063963563551461074157610350565b8063854cff2f116101a0578063854cff2f146106af5780638da5cb5b146106cf5780638ea5220f146106e457806391b7f5ed146106f957610350565b806370a082311461065a578063715018a61461067a5780638256b4481461068f57610350565b806326b825d2116102a057806342842e0e1161023e5780636352211e116102185780636352211e146105f0578063650db3ac14610610578063672756ad146106305780636827e7641461064557610350565b806342842e0e146105905780634f6ccce7146105b057806354332266146105d057610350565b806333bc1c5c1161027a57806333bc1c5c1461053c578063343ab21614610551578063380d831b146105665780633ccfd60b1461057b57610350565b806326b825d2146104e75780632f745c59146105075780633268cc561461052757610350565b80631694505e1161030d5780631f53ac02116102e75780631f53ac021461047d5780632126ea811461049d578063235b6ea1146104b257806323b872dd146104c757610350565b80631694505e1461043357806318160ddd146104485780631c75b6b21461045d57610350565b806301ffc9a71461035557806306fdde031461038b578063081812fc146103ad578063095ea7b3146103da5780630ccf2156146103fc5780630d36f5641461041e575b600080fd5b34801561036157600080fd5b50610375610370366004612dfc565b610949565b6040516103829190612f78565b60405180910390f35b34801561039757600080fd5b506103a0610976565b6040516103829190612f83565b3480156103b957600080fd5b506103cd6103c8366004612e67565b610a08565b6040516103829190612f27565b3480156103e657600080fd5b506103fa6103f5366004612c0c565b610a54565b005b34801561040857600080fd5b50610411610aec565b6040516103829190613642565b34801561042a57600080fd5b506103cd610af2565b34801561043f57600080fd5b506103cd610b01565b34801561045457600080fd5b50610411610b10565b34801561046957600080fd5b506103fa610478366004612e67565b610b16565b34801561048957600080fd5b506103fa610498366004612aab565b610b7c565b3480156104a957600080fd5b506103a0610c03565b3480156104be57600080fd5b50610411610c91565b3480156104d357600080fd5b506103fa6104e2366004612b1b565b610c97565b3480156104f357600080fd5b506103fa610502366004612e67565b610ccf565b34801561051357600080fd5b50610411610522366004612c0c565b610d35565b34801561053357600080fd5b506103cd610d87565b34801561054857600080fd5b50610375610d96565b34801561055d57600080fd5b50610411610da6565b34801561057257600080fd5b50610375610dac565b34801561058757600080fd5b506103fa610dba565b34801561059c57600080fd5b506103fa6105ab366004612b1b565b610e51565b3480156105bc57600080fd5b506104116105cb366004612e67565b610e6c565b3480156105dc57600080fd5b506103fa6105eb366004612aab565b610ec7565b3480156105fc57600080fd5b506103cd61060b366004612e67565b610f4e565b34801561061c57600080fd5b506103fa61062b366004612c37565b610f83565b34801561063c57600080fd5b506103fa611035565b34801561065157600080fd5b5061041161111c565b34801561066657600080fd5b50610411610675366004612aab565b611122565b34801561068657600080fd5b506103fa611166565b34801561069b57600080fd5b506103a06106aa366004612e67565b6111b1565b3480156106bb57600080fd5b506103fa6106ca366004612aab565b6111dc565b3480156106db57600080fd5b506103cd611265565b3480156106f057600080fd5b506103cd611274565b34801561070557600080fd5b506103fa610714366004612e67565b611283565b6103fa610727366004612e67565b6112c7565b34801561073857600080fd5b506103a06116f7565b34801561074d57600080fd5b50610411611706565b34801561076257600080fd5b506103fa610771366004612e34565b61170c565b34801561078257600080fd5b5061041161175e565b34801561079757600080fd5b506103fa6107a6366004612bd8565b611764565b3480156107b757600080fd5b50610375611776565b3480156107cc57600080fd5b506103fa6107db366004612e67565b61177f565b3480156107ec57600080fd5b506104116117e5565b34801561080157600080fd5b506103fa610810366004612b5b565b6117ec565b34801561082157600080fd5b506103fa610830366004612cd5565b61182b565b34801561084157600080fd5b50610411610850366004612aab565b6118dd565b34801561086157600080fd5b506103fa610870366004612aab565b6118e8565b34801561088157600080fd5b506103a0610890366004612e67565b61196f565b3480156108a157600080fd5b50610411611b53565b3480156108b657600080fd5b506103cd611b59565b3480156108cb57600080fd5b506103fa6108da366004612de2565b611b71565b3480156108eb57600080fd5b506103cd611bca565b34801561090057600080fd5b5061037561090f366004612ae3565b611bd9565b34801561092057600080fd5b506103fa61092f366004612aab565b611c07565b34801561094057600080fd5b50610411611c78565b60006001600160e01b0319821663780e9d6360e01b148061096e575061096e82611cae565b90505b919050565b60606000805461098590613792565b80601f01602080910402602001604051908101604052809291908181526020018280546109b190613792565b80156109fe5780601f106109d3576101008083540402835291602001916109fe565b820191906000526020600020905b8154815290600101906020018083116109e157829003601f168201915b5050505050905090565b6000610a1382611cee565b610a385760405162461bcd60e51b8152600401610a2f90613392565b60405180910390fd5b506000908152600460205260409020546001600160a01b031690565b6000610a5f82610f4e565b9050806001600160a01b0316836001600160a01b03161415610a935760405162461bcd60e51b8152600401610a2f906134ce565b806001600160a01b0316610aa5611d0b565b6001600160a01b03161480610ac15750610ac18161090f611d0b565b610add5760405162461bcd60e51b8152600401610a2f906131e5565b610ae78383611d0f565b505050565b600d5481565b6011546001600160a01b031681565b601b546001600160a01b031681565b60085490565b610b1e611d0b565b6001600160a01b0316610b2f611265565b6001600160a01b031614610b555760405162461bcd60e51b8152600401610a2f906133de565b6103e8811115610b775760405162461bcd60e51b8152600401610a2f90613613565b600c55565b610b84611d0b565b6001600160a01b0316610b95611265565b6001600160a01b031614610bbb5760405162461bcd60e51b8152600401610a2f906133de565b6001600160a01b038116610be15760405162461bcd60e51b8152600401610a2f9061343b565b600f80546001600160a01b0319166001600160a01b0392909216919091179055565b60148054610c1090613792565b80601f0160208091040260200160405190810160405280929190818152602001828054610c3c90613792565b8015610c895780601f10610c5e57610100808354040283529160200191610c89565b820191906000526020600020905b815481529060010190602001808311610c6c57829003601f168201915b505050505081565b60185490565b610ca8610ca2611d0b565b82611d7d565b610cc45760405162461bcd60e51b8152600401610a2f9061353f565b610ae7838383611dfa565b610cd7611d0b565b6001600160a01b0316610ce8611265565b6001600160a01b031614610d0e5760405162461bcd60e51b8152600401610a2f906133de565b6103e8811115610d305760405162461bcd60e51b8152600401610a2f90613613565b600d55565b6000610d4083611122565b8210610d5e5760405162461bcd60e51b8152600401610a2f90612f96565b506001600160a01b03919091166000908152600660209081526040808320938352929052205490565b601c546001600160a01b031681565b601154600160a01b900460ff1681565b600e5481565b601654610100900460ff1681565b610dc2611d0b565b6001600160a01b0316610dd3611265565b6001600160a01b031614610df95760405162461bcd60e51b8152600401610a2f906133de565b601654610100900460ff16610e205760405162461bcd60e51b8152600401610a2f906130f5565b60405147903390819083156108fc029084906000818181858888f19350505050158015610ae7573d6000803e3d6000fd5b610ae7838383604051806020016040528060008152506117ec565b6000610e76610b10565b8210610e945760405162461bcd60e51b8152600401610a2f90613590565b60088281548110610eb557634e487b7160e01b600052603260045260246000fd5b90600052602060002001549050919050565b610ecf611d0b565b6001600160a01b0316610ee0611265565b6001600160a01b031614610f065760405162461bcd60e51b8152600401610a2f906133de565b6001600160a01b038116610f2c5760405162461bcd60e51b8152600401610a2f9061343b565b601080546001600160a01b0319166001600160a01b0392909216919091179055565b6000818152600260205260408120546001600160a01b03168061096e5760405162461bcd60e51b8152600401610a2f9061328c565b610f8b611d0b565b6001600160a01b0316610f9c611265565b6001600160a01b031614610fc25760405162461bcd60e51b8152600401610a2f906133de565b60005b8151811015611031576000828281518110610ff057634e487b7160e01b600052603260045260246000fd5b6020908102919091018101516001600160a01b03166000908152601290915260409020805460ff191660011790555080611029816137cd565b915050610fc5565b5050565b61103d611d0b565b6001600160a01b031661104e611265565b6001600160a01b0316146110745760405162461bcd60e51b8152600401610a2f906133de565b62030d40601d54106110985760405162461bcd60e51b8152600401610a2f9061350f565b6110a2601f611f2d565b60006110ac611f36565b90506110b83382611faa565b6000818152601960205260408120805460ff19166001908117909155601d8054919290916110e7908490613704565b9091555050601d546000828152601a6020526040812091909155601e805460019290611114908490613704565b909155505050565b600c5481565b60006001600160a01b03821661114a5760405162461bcd60e51b8152600401610a2f90613242565b506001600160a01b031660009081526003602052604090205490565b61116e611d0b565b6001600160a01b031661117f611265565b6001600160a01b0316146111a55760405162461bcd60e51b8152600401610a2f906133de565b6111af6000611fc4565b565b601581815481106111c157600080fd5b906000526020600020016000915090508054610c1090613792565b6111e4611d0b565b6001600160a01b03166111f5611265565b6001600160a01b03161461121b5760405162461bcd60e51b8152600401610a2f906133de565b6001600160a01b0381166112415760405162461bcd60e51b8152600401610a2f9061343b565b6001600160a01b03166000908152601260205260409020805460ff19166001179055565b600a546001600160a01b031690565b600f546001600160a01b031681565b61128b611d0b565b6001600160a01b031661129c611265565b6001600160a01b0316146112c25760405162461bcd60e51b8152600401610a2f906133de565b601855565b62030d40601d54106112eb5760405162461bcd60e51b8152600401610a2f9061350f565b600061130f6064611309606361130386611303611c78565b90612016565b90612029565b9050348111156113315760405162461bcd60e51b8152600401610a2f906135dc565b601154600160a01b900460ff16611392573360009081526012602052604090205460ff166113715760405162461bcd60e51b8152600401610a2f90613461565b60058211156113925760405162461bcd60e51b8152600401610a2f906132d5565b6000600b54600c54346113a59190613730565b6113af919061371c565b90506000600b54600d54346113c49190613730565b6113ce919061371c565b90506000600b54600e54346113e39190613730565b6113ed919061371c565b6010549091506001600160a01b03161580159061140a5750600083115b15611492576010546040516000916001600160a01b031690849061142d90612efc565b60006040518083038185875af1925050503d806000811461146a576040519150601f19603f3d011682016040523d82523d6000602084013e61146f565b606091505b50509050806114905760405162461bcd60e51b8152600401610a2f90613413565b505b600f546001600160a01b0316158015906114ac5750600083115b1561153457600f546040516000916001600160a01b03169085906114cf90612efc565b60006040518083038185875af1925050503d806000811461150c576040519150601f19603f3d011682016040523d82523d6000602084013e611511565b606091505b50509050806115325760405162461bcd60e51b8152600401610a2f90613413565b505b6011546001600160a01b03161580159061154e5750600083115b156115d6576011546040516000916001600160a01b031690839061157190612efc565b60006040518083038185875af1925050503d80600081146115ae576040519150601f19603f3d011682016040523d82523d6000602084013e6115b3565b606091505b50509050806115d45760405162461bcd60e51b8152600401610a2f90613413565b505b60005b858110156116a0576115eb601f611f2d565b60006115f5611f36565b90506103e8601e5410611620576000601e5560185461161c90606490611309906065612016565b6018555b61162a3382611faa565b6000818152601960205260408120805460ff19166001908117909155601d805491929091611659908490613704565b9091555050601d546000828152601a6020526040812091909155601e805460019290611686908490613704565b909155508291506116989050816137cd565b9150506115d9565b506116a9611d0b565b6001600160a01b0316601d547fa8df055256606ba5aac9eb70062e4896d61ca7e3a678b0e783be2a1c18cdc0e6876018546040516116e89291906136a1565b60405180910390a35050505050565b60606001805461098590613792565b601d5481565b611714611d0b565b6001600160a01b0316611725611265565b6001600160a01b03161461174b5760405162461bcd60e51b8152600401610a2f906133de565b805161103190601490602084019061298b565b600b5481565b61103161176f611d0b565b8383612035565b60165460ff1681565b611787611d0b565b6001600160a01b0316611798611265565b6001600160a01b0316146117be5760405162461bcd60e51b8152600401610a2f906133de565b6103e88111156117e05760405162461bcd60e51b8152600401610a2f90613613565b600e55565b62030d4081565b6117fd6117f7611d0b565b83611d7d565b6118195760405162461bcd60e51b8152600401610a2f9061353f565b611825848484846120d8565b50505050565b611833611d0b565b6001600160a01b0316611844611265565b6001600160a01b03161461186a5760405162461bcd60e51b8152600401610a2f906133de565b60005b815181101561103157601582828151811061189857634e487b7160e01b600052603260045260246000fd5b602090810291909101810151825460018101845560009384529282902081516118ca949190910192919091019061298b565b50806118d5816137cd565b91505061186d565b600061096e82611122565b6118f0611d0b565b6001600160a01b0316611901611265565b6001600160a01b0316146119275760405162461bcd60e51b8152600401610a2f906133de565b6001600160a01b03811661194d5760405162461bcd60e51b8152600401610a2f9061343b565b601180546001600160a01b0319166001600160a01b0392909216919091179055565b606061197a82611cee565b6119965760405162461bcd60e51b8152600401610a2f90613341565b60165460609060ff1615611a4257600083815260136020526040902080546119bd90613792565b80601f01602080910402602001604051908101604052809291908181526020018280546119e990613792565b8015611a365780601f10611a0b57610100808354040283529160200191611a36565b820191906000526020600020905b815481529060010190602001808311611a1957829003601f168201915b50505050509050611ad0565b60148054611a4f90613792565b80601f0160208091040260200160405190810160405280929190818152602001828054611a7b90613792565b8015611ac85780601f10611a9d57610100808354040283529160200191611ac8565b820191906000526020600020905b815481529060010190602001808311611aab57829003601f168201915b505050505090505b6000611ada61210b565b9050805160001415611aee57509050610971565b815115611b335781601a600086815260200190815260200160002054604051602001611b1b929190612eda565b60405160208183030381529060405292505050610971565b6000848152601a6020526040902054611b4b9061211a565b949350505050565b601e5481565b7378867bbeef44f2326bf8ddd1941a4439382ef2a781565b611b79611d0b565b6001600160a01b0316611b8a611265565b6001600160a01b031614611bb05760405162461bcd60e51b8152600401610a2f906133de565b601680549115156101000261ff0019909216919091179055565b6010546001600160a01b031681565b6001600160a01b03918216600090815260056020908152604080832093909416825291909152205460ff1690565b611c0f611d0b565b6001600160a01b0316611c20611265565b6001600160a01b031614611c465760405162461bcd60e51b8152600401610a2f906133de565b6001600160a01b038116611c6c5760405162461bcd60e51b8152600401610a2f90613033565b611c7581611fc4565b50565b600062030d40601d5410611c9e5760405162461bcd60e51b8152600401610a2f9061350f565b611ca960185461219c565b905090565b60006001600160e01b031982166380ac58cd60e01b1480611cdf57506001600160e01b03198216635b5e139f60e01b145b8061096e575061096e8261237c565b6000908152600260205260409020546001600160a01b0316151590565b3390565b600081815260046020526040902080546001600160a01b0319166001600160a01b0384169081179091558190611d4482610f4e565b6001600160a01b03167f8c5be1e5ebec7d5bd14f71427d1e84f3dd0314c0f7b2291e5b200ac8c7c3b92560405160405180910390a45050565b6000611d8882611cee565b611da45760405162461bcd60e51b8152600401610a2f90613199565b6000611daf83610f4e565b9050806001600160a01b0316846001600160a01b03161480611dea5750836001600160a01b0316611ddf84610a08565b6001600160a01b0316145b80611b4b5750611b4b8185611bd9565b826001600160a01b0316611e0d82610f4e565b6001600160a01b031614611e335760405162461bcd60e51b8152600401610a2f90613079565b6001600160a01b038216611e595760405162461bcd60e51b8152600401610a2f9061311e565b611e64838383612395565b611e6f600082611d0f565b6001600160a01b0383166000908152600360205260408120805460019290611e9890849061374f565b90915550506001600160a01b0382166000908152600360205260408120805460019290611ec6908490613704565b909155505060008181526002602052604080822080546001600160a01b0319166001600160a01b0386811691821790925591518493918716917fddf252ad1be2c89b69c2b068fc378daa952ba7f163c4a11628f55a4df523b3ef91a4610ae7838383610ae7565b80546001019055565b6000805b611f7d629896804233611f4d601f61241e565b604051602001611f5f93929190612eff565b60408051601f19818403018152919052805160209091012090612422565b60008181526019602052604090205490915060ff16611f9b57611ca9565b611fa5601f611f2d565b611f3a565b61103182826040518060200160405280600081525061242e565b600a80546001600160a01b038381166001600160a01b0319831681179093556040519116919082907f8be0079c531659141344cd1fd0a4f28419497f9722a3daafe3b4186f6b6457e090600090a35050565b60006120228284613730565b9392505050565b6000612022828461371c565b816001600160a01b0316836001600160a01b031614156120675760405162461bcd60e51b8152600401610a2f90613162565b6001600160a01b0383811660008181526005602090815260408083209487168084529490915290819020805460ff1916851515179055517f17307eab39ab6107e8899845ad3d59bd9653f200f220920489ca2b5937696c31906120cb908590612f78565b60405180910390a3505050565b6120e3848484611dfa565b6120ef84848484612461565b6118255760405162461bcd60e51b8152600401610a2f90612fe1565b60606017805461098590613792565b606061212582611cee565b6121415760405162461bcd60e51b8152600401610a2f9061347f565b600061214b61210b565b9050600081511161216b5760405180602001604052806000815250612022565b806121758461257c565b604051602001612186929190612eab565b6040516020818303038152906040529392505050565b604080516002808252606082018352600092839291906020830190803683370190505090507378867bbeef44f2326bf8ddd1941a4439382ef2a7816000815181106121f757634e487b7160e01b600052603260045260246000fd5b6001600160a01b03928316602091820292909201810191909152601b54604080516315ab88c960e31b81529051919093169263ad5c4648926004808301939192829003018186803b15801561224b57600080fd5b505afa15801561225f573d6000803e3d6000fd5b505050506040513d601f19601f820116820180604052508101906122839190612ac7565b816001815181106122a457634e487b7160e01b600052603260045260246000fd5b6001600160a01b039283166020918202929092010152601b5460405163d06ca61f60e01b8152600092919091169063d06ca61f906122e8908790869060040161364b565b60006040518083038186803b15801561230057600080fd5b505afa158015612314573d6000803e3d6000fd5b505050506040513d6000823e601f3d908101601f1916820160405261233c9190810190612d5e565b9050806001835161234d919061374f565b8151811061236b57634e487b7160e01b600052603260045260246000fd5b602002602001015192505050919050565b6001600160e01b031981166301ffc9a760e01b14919050565b6123a0838383610ae7565b6001600160a01b0383166123bc576123b781612697565b6123df565b816001600160a01b0316836001600160a01b0316146123df576123df83826126db565b6001600160a01b0382166123fb576123f681612778565b610ae7565b826001600160a01b0316826001600160a01b031614610ae757610ae78282612851565b5490565b600061202282846137e8565b6124388383612895565b6124456000848484612461565b610ae75760405162461bcd60e51b8152600401610a2f90612fe1565b6000612475846001600160a01b031661297c565b1561257157836001600160a01b031663150b7a02612491611d0b565b8786866040518563ffffffff1660e01b81526004016124b39493929190612f3b565b602060405180830381600087803b1580156124cd57600080fd5b505af19250505080156124fd575060408051601f3d908101601f191682019092526124fa91810190612e18565b60015b612557573d80801561252b576040519150601f19603f3d011682016040523d82523d6000602084013e612530565b606091505b50805161254f5760405162461bcd60e51b8152600401610a2f90612fe1565b805181602001fd5b6001600160e01b031916630a85bd0160e11b149050611b4b565b506001949350505050565b6060816125a157506040805180820190915260018152600360fc1b6020820152610971565b8160005b81156125cb57806125b5816137cd565b91506125c49050600a8361371c565b91506125a5565b60008167ffffffffffffffff8111156125f457634e487b7160e01b600052604160045260246000fd5b6040519080825280601f01601f19166020018201604052801561261e576020820181803683370190505b5090505b8415611b4b5761263360018361374f565b9150612640600a866137e8565b61264b906030613704565b60f81b81838151811061266e57634e487b7160e01b600052603260045260246000fd5b60200101906001600160f81b031916908160001a905350612690600a8661371c565b9450612622565b600880546000838152600960205260408120829055600182018355919091527ff3f7a9fe364faab93b216da50a3214154f22a0a2b415b23a84c8169e8b636ee30155565b600060016126e884611122565b6126f2919061374f565b600083815260076020526040902054909150808214612745576001600160a01b03841660009081526006602090815260408083208584528252808320548484528184208190558352600790915290208190555b5060009182526007602090815260408084208490556001600160a01b039094168352600681528383209183525290812055565b60085460009061278a9060019061374f565b600083815260096020526040812054600880549394509092849081106127c057634e487b7160e01b600052603260045260246000fd5b9060005260206000200154905080600883815481106127ef57634e487b7160e01b600052603260045260246000fd5b600091825260208083209091019290925582815260099091526040808220849055858252812055600880548061283557634e487b7160e01b600052603160045260246000fd5b6001900381819060005260206000200160009055905550505050565b600061285c83611122565b6001600160a01b039093166000908152600660209081526040808320868452825280832085905593825260079052919091209190915550565b6001600160a01b0382166128bb5760405162461bcd60e51b8152600401610a2f9061330c565b6128c481611cee565b156128e15760405162461bcd60e51b8152600401610a2f906130be565b6128ed60008383612395565b6001600160a01b0382166000908152600360205260408120805460019290612916908490613704565b909155505060008181526002602052604080822080546001600160a01b0319166001600160a01b03861690811790915590518392907fddf252ad1be2c89b69c2b068fc378daa952ba7f163c4a11628f55a4df523b3ef908290a461103160008383610ae7565b6001600160a01b03163b151590565b82805461299790613792565b90600052602060002090601f0160209004810192826129b957600085556129ff565b82601f106129d257805160ff19168380011785556129ff565b828001600101855582156129ff579182015b828111156129ff5782518255916020019190600101906129e4565b50612a0b929150612a0f565b5090565b5b80821115612a0b5760008155600101612a10565b600067ffffffffffffffff831115612a3e57612a3e613828565b612a51601f8401601f19166020016136af565b9050828152838383011115612a6557600080fd5b828260208301376000602084830101529392505050565b8035801515811461097157600080fd5b600082601f830112612a9c578081fd5b61202283833560208501612a24565b600060208284031215612abc578081fd5b81356120228161383e565b600060208284031215612ad8578081fd5b81516120228161383e565b60008060408385031215612af5578081fd5b8235612b008161383e565b91506020830135612b108161383e565b809150509250929050565b600080600060608486031215612b2f578081fd5b8335612b3a8161383e565b92506020840135612b4a8161383e565b929592945050506040919091013590565b60008060008060808587031215612b70578081fd5b8435612b7b8161383e565b93506020850135612b8b8161383e565b925060408501359150606085013567ffffffffffffffff811115612bad578182fd5b8501601f81018713612bbd578182fd5b612bcc87823560208401612a24565b91505092959194509250565b60008060408385031215612bea578182fd5b8235612bf58161383e565b9150612c0360208401612a7c565b90509250929050565b60008060408385031215612c1e578182fd5b8235612c298161383e565b946020939093013593505050565b60006020808385031215612c49578182fd5b823567ffffffffffffffff811115612c5f578283fd5b8301601f81018513612c6f578283fd5b8035612c82612c7d826136e0565b6136af565b8181528381019083850185840285018601891015612c9e578687fd5b8694505b83851015612cc9578035612cb58161383e565b835260019490940193918501918501612ca2565b50979650505050505050565b60006020808385031215612ce7578182fd5b823567ffffffffffffffff811115612cfd578283fd5b8301601f81018513612d0d578283fd5b8035612d1b612c7d826136e0565b81815283810190838501865b84811015612d5057612d3e8a888435890101612a8c565b84529286019290860190600101612d27565b509098975050505050505050565b60006020808385031215612d70578182fd5b825167ffffffffffffffff811115612d86578283fd5b8301601f81018513612d96578283fd5b8051612da4612c7d826136e0565b8181528381019083850185840285018601891015612dc0578687fd5b8694505b83851015612cc9578051835260019490940193918501918501612dc4565b600060208284031215612df3578081fd5b61202282612a7c565b600060208284031215612e0d578081fd5b813561202281613853565b600060208284031215612e29578081fd5b815161202281613853565b600060208284031215612e45578081fd5b813567ffffffffffffffff811115612e5b578182fd5b611b4b84828501612a8c565b600060208284031215612e78578081fd5b5035919050565b60008151808452612e97816020860160208601613766565b601f01601f19169290920160200192915050565b60008351612ebd818460208801613766565b835190830190612ed1818360208801613766565b01949350505050565b60008351612eec818460208801613766565b9190910191825250602001919050565b90565b92835260609190911b6bffffffffffffffffffffffff19166020830152603482015260540190565b6001600160a01b0391909116815260200190565b6001600160a01b0385811682528416602082015260408101839052608060608201819052600090612f6e90830184612e7f565b9695505050505050565b901515815260200190565b6000602082526120226020830184612e7f565b6020808252602b908201527f455243373231456e756d657261626c653a206f776e657220696e646578206f7560408201526a74206f6620626f756e647360a81b606082015260800190565b60208082526032908201527f4552433732313a207472616e7366657220746f206e6f6e20455243373231526560408201527131b2b4bb32b91034b6b83632b6b2b73a32b960711b606082015260800190565b60208082526026908201527f4f776e61626c653a206e6577206f776e657220697320746865207a65726f206160408201526564647265737360d01b606082015260800190565b60208082526025908201527f4552433732313a207472616e736665722066726f6d20696e636f72726563742060408201526437bbb732b960d91b606082015260800190565b6020808252601c908201527f4552433732313a20746f6b656e20616c7265616479206d696e74656400000000604082015260600190565b6020808252600f908201526e4f6e676f696e67204d696e74696e6760881b604082015260600190565b60208082526024908201527f4552433732313a207472616e7366657220746f20746865207a65726f206164646040820152637265737360e01b606082015260800190565b60208082526019908201527f4552433732313a20617070726f766520746f2063616c6c657200000000000000604082015260600190565b6020808252602c908201527f4552433732313a206f70657261746f7220717565727920666f72206e6f6e657860408201526b34b9ba32b73a103a37b5b2b760a11b606082015260800190565b60208082526038908201527f4552433732313a20617070726f76652063616c6c6572206973206e6f74206f7760408201527f6e6572206e6f7220617070726f76656420666f7220616c6c0000000000000000606082015260800190565b6020808252602a908201527f4552433732313a2062616c616e636520717565727920666f7220746865207a65604082015269726f206164647265737360b01b606082015260800190565b60208082526029908201527f4552433732313a206f776e657220717565727920666f72206e6f6e657869737460408201526832b73a103a37b5b2b760b91b606082015260800190565b60208082526019908201527f4578636564656420746865204d696e74696e6720436f756e7400000000000000604082015260600190565b6020808252818101527f4552433732313a206d696e7420746f20746865207a65726f2061646472657373604082015260600190565b60208082526031908201527f45524337323155524953746f726167653a2055524920717565727920666f72206040820152703737b732bc34b9ba32b73a103a37b5b2b760791b606082015260800190565b6020808252602c908201527f4552433732313a20617070726f76656420717565727920666f72206e6f6e657860408201526b34b9ba32b73a103a37b5b2b760a11b606082015260800190565b6020808252818101527f4f776e61626c653a2063616c6c6572206973206e6f7420746865206f776e6572604082015260600190565b6020808252600e908201526d11985a5b1959081c185e5b595b9d60921b604082015260600190565b6020808252600c908201526b5a65726f204164647265737360a01b604082015260600190565b60208082526004908201526302737ba160e51b604082015260600190565b6020808252602f908201527f4552433732314d657461646174613a2055524920717565727920666f72206e6f60408201526e3732bc34b9ba32b73a103a37b5b2b760891b606082015260800190565b60208082526021908201527f4552433732313a20617070726f76616c20746f2063757272656e74206f776e656040820152603960f91b606082015260800190565b60208082526016908201527514d85b19481a185cc8185b1c9958591e48195b99195960521b604082015260600190565b60208082526031908201527f4552433732313a207472616e736665722063616c6c6572206973206e6f74206f6040820152701ddb995c881b9bdc88185c1c1c9bdd9959607a1b606082015260800190565b6020808252602c908201527f455243373231456e756d657261626c653a20676c6f62616c20696e646578206f60408201526b7574206f6620626f756e647360a01b606082015260800190565b6020808252601d908201527f4554482076616c75652073656e74206973206e6f7420636f7272656374000000604082015260600190565b6020808252601590820152745461782063616e2774206265206f7665722031302560581b604082015260600190565b90815260200190565b60006040820184835260206040818501528185518084526060860191508287019350845b818110156136945784516001600160a01b03168352938301939183019160010161366f565b5090979650505050505050565b918252602082015260400190565b604051601f8201601f1916810167ffffffffffffffff811182821017156136d8576136d8613828565b604052919050565b600067ffffffffffffffff8211156136fa576136fa613828565b5060209081020190565b60008219821115613717576137176137fc565b500190565b60008261372b5761372b613812565b500490565b600081600019048311821515161561374a5761374a6137fc565b500290565b600082821015613761576137616137fc565b500390565b60005b83811015613781578181015183820152602001613769565b838111156118255750506000910152565b6002810460018216806137a657607f821691505b602082108114156137c757634e487b7160e01b600052602260045260246000fd5b50919050565b60006000198214156137e1576137e16137fc565b5060010190565b6000826137f7576137f7613812565b500690565b634e487b7160e01b600052601160045260246000fd5b634e487b7160e01b600052601260045260246000fd5b634e487b7160e01b600052604160045260246000fd5b6001600160a01b0381168114611c7557600080fd5b6001600160e01b031981168114611c7557600080fdfea2646970667358221220d6e645ce2ba8eeeed16312ae84bfec2ff2fd4daf8a11d993d4b8084c170b82c264736f6c6343000801003368747470733a2f2f676174657761792e70696e6174612e636c6f75642f697066732f",
  "immutableReferences": {},
  "source": "// SPDX-License-Identifier: MIT\n\npragma solidity ^0.8.0;\n\nimport \"@openzeppelin/contracts/token/ERC721/extensions/ERC721Enumerable.sol\";\nimport \"@openzeppelin/contracts/access/Ownable.sol\";\nimport \"@openzeppelin/contracts/utils/math/SafeMath.sol\";\nimport \"@openzeppelin/contracts/utils/Counters.sol\";\nimport \"./uniswapv2/interfaces/IUniswapV2Router02.sol\";\n\ncontract RagnarokProject is ERC721Enumerable, Ownable {\n    using Strings for uint256;\n    using SafeMath for uint256;\n\n    uint256 public feeDivisor = 10000;\n    uint256 public devFee = 1000;   // 1000: 10%\n    uint256 public marketFee = 1000;\n    uint256 public otherFee = 1000;\n\n    address public devWallet = address(0);\n    address public marketWallet = address(0);\n    address public otherWallet = address(0);\n\n    bool public publicSale = true;\n    mapping(address => bool) whitelist;\n\n    mapping (uint256 => string) private revealURI;\n    string public unrevealURI = \"https://gateway.pinata.cloud/ipfs/\";\n    string[] public revealURIs;\n    bool public reveal = false;\n\n    bool public endSale = false;\n\n    string private _baseURIextended;\n    uint256 private _priceextended;  // busd\n    mapping (uint256 => bool) registerID;\n    mapping (uint256 => uint256) tokenIds;\n\n    IUniswapV2Router02 public uniswapV2Router;\n\n    address public routerAddress = address(0x9Ac64Cc6e4415144C455BD8E4837Fea55603e5c3);\n\n    // pancakeswap testnet router address\n    // testnet PCS router: 0x9Ac64Cc6e4415144C455BD8E4837Fea55603e5c3\n    // mainnet PCS V2 router: 0x10ED43C718714eb63d5aA57B78B54704E256024E\n\n    address public constant busdToken = address(0x78867BbEeF44f2326bF8DDd1941a4439382EF2A7);\n    // BUSD mainnet 0xe9e7CEA3DedcA5984780Bafc599bD69ADd087D56\n    // BUSD testnet 0x78867BbEeF44f2326bF8DDd1941a4439382EF2A7\n\n    uint256 public tokenMinted = 0;\n    uint256 public subMintedCount = 0;\n\n    using Counters for Counters.Counter;\n    Counters.Counter private _tokenIdentifiers;\n\n    uint256 private constant MAX_TOKENID_NUMBER = 1 * 10 ** 7;\n    uint256 public constant MAX_NFT_SUPPLY = 200000;\n\n    \n    /**\n     * @dev Emitted when new Token minted.\n     */\n    event MintNFT(\n        uint256 indexed tokenId,\n        address indexed minter, \n        uint256 tokenCount,\n        uint256 tokenPrice\n    );\n\n\n    constructor() ERC721(\"Ragnarok Project\", \"Ragnarok\") {\n        _baseURIextended = \"https://ipfs.io/ipfs/\";\n        _priceextended = 10000000000000000000; // 10busd\n\n        IUniswapV2Router02 _uniswapV2Router = IUniswapV2Router02(routerAddress);\n        uniswapV2Router = _uniswapV2Router;\n    }\n\n    function setEndSale(bool _endSale) public onlyOwner {\n        endSale = _endSale;\n    }\n\n    function setWhitelist(address _add) public onlyOwner {\n        require(_add != address(0), \"Zero Address\");\n        whitelist[_add] = true;\n    }\n\n    function setWhitelistAll(address[] memory _adds) public onlyOwner {\n        for(uint256 i = 0; i < _adds.length; i++) {\n            address tmp = address(_adds[i]);\n            whitelist[tmp] = true;\n        }\n    }\n\n    function getNFTBalance(address _owner) public view returns (uint256) {\n       return ERC721.balanceOf(_owner);\n    }\n\n    function getNFTPrice() public view returns (uint256) {\n        require(tokenMinted < MAX_NFT_SUPPLY, \"Sale has already ended\");\n        return getAmountsTokenForETH(_priceextended);\n    }\n\n    function getAmountsTokenForETH(uint256 busdAmount) internal view returns(uint256) {\n\n        address[] memory path = new address[](2);\n        path[0] = address(busdToken);\n        path[1] = uniswapV2Router.WETH();\n\n        uint256[] memory amountOutMins = uniswapV2Router.getAmountsOut(busdAmount, path);\n        return amountOutMins[path.length - 1];\n    }\n\n    function random() internal returns (uint) {\n        uint256 ran = 0;\n        while(true) {\n            ran = uint256(keccak256(abi.encodePacked(block.timestamp, msg.sender, _tokenIdentifiers.current()))).mod(MAX_TOKENID_NUMBER);\n            if(registerID[ran] == false)\n                break;\n            _tokenIdentifiers.increment();\n        }\n        return ran;        \n    }\n\n    function claimNFT() public onlyOwner {\n        require(tokenMinted < MAX_NFT_SUPPLY, \"Sale has already ended\");\n\n        _tokenIdentifiers.increment();\n        uint256 newRECIdentifier = random();\n        _safeMint(msg.sender, newRECIdentifier);\n        registerID[newRECIdentifier] = true;\n        tokenMinted += 1;\n        tokenIds[newRECIdentifier] = tokenMinted;\n        subMintedCount += 1;\n    }\n\n    function mintNFT(uint256 _cnt) public payable {\n        require(tokenMinted < MAX_NFT_SUPPLY, \"Sale has already ended\");\n        // slippage 1%\n        uint256 minPriceForSale = getNFTPrice().mul(_cnt).mul(99).div(100);\n        require(minPriceForSale <= msg.value, \"ETH value sent is not correct\");\n\n        if(!publicSale) {\n            require(whitelist[msg.sender], \"Not \");\n            require(_cnt <= 5, \"Exceded the Minting Count\");\n        }\n\n        uint256 devFeePrice = msg.value * devFee /  feeDivisor;\n        uint256 marketFeePrice = msg.value * marketFee /  feeDivisor;\n        uint256 otherFeePrice = msg.value * otherFee /  feeDivisor;\n\n        if (marketWallet != address(0) && devFeePrice > 0) {\n            (bool sent, ) = payable(marketWallet).call{value: marketFeePrice}(\"\");\n            require(sent, \"Failed payment\");\n        }\n\n        if (devWallet != address(0) && devFeePrice > 0) {\n            (bool sent, ) = payable(devWallet).call{value: devFeePrice}(\"\");\n            require(sent, \"Failed payment\");\n        }\n\n        if (otherWallet != address(0) && devFeePrice > 0) {\n            (bool sent, ) = payable(otherWallet).call{value: otherFeePrice}(\"\");\n            require(sent, \"Failed payment\");\n        }\n\n        for(uint256 i = 0; i < _cnt; i++) {\n            _tokenIdentifiers.increment();\n            uint256 newRECIdentifier = random();\n\n            // price increasing\n            if (subMintedCount >= 1000) {\n                subMintedCount = 0;\n                _priceextended = _priceextended.mul(101).div(100);\n            }\n\n            _safeMint(msg.sender, newRECIdentifier);\n            registerID[newRECIdentifier] = true;\n            tokenMinted += 1;\n            tokenIds[newRECIdentifier] = tokenMinted;\n            subMintedCount += 1;\n        }\n\n        emit MintNFT(tokenMinted, _msgSender(), _cnt, _priceextended);\n    }\n\n    function batchURLs(string[] memory _revealURIs) public onlyOwner {\n        for(uint i = 0; i < _revealURIs.length; i++) {\n            revealURIs.push(_revealURIs[i]);\n        }\n    }\n\n    function withdraw() public onlyOwner {\n        require(endSale, \"Ongoing Minting\");\n        uint balance = address(this).balance;\n        address payable ownerAddress = payable(msg.sender);\n        ownerAddress.transfer(balance);\n    }\n\n    function tokenURI(uint256 tokenId) public view virtual override returns (string memory) {\n        require(_exists(tokenId), \"ERC721URIStorage: URI query for nonexistent token\");\n\n        string memory _tokenURI;        \n        if(reveal) {\n            _tokenURI = revealURI[tokenId];\n        } else {\n            _tokenURI = unrevealURI;\n        }\n        string memory base = _baseURI();\n\n        if (bytes(base).length == 0) {\n            return _tokenURI;\n        }\n\n        if (bytes(_tokenURI).length > 0) {\n            return string(abi.encodePacked(_tokenURI, tokenIds[tokenId]));\n        }\n\n        return super.tokenURI(tokenIds[tokenId]);\n    }\n\n    function _baseURI() internal view virtual override returns (string memory) {\n        return _baseURIextended;\n    }\n\n    function setUnrevealURI(string memory _uri) external onlyOwner() {\n        unrevealURI = _uri;\n    }\n\n    function _price() public view returns (uint256) {\n        return _priceextended;\n    }\n\n    function setPrice(uint256 _priceextended_) external onlyOwner() {\n        _priceextended = _priceextended_; // as busd\n    }\n\n    function setMarketWallet(address _addr) external onlyOwner {\n        require(_addr != address(0), \"Zero Address\");\n        marketWallet = _addr;\n    }\n\n    function setDevWallet(address _addr) external onlyOwner {\n        require(_addr != address(0), \"Zero Address\");\n        devWallet = _addr;\n    }\n\n    function setOtherWallet(address _addr) external onlyOwner {\n        require(_addr != address(0), \"Zero Address\");\n        otherWallet = _addr;\n    }\n\n    function setMarketFee(uint256 _newFee) external onlyOwner {\n        require(_newFee <= 1000, \"Tax can't be over 10%\");\n        marketFee = _newFee;\n    }\n\n    function setDevFee(uint256 _newFee) external onlyOwner {\n        require(_newFee <= 1000, \"Tax can't be over 10%\");\n        devFee = _newFee;\n    }\n\n    function setOtherFee(uint256 _newFee) external onlyOwner {\n        require(_newFee <= 1000, \"Tax can't be over 10%\");\n        otherFee = _newFee;\n    }\n}",
  "sourcePath": "E:\\work\\hiccup\\Ragnarok\\contracts\\Ragnarok.sol",
  "compiler": {
    "name": "solc",
    "version": "0.8.1+commit.df193b15.Emscripten.clang"
  },
  "schemaVersion": "3.4.4",
  "updatedAt": "2022-02-19T11:33:39.392Z",
  "networkType": "ethereum",
  "devdoc": {
    "events": {
      "MintNFT(uint256,address,uint256,uint256)": {
        "details": "Emitted when new Token minted."
      }
    },
    "kind": "dev",
    "methods": {
      "approve(address,uint256)": {
        "details": "See {IERC721-approve}."
      },
      "balanceOf(address)": {
        "details": "See {IERC721-balanceOf}."
      },
      "getApproved(uint256)": {
        "details": "See {IERC721-getApproved}."
      },
      "isApprovedForAll(address,address)": {
        "details": "See {IERC721-isApprovedForAll}."
      },
      "name()": {
        "details": "See {IERC721Metadata-name}."
      },
      "owner()": {
        "details": "Returns the address of the current owner."
      },
      "ownerOf(uint256)": {
        "details": "See {IERC721-ownerOf}."
      },
      "renounceOwnership()": {
        "details": "Leaves the contract without owner. It will not be possible to call `onlyOwner` functions anymore. Can only be called by the current owner. NOTE: Renouncing ownership will leave the contract without an owner, thereby removing any functionality that is only available to the owner."
      },
      "safeTransferFrom(address,address,uint256)": {
        "details": "See {IERC721-safeTransferFrom}."
      },
      "safeTransferFrom(address,address,uint256,bytes)": {
        "details": "See {IERC721-safeTransferFrom}."
      },
      "setApprovalForAll(address,bool)": {
        "details": "See {IERC721-setApprovalForAll}."
      },
      "supportsInterface(bytes4)": {
        "details": "See {IERC165-supportsInterface}."
      },
      "symbol()": {
        "details": "See {IERC721Metadata-symbol}."
      },
      "tokenByIndex(uint256)": {
        "details": "See {IERC721Enumerable-tokenByIndex}."
      },
      "tokenOfOwnerByIndex(address,uint256)": {
        "details": "See {IERC721Enumerable-tokenOfOwnerByIndex}."
      },
      "tokenURI(uint256)": {
        "details": "See {IERC721Metadata-tokenURI}."
      },
      "totalSupply()": {
        "details": "See {IERC721Enumerable-totalSupply}."
      },
      "transferFrom(address,address,uint256)": {
        "details": "See {IERC721-transferFrom}."
      },
      "transferOwnership(address)": {
        "details": "Transfers ownership of the contract to a new account (`newOwner`). Can only be called by the current owner."
      }
    },
    "version": 1
  },
  "userdoc": {
    "kind": "user",
    "methods": {},
    "version": 1
  }
}