{
  "contractName": "RagnarokProject",
  "abi": [
    {
      "inputs": [],
      "stateMutability": "nonpayable",
      "type": "constructor"
    },
    {
      "anonymous": false,
      "inputs": [
        {
          "indexed": true,
          "internalType": "address",
          "name": "owner",
          "type": "address"
        },
        {
          "indexed": true,
          "internalType": "address",
          "name": "approved",
          "type": "address"
        },
        {
          "indexed": true,
          "internalType": "uint256",
          "name": "tokenId",
          "type": "uint256"
        }
      ],
      "name": "Approval",
      "type": "event"
    },
    {
      "anonymous": false,
      "inputs": [
        {
          "indexed": true,
          "internalType": "address",
          "name": "owner",
          "type": "address"
        },
        {
          "indexed": true,
          "internalType": "address",
          "name": "operator",
          "type": "address"
        },
        {
          "indexed": false,
          "internalType": "bool",
          "name": "approved",
          "type": "bool"
        }
      ],
      "name": "ApprovalForAll",
      "type": "event"
    },
    {
      "anonymous": false,
      "inputs": [
        {
          "indexed": true,
          "internalType": "uint256",
          "name": "tokenId",
          "type": "uint256"
        },
        {
          "indexed": true,
          "internalType": "address",
          "name": "minter",
          "type": "address"
        },
        {
          "indexed": false,
          "internalType": "uint256",
          "name": "tokenCount",
          "type": "uint256"
        },
        {
          "indexed": false,
          "internalType": "uint256",
          "name": "tokenPrice",
          "type": "uint256"
        }
      ],
      "name": "MintNFT",
      "type": "event"
    },
    {
      "anonymous": false,
      "inputs": [
        {
          "indexed": true,
          "internalType": "address",
          "name": "previousOwner",
          "type": "address"
        },
        {
          "indexed": true,
          "internalType": "address",
          "name": "newOwner",
          "type": "address"
        }
      ],
      "name": "OwnershipTransferred",
      "type": "event"
    },
    {
      "anonymous": false,
      "inputs": [
        {
          "indexed": true,
          "internalType": "address",
          "name": "from",
          "type": "address"
        },
        {
          "indexed": true,
          "internalType": "address",
          "name": "to",
          "type": "address"
        },
        {
          "indexed": true,
          "internalType": "uint256",
          "name": "tokenId",
          "type": "uint256"
        }
      ],
      "name": "Transfer",
      "type": "event"
    },
    {
      "inputs": [],
      "name": "MAX_NFT_SUPPLY",
      "outputs": [
        {
          "internalType": "uint256",
          "name": "",
          "type": "uint256"
        }
      ],
      "stateMutability": "view",
      "type": "function",
      "constant": true
    },
    {
      "inputs": [
        {
          "internalType": "address",
          "name": "to",
          "type": "address"
        },
        {
          "internalType": "uint256",
          "name": "tokenId",
          "type": "uint256"
        }
      ],
      "name": "approve",
      "outputs": [],
      "stateMutability": "nonpayable",
      "type": "function"
    },
    {
      "inputs": [
        {
          "internalType": "address",
          "name": "owner",
          "type": "address"
        }
      ],
      "name": "balanceOf",
      "outputs": [
        {
          "internalType": "uint256",
          "name": "",
          "type": "uint256"
        }
      ],
      "stateMutability": "view",
      "type": "function",
      "constant": true
    },
    {
      "inputs": [],
      "name": "devFee",
      "outputs": [
        {
          "internalType": "uint256",
          "name": "",
          "type": "uint256"
        }
      ],
      "stateMutability": "view",
      "type": "function",
      "constant": true
    },
    {
      "inputs": [],
      "name": "devWallet",
      "outputs": [
        {
          "internalType": "address",
          "name": "",
          "type": "address"
        }
      ],
      "stateMutability": "view",
      "type": "function",
      "constant": true
    },
    {
      "inputs": [],
      "name": "endSale",
      "outputs": [
        {
          "internalType": "bool",
          "name": "",
          "type": "bool"
        }
      ],
      "stateMutability": "view",
      "type": "function",
      "constant": true
    },
    {
      "inputs": [],
      "name": "feeDivisor",
      "outputs": [
        {
          "internalType": "uint256",
          "name": "",
          "type": "uint256"
        }
      ],
      "stateMutability": "view",
      "type": "function",
      "constant": true
    },
    {
      "inputs": [
        {
          "internalType": "uint256",
          "name": "tokenId",
          "type": "uint256"
        }
      ],
      "name": "getApproved",
      "outputs": [
        {
          "internalType": "address",
          "name": "",
          "type": "address"
        }
      ],
      "stateMutability": "view",
      "type": "function",
      "constant": true
    },
    {
      "inputs": [
        {
          "internalType": "address",
          "name": "owner",
          "type": "address"
        },
        {
          "internalType": "address",
          "name": "operator",
          "type": "address"
        }
      ],
      "name": "isApprovedForAll",
      "outputs": [
        {
          "internalType": "bool",
          "name": "",
          "type": "bool"
        }
      ],
      "stateMutability": "view",
      "type": "function",
      "constant": true
    },
    {
      "inputs": [],
      "name": "marketFee",
      "outputs": [
        {
          "internalType": "uint256",
          "name": "",
          "type": "uint256"
        }
      ],
      "stateMutability": "view",
      "type": "function",
      "constant": true
    },
    {
      "inputs": [],
      "name": "marketWallet",
      "outputs": [
        {
          "internalType": "address",
          "name": "",
          "type": "address"
        }
      ],
      "stateMutability": "view",
      "type": "function",
      "constant": true
    },
    {
      "inputs": [],
      "name": "name",
      "outputs": [
        {
          "internalType": "string",
          "name": "",
          "type": "string"
        }
      ],
      "stateMutability": "view",
      "type": "function",
      "constant": true
    },
    {
      "inputs": [],
      "name": "otherFee",
      "outputs": [
        {
          "internalType": "uint256",
          "name": "",
          "type": "uint256"
        }
      ],
      "stateMutability": "view",
      "type": "function",
      "constant": true
    },
    {
      "inputs": [],
      "name": "otherWallet",
      "outputs": [
        {
          "internalType": "address",
          "name": "",
          "type": "address"
        }
      ],
      "stateMutability": "view",
      "type": "function",
      "constant": true
    },
    {
      "inputs": [],
      "name": "owner",
      "outputs": [
        {
          "internalType": "address",
          "name": "",
          "type": "address"
        }
      ],
      "stateMutability": "view",
      "type": "function",
      "constant": true
    },
    {
      "inputs": [
        {
          "internalType": "uint256",
          "name": "tokenId",
          "type": "uint256"
        }
      ],
      "name": "ownerOf",
      "outputs": [
        {
          "internalType": "address",
          "name": "",
          "type": "address"
        }
      ],
      "stateMutability": "view",
      "type": "function",
      "constant": true
    },
    {
      "inputs": [],
      "name": "publicSale",
      "outputs": [
        {
          "internalType": "bool",
          "name": "",
          "type": "bool"
        }
      ],
      "stateMutability": "view",
      "type": "function",
      "constant": true
    },
    {
      "inputs": [],
      "name": "renounceOwnership",
      "outputs": [],
      "stateMutability": "nonpayable",
      "type": "function"
    },
    {
      "inputs": [],
      "name": "reveal",
      "outputs": [
        {
          "internalType": "bool",
          "name": "",
          "type": "bool"
        }
      ],
      "stateMutability": "view",
      "type": "function",
      "constant": true
    },
    {
      "inputs": [
        {
          "internalType": "uint256",
          "name": "",
          "type": "uint256"
        }
      ],
      "name": "revealURIs",
      "outputs": [
        {
          "internalType": "string",
          "name": "",
          "type": "string"
        }
      ],
      "stateMutability": "view",
      "type": "function",
      "constant": true
    },
    {
      "inputs": [],
      "name": "routerAddress",
      "outputs": [
        {
          "internalType": "address",
          "name": "",
          "type": "address"
        }
      ],
      "stateMutability": "view",
      "type": "function",
      "constant": true
    },
    {
      "inputs": [
        {
          "internalType": "address",
          "name": "from",
          "type": "address"
        },
        {
          "internalType": "address",
          "name": "to",
          "type": "address"
        },
        {
          "internalType": "uint256",
          "name": "tokenId",
          "type": "uint256"
        }
      ],
      "name": "safeTransferFrom",
      "outputs": [],
      "stateMutability": "nonpayable",
      "type": "function"
    },
    {
      "inputs": [
        {
          "internalType": "address",
          "name": "from",
          "type": "address"
        },
        {
          "internalType": "address",
          "name": "to",
          "type": "address"
        },
        {
          "internalType": "uint256",
          "name": "tokenId",
          "type": "uint256"
        },
        {
          "internalType": "bytes",
          "name": "_data",
          "type": "bytes"
        }
      ],
      "name": "safeTransferFrom",
      "outputs": [],
      "stateMutability": "nonpayable",
      "type": "function"
    },
    {
      "inputs": [
        {
          "internalType": "address",
          "name": "operator",
          "type": "address"
        },
        {
          "internalType": "bool",
          "name": "approved",
          "type": "bool"
        }
      ],
      "name": "setApprovalForAll",
      "outputs": [],
      "stateMutability": "nonpayable",
      "type": "function"
    },
    {
      "inputs": [],
      "name": "stableToken",
      "outputs": [
        {
          "internalType": "address",
          "name": "",
          "type": "address"
        }
      ],
      "stateMutability": "view",
      "type": "function",
      "constant": true
    },
    {
      "inputs": [],
      "name": "subMintedCount",
      "outputs": [
        {
          "internalType": "uint256",
          "name": "",
          "type": "uint256"
        }
      ],
      "stateMutability": "view",
      "type": "function",
      "constant": true
    },
    {
      "inputs": [
        {
          "internalType": "bytes4",
          "name": "interfaceId",
          "type": "bytes4"
        }
      ],
      "name": "supportsInterface",
      "outputs": [
        {
          "internalType": "bool",
          "name": "",
          "type": "bool"
        }
      ],
      "stateMutability": "view",
      "type": "function",
      "constant": true
    },
    {
      "inputs": [],
      "name": "symbol",
      "outputs": [
        {
          "internalType": "string",
          "name": "",
          "type": "string"
        }
      ],
      "stateMutability": "view",
      "type": "function",
      "constant": true
    },
    {
      "inputs": [
        {
          "internalType": "uint256",
          "name": "index",
          "type": "uint256"
        }
      ],
      "name": "tokenByIndex",
      "outputs": [
        {
          "internalType": "uint256",
          "name": "",
          "type": "uint256"
        }
      ],
      "stateMutability": "view",
      "type": "function",
      "constant": true
    },
    {
      "inputs": [
        {
          "internalType": "uint256",
          "name": "",
          "type": "uint256"
        }
      ],
      "name": "tokenIds",
      "outputs": [
        {
          "internalType": "uint256",
          "name": "",
          "type": "uint256"
        }
      ],
      "stateMutability": "view",
      "type": "function",
      "constant": true
    },
    {
      "inputs": [],
      "name": "tokenMinted",
      "outputs": [
        {
          "internalType": "uint256",
          "name": "",
          "type": "uint256"
        }
      ],
      "stateMutability": "view",
      "type": "function",
      "constant": true
    },
    {
      "inputs": [
        {
          "internalType": "address",
          "name": "owner",
          "type": "address"
        },
        {
          "internalType": "uint256",
          "name": "index",
          "type": "uint256"
        }
      ],
      "name": "tokenOfOwnerByIndex",
      "outputs": [
        {
          "internalType": "uint256",
          "name": "",
          "type": "uint256"
        }
      ],
      "stateMutability": "view",
      "type": "function",
      "constant": true
    },
    {
      "inputs": [],
      "name": "totalSupply",
      "outputs": [
        {
          "internalType": "uint256",
          "name": "",
          "type": "uint256"
        }
      ],
      "stateMutability": "view",
      "type": "function",
      "constant": true
    },
    {
      "inputs": [
        {
          "internalType": "address",
          "name": "from",
          "type": "address"
        },
        {
          "internalType": "address",
          "name": "to",
          "type": "address"
        },
        {
          "internalType": "uint256",
          "name": "tokenId",
          "type": "uint256"
        }
      ],
      "name": "transferFrom",
      "outputs": [],
      "stateMutability": "nonpayable",
      "type": "function"
    },
    {
      "inputs": [
        {
          "internalType": "address",
          "name": "newOwner",
          "type": "address"
        }
      ],
      "name": "transferOwnership",
      "outputs": [],
      "stateMutability": "nonpayable",
      "type": "function"
    },
    {
      "inputs": [],
      "name": "uniswapV2Router",
      "outputs": [
        {
          "internalType": "contract IUniswapV2Router02",
          "name": "",
          "type": "address"
        }
      ],
      "stateMutability": "view",
      "type": "function",
      "constant": true
    },
    {
      "inputs": [],
      "name": "unrevealURI",
      "outputs": [
        {
          "internalType": "string",
          "name": "",
          "type": "string"
        }
      ],
      "stateMutability": "view",
      "type": "function",
      "constant": true
    },
    {
      "inputs": [
        {
          "internalType": "bool",
          "name": "_endSale",
          "type": "bool"
        }
      ],
      "name": "setEndSale",
      "outputs": [],
      "stateMutability": "nonpayable",
      "type": "function"
    },
    {
      "inputs": [
        {
          "internalType": "address",
          "name": "_add",
          "type": "address"
        }
      ],
      "name": "setWhitelist",
      "outputs": [],
      "stateMutability": "nonpayable",
      "type": "function"
    },
    {
      "inputs": [
        {
          "internalType": "address[]",
          "name": "_adds",
          "type": "address[]"
        }
      ],
      "name": "setWhitelistAll",
      "outputs": [],
      "stateMutability": "nonpayable",
      "type": "function"
    },
    {
      "inputs": [
        {
          "internalType": "address",
          "name": "_owner",
          "type": "address"
        }
      ],
      "name": "getNFTBalance",
      "outputs": [
        {
          "internalType": "uint256",
          "name": "",
          "type": "uint256"
        }
      ],
      "stateMutability": "view",
      "type": "function",
      "constant": true
    },
    {
      "inputs": [],
      "name": "getNFTPrice",
      "outputs": [
        {
          "internalType": "uint256",
          "name": "",
          "type": "uint256"
        }
      ],
      "stateMutability": "view",
      "type": "function",
      "constant": true
    },
    {
      "inputs": [],
      "name": "getNFTPriceStable",
      "outputs": [
        {
          "internalType": "uint256",
          "name": "",
          "type": "uint256"
        }
      ],
      "stateMutability": "view",
      "type": "function",
      "constant": true
    },
    {
      "inputs": [],
      "name": "claimNFT",
      "outputs": [],
      "stateMutability": "nonpayable",
      "type": "function"
    },
    {
      "inputs": [
        {
          "internalType": "uint256",
          "name": "_cnt",
          "type": "uint256"
        }
      ],
      "name": "mintNFT",
      "outputs": [],
      "stateMutability": "payable",
      "type": "function",
      "payable": true
    },
    {
      "inputs": [
        {
          "internalType": "string[]",
          "name": "_revealURIs",
          "type": "string[]"
        }
      ],
      "name": "batchURLs",
      "outputs": [],
      "stateMutability": "nonpayable",
      "type": "function"
    },
    {
      "inputs": [],
      "name": "withdraw",
      "outputs": [],
      "stateMutability": "nonpayable",
      "type": "function"
    },
    {
      "inputs": [
        {
          "internalType": "uint256",
          "name": "tokenId",
          "type": "uint256"
        }
      ],
      "name": "tokenURI",
      "outputs": [
        {
          "internalType": "string",
          "name": "",
          "type": "string"
        }
      ],
      "stateMutability": "view",
      "type": "function",
      "constant": true
    },
    {
      "inputs": [
        {
          "internalType": "string",
          "name": "_uri",
          "type": "string"
        }
      ],
      "name": "setUnrevealURI",
      "outputs": [],
      "stateMutability": "nonpayable",
      "type": "function"
    },
    {
      "inputs": [],
      "name": "_price",
      "outputs": [
        {
          "internalType": "uint256",
          "name": "",
          "type": "uint256"
        }
      ],
      "stateMutability": "view",
      "type": "function",
      "constant": true
    },
    {
      "inputs": [
        {
          "internalType": "uint256",
          "name": "_priceextended_",
          "type": "uint256"
        }
      ],
      "name": "setPrice",
      "outputs": [],
      "stateMutability": "nonpayable",
      "type": "function"
    },
    {
      "inputs": [
        {
          "internalType": "address",
          "name": "_addr",
          "type": "address"
        }
      ],
      "name": "setMarketWallet",
      "outputs": [],
      "stateMutability": "nonpayable",
      "type": "function"
    },
    {
      "inputs": [
        {
          "internalType": "address",
          "name": "_addr",
          "type": "address"
        }
      ],
      "name": "setDevWallet",
      "outputs": [],
      "stateMutability": "nonpayable",
      "type": "function"
    },
    {
      "inputs": [
        {
          "internalType": "address",
          "name": "_addr",
          "type": "address"
        }
      ],
      "name": "setOtherWallet",
      "outputs": [],
      "stateMutability": "nonpayable",
      "type": "function"
    },
    {
      "inputs": [
        {
          "internalType": "uint256",
          "name": "_newFee",
          "type": "uint256"
        }
      ],
      "name": "setMarketFee",
      "outputs": [],
      "stateMutability": "nonpayable",
      "type": "function"
    },
    {
      "inputs": [
        {
          "internalType": "uint256",
          "name": "_newFee",
          "type": "uint256"
        }
      ],
      "name": "setDevFee",
      "outputs": [],
      "stateMutability": "nonpayable",
      "type": "function"
    },
    {
      "inputs": [
        {
          "internalType": "uint256",
          "name": "_newFee",
          "type": "uint256"
        }
      ],
      "name": "setOtherFee",
      "outputs": [],
      "stateMutability": "nonpayable",
      "type": "function"
    }
  ],
  "bytecode": "0x612710600b556103e8600c819055600d819055600e55600f80546001600160a01b0319908116909155601080549091169055601180546001600160a81b031916600160a01b17905560e0604052602260808181529062003c2260a0398051620000719160149160209091019062000213565b506016805461ffff19169055601c80546001600160a01b031916738954afa98594b838bda56fe4c12a09d7739d179b1790556000601d819055601e55348015620000ba57600080fd5b506040805180820182526011815270576f726c64206f66205261676e61726f6b60781b6020808301918252835180850190945260038452622ba7a960e91b9084015281519192916200010f9160009162000213565b5080516200012590600190602084019062000213565b505050620001426200013c620001bd60201b60201c565b620001c1565b6040805180820190915260158082527f68747470733a2f2f697066732e696f2f697066732f00000000000000000000006020909201918252620001889160179162000213565b50678ac7230489e80000601855601c54601b80546001600160a01b0319166001600160a01b03909216919091179055620002f6565b3390565b600a80546001600160a01b038381166001600160a01b0319831681179093556040519116919082907f8be0079c531659141344cd1fd0a4f28419497f9722a3daafe3b4186f6b6457e090600090a35050565b8280546200022190620002b9565b90600052602060002090601f01602090048101928262000245576000855562000290565b82601f106200026057805160ff191683800117855562000290565b8280016001018555821562000290579182015b828111156200029057825182559160200191906001019062000273565b506200029e929150620002a2565b5090565b5b808211156200029e5760008155600101620002a3565b600281046001821680620002ce57607f821691505b60208210811415620002f057634e487b7160e01b600052602260045260246000fd5b50919050565b61391c80620003066000396000f3fe6080604052600436106103765760003560e01c8063715018a6116101d1578063aeb0bc7911610102578063d58778d6116100a0578063e4440a861161006f578063e4440a861461093a578063e985e9c51461094f578063f2fde38b1461096f578063fb107a4f1461098f57610376565b8063d58778d6146108d0578063d5f51717146108f0578063dee6dd4114610905578063e1dff0de1461092557610376565b8063b9f236a6116100dc578063b9f236a614610850578063bf8ebd8514610870578063c04508de14610890578063c87b56dd146108b057610376565b8063aeb0bc79146107fb578063b5077f441461081b578063b88d4fde1461083057610376565b806395d89b411161016f5780639a36f932116101495780639a36f9321461079c578063a22cb465146107b1578063a475b5dd146107d1578063a9d75b2b146107e657610376565b806395d89b4114610752578063963563551461076757806397bc411c1461077c57610376565b80638da5cb5b116101ab5780638da5cb5b146106f55780638ea5220f1461070a57806391b7f5ed1461071f578063926427441461073f57610376565b8063715018a6146106a05780638256b448146106b5578063854cff2f146106d557610376565b80632f745c59116102ab5780634f6ccce711610249578063650db3ac11610223578063650db3ac14610636578063672756ad146106565780636827e7641461066b57806370a082311461068057610376565b80634f6ccce7146105d657806354332266146105f65780636352211e1461061657610376565b8063343ab21611610285578063343ab21614610577578063380d831b1461058c5780633ccfd60b146105a157806342842e0e146105b657610376565b80632f745c591461052d5780633268cc561461054d57806333bc1c5c1461056257610376565b806318160ddd116103185780632126ea81116102f25780632126ea81146104c3578063235b6ea1146104d857806323b872dd146104ed57806326b825d21461050d57610376565b806318160ddd1461046e5780631c75b6b2146104835780631f53ac02146104a357610376565b8063095ea7b311610354578063095ea7b3146104005780630ccf2156146104225780630d36f564146104445780631694505e1461045957610376565b806301ffc9a71461037b57806306fdde03146103b1578063081812fc146103d3575b600080fd5b34801561038757600080fd5b5061039b610396366004612e9b565b6109a4565b6040516103a89190612ff5565b60405180910390f35b3480156103bd57600080fd5b506103c66109d1565b6040516103a89190613000565b3480156103df57600080fd5b506103f36103ee366004612f06565b610a63565b6040516103a89190612fa4565b34801561040c57600080fd5b5061042061041b366004612cab565b610aaf565b005b34801561042e57600080fd5b50610437610b47565b6040516103a891906136bf565b34801561045057600080fd5b506103f3610b4d565b34801561046557600080fd5b506103f3610b5c565b34801561047a57600080fd5b50610437610b6b565b34801561048f57600080fd5b5061042061049e366004612f06565b610b71565b3480156104af57600080fd5b506104206104be366004612b4a565b610bd7565b3480156104cf57600080fd5b506103c6610c5e565b3480156104e457600080fd5b50610437610cec565b3480156104f957600080fd5b50610420610508366004612bba565b610cf2565b34801561051957600080fd5b50610420610528366004612f06565b610d2a565b34801561053957600080fd5b50610437610548366004612cab565b610d90565b34801561055957600080fd5b506103f3610de2565b34801561056e57600080fd5b5061039b610df1565b34801561058357600080fd5b50610437610e01565b34801561059857600080fd5b5061039b610e07565b3480156105ad57600080fd5b50610420610e15565b3480156105c257600080fd5b506104206105d1366004612bba565b610eac565b3480156105e257600080fd5b506104376105f1366004612f06565b610ec7565b34801561060257600080fd5b50610420610611366004612b4a565b610f22565b34801561062257600080fd5b506103f3610631366004612f06565b610fa9565b34801561064257600080fd5b50610420610651366004612cd6565b610fde565b34801561066257600080fd5b50610420611090565b34801561067757600080fd5b50610437611177565b34801561068c57600080fd5b5061043761069b366004612b4a565b61117d565b3480156106ac57600080fd5b506104206111c1565b3480156106c157600080fd5b506103c66106d0366004612f06565b61120c565b3480156106e157600080fd5b506104206106f0366004612b4a565b611237565b34801561070157600080fd5b506103f36112c0565b34801561071657600080fd5b506103f36112cf565b34801561072b57600080fd5b5061042061073a366004612f06565b6112de565b61042061074d366004612f06565b611322565b34801561075e57600080fd5b506103c6611752565b34801561077357600080fd5b50610437611761565b34801561078857600080fd5b50610420610797366004612ed3565b611767565b3480156107a857600080fd5b506104376117b9565b3480156107bd57600080fd5b506104206107cc366004612c77565b6117bf565b3480156107dd57600080fd5b5061039b6117d1565b3480156107f257600080fd5b506103f36117da565b34801561080757600080fd5b50610420610816366004612f06565b6117f2565b34801561082757600080fd5b50610437611858565b34801561083c57600080fd5b5061042061084b366004612bfa565b61185f565b34801561085c57600080fd5b5061042061086b366004612d74565b61189e565b34801561087c57600080fd5b5061043761088b366004612b4a565b611950565b34801561089c57600080fd5b506104206108ab366004612b4a565b61195b565b3480156108bc57600080fd5b506103c66108cb366004612f06565b6119e2565b3480156108dc57600080fd5b506104376108eb366004612f06565b611bcb565b3480156108fc57600080fd5b50610437611bdd565b34801561091157600080fd5b50610420610920366004612e81565b611be3565b34801561093157600080fd5b50610437611c3c565b34801561094657600080fd5b506103f3611c69565b34801561095b57600080fd5b5061039b61096a366004612b82565b611c78565b34801561097b57600080fd5b5061042061098a366004612b4a565b611ca6565b34801561099b57600080fd5b50610437611d17565b60006001600160e01b0319821663780e9d6360e01b14806109c957506109c982611d4d565b90505b919050565b6060600080546109e09061380f565b80601f0160208091040260200160405190810160405280929190818152602001828054610a0c9061380f565b8015610a595780601f10610a2e57610100808354040283529160200191610a59565b820191906000526020600020905b815481529060010190602001808311610a3c57829003601f168201915b5050505050905090565b6000610a6e82611d8d565b610a935760405162461bcd60e51b8152600401610a8a9061340f565b60405180910390fd5b506000908152600460205260409020546001600160a01b031690565b6000610aba82610fa9565b9050806001600160a01b0316836001600160a01b03161415610aee5760405162461bcd60e51b8152600401610a8a9061354b565b806001600160a01b0316610b00611daa565b6001600160a01b03161480610b1c5750610b1c8161096a611daa565b610b385760405162461bcd60e51b8152600401610a8a90613262565b610b428383611dae565b505050565b600d5481565b6011546001600160a01b031681565b601b546001600160a01b031681565b60085490565b610b79611daa565b6001600160a01b0316610b8a6112c0565b6001600160a01b031614610bb05760405162461bcd60e51b8152600401610a8a9061345b565b6103e8811115610bd25760405162461bcd60e51b8152600401610a8a90613690565b600c55565b610bdf611daa565b6001600160a01b0316610bf06112c0565b6001600160a01b031614610c165760405162461bcd60e51b8152600401610a8a9061345b565b6001600160a01b038116610c3c5760405162461bcd60e51b8152600401610a8a906134b8565b600f80546001600160a01b0319166001600160a01b0392909216919091179055565b60148054610c6b9061380f565b80601f0160208091040260200160405190810160405280929190818152602001828054610c979061380f565b8015610ce45780601f10610cb957610100808354040283529160200191610ce4565b820191906000526020600020905b815481529060010190602001808311610cc757829003601f168201915b505050505081565b60185490565b610d03610cfd611daa565b82611e1c565b610d1f5760405162461bcd60e51b8152600401610a8a906135bc565b610b42838383611e99565b610d32611daa565b6001600160a01b0316610d436112c0565b6001600160a01b031614610d695760405162461bcd60e51b8152600401610a8a9061345b565b6103e8811115610d8b5760405162461bcd60e51b8152600401610a8a90613690565b600d55565b6000610d9b8361117d565b8210610db95760405162461bcd60e51b8152600401610a8a90613013565b506001600160a01b03919091166000908152600660209081526040808320938352929052205490565b601c546001600160a01b031681565b601154600160a01b900460ff1681565b600e5481565b601654610100900460ff1681565b610e1d611daa565b6001600160a01b0316610e2e6112c0565b6001600160a01b031614610e545760405162461bcd60e51b8152600401610a8a9061345b565b601654610100900460ff16610e7b5760405162461bcd60e51b8152600401610a8a90613172565b60405147903390819083156108fc029084906000818181858888f19350505050158015610b42573d6000803e3d6000fd5b610b428383836040518060200160405280600081525061185f565b6000610ed1610b6b565b8210610eef5760405162461bcd60e51b8152600401610a8a9061360d565b60088281548110610f1057634e487b7160e01b600052603260045260246000fd5b90600052602060002001549050919050565b610f2a611daa565b6001600160a01b0316610f3b6112c0565b6001600160a01b031614610f615760405162461bcd60e51b8152600401610a8a9061345b565b6001600160a01b038116610f875760405162461bcd60e51b8152600401610a8a906134b8565b601080546001600160a01b0319166001600160a01b0392909216919091179055565b6000818152600260205260408120546001600160a01b0316806109c95760405162461bcd60e51b8152600401610a8a90613309565b610fe6611daa565b6001600160a01b0316610ff76112c0565b6001600160a01b03161461101d5760405162461bcd60e51b8152600401610a8a9061345b565b60005b815181101561108c57600082828151811061104b57634e487b7160e01b600052603260045260246000fd5b6020908102919091018101516001600160a01b03166000908152601290915260409020805460ff1916600117905550806110848161384a565b915050611020565b5050565b611098611daa565b6001600160a01b03166110a96112c0565b6001600160a01b0316146110cf5760405162461bcd60e51b8152600401610a8a9061345b565b62030d40601d54106110f35760405162461bcd60e51b8152600401610a8a9061358c565b6110fd601f611fcc565b6000611107611fd5565b90506111133382612049565b6000818152601960205260408120805460ff19166001908117909155601d805491929091611142908490613781565b9091555050601d546000828152601a6020526040812091909155601e80546001929061116f908490613781565b909155505050565b600c5481565b60006001600160a01b0382166111a55760405162461bcd60e51b8152600401610a8a906132bf565b506001600160a01b031660009081526003602052604090205490565b6111c9611daa565b6001600160a01b03166111da6112c0565b6001600160a01b0316146112005760405162461bcd60e51b8152600401610a8a9061345b565b61120a6000612063565b565b6015818154811061121c57600080fd5b906000526020600020016000915090508054610c6b9061380f565b61123f611daa565b6001600160a01b03166112506112c0565b6001600160a01b0316146112765760405162461bcd60e51b8152600401610a8a9061345b565b6001600160a01b03811661129c5760405162461bcd60e51b8152600401610a8a906134b8565b6001600160a01b03166000908152601260205260409020805460ff19166001179055565b600a546001600160a01b031690565b600f546001600160a01b031681565b6112e6611daa565b6001600160a01b03166112f76112c0565b6001600160a01b03161461131d5760405162461bcd60e51b8152600401610a8a9061345b565b601855565b62030d40601d54106113465760405162461bcd60e51b8152600401610a8a9061358c565b600061136a6064611364606361135e8661135e611d17565b906120b5565b906120c8565b90503481111561138c5760405162461bcd60e51b8152600401610a8a90613659565b601154600160a01b900460ff166113ed573360009081526012602052604090205460ff166113cc5760405162461bcd60e51b8152600401610a8a906134de565b60058211156113ed5760405162461bcd60e51b8152600401610a8a90613352565b6000600b54600c543461140091906137ad565b61140a9190613799565b90506000600b54600d543461141f91906137ad565b6114299190613799565b90506000600b54600e543461143e91906137ad565b6114489190613799565b6010549091506001600160a01b0316158015906114655750600083115b156114ed576010546040516000916001600160a01b031690849061148890612f79565b60006040518083038185875af1925050503d80600081146114c5576040519150601f19603f3d011682016040523d82523d6000602084013e6114ca565b606091505b50509050806114eb5760405162461bcd60e51b8152600401610a8a90613490565b505b600f546001600160a01b0316158015906115075750600083115b1561158f57600f546040516000916001600160a01b031690859061152a90612f79565b60006040518083038185875af1925050503d8060008114611567576040519150601f19603f3d011682016040523d82523d6000602084013e61156c565b606091505b505090508061158d5760405162461bcd60e51b8152600401610a8a90613490565b505b6011546001600160a01b0316158015906115a95750600083115b15611631576011546040516000916001600160a01b03169083906115cc90612f79565b60006040518083038185875af1925050503d8060008114611609576040519150601f19603f3d011682016040523d82523d6000602084013e61160e565b606091505b505090508061162f5760405162461bcd60e51b8152600401610a8a90613490565b505b60005b858110156116fb57611646601f611fcc565b6000611650611fd5565b90506103e8601e541061167b576000601e55601854611677906064906113649060656120b5565b6018555b6116853382612049565b6000818152601960205260408120805460ff19166001908117909155601d8054919290916116b4908490613781565b9091555050601d546000828152601a6020526040812091909155601e8054600192906116e1908490613781565b909155508291506116f390508161384a565b915050611634565b50611704611daa565b6001600160a01b0316601d547fa8df055256606ba5aac9eb70062e4896d61ca7e3a678b0e783be2a1c18cdc0e68760185460405161174392919061371e565b60405180910390a35050505050565b6060600180546109e09061380f565b601d5481565b61176f611daa565b6001600160a01b03166117806112c0565b6001600160a01b0316146117a65760405162461bcd60e51b8152600401610a8a9061345b565b805161108c906014906020840190612a2a565b600b5481565b61108c6117ca611daa565b83836120d4565b60165460ff1681565b73cb1e72786a6eb3b44c2a2429e317c8a2462cfeb181565b6117fa611daa565b6001600160a01b031661180b6112c0565b6001600160a01b0316146118315760405162461bcd60e51b8152600401610a8a9061345b565b6103e88111156118535760405162461bcd60e51b8152600401610a8a90613690565b600e55565b62030d4081565b61187061186a611daa565b83611e1c565b61188c5760405162461bcd60e51b8152600401610a8a906135bc565b61189884848484612177565b50505050565b6118a6611daa565b6001600160a01b03166118b76112c0565b6001600160a01b0316146118dd5760405162461bcd60e51b8152600401610a8a9061345b565b60005b815181101561108c57601582828151811061190b57634e487b7160e01b600052603260045260246000fd5b6020908102919091018101518254600181018455600093845292829020815161193d9491909101929190910190612a2a565b50806119488161384a565b9150506118e0565b60006109c98261117d565b611963611daa565b6001600160a01b03166119746112c0565b6001600160a01b03161461199a5760405162461bcd60e51b8152600401610a8a9061345b565b6001600160a01b0381166119c05760405162461bcd60e51b8152600401610a8a906134b8565b601180546001600160a01b0319166001600160a01b0392909216919091179055565b60606119ed82611d8d565b611a095760405162461bcd60e51b8152600401610a8a906133be565b60165460609060ff1615611ab55760008381526013602052604090208054611a309061380f565b80601f0160208091040260200160405190810160405280929190818152602001828054611a5c9061380f565b8015611aa95780601f10611a7e57610100808354040283529160200191611aa9565b820191906000526020600020905b815481529060010190602001808311611a8c57829003601f168201915b50505050509050611b43565b60148054611ac29061380f565b80601f0160208091040260200160405190810160405280929190818152602001828054611aee9061380f565b8015611b3b5780601f10611b1057610100808354040283529160200191611b3b565b820191906000526020600020905b815481529060010190602001808311611b1e57829003601f168201915b505050505090505b6000611b4d6121aa565b9050805160001415611b61575090506109cc565b815115611bab576000848152601a60205260409020548290611b82906121b9565b604051602001611b93929190612f4a565b604051602081830303815290604052925050506109cc565b6000848152601a6020526040902054611bc3906122d4565b949350505050565b601a6020526000908152604090205481565b601e5481565b611beb611daa565b6001600160a01b0316611bfc6112c0565b6001600160a01b031614611c225760405162461bcd60e51b8152600401610a8a9061345b565b601680549115156101000261ff0019909216919091179055565b600062030d40601d5410611c625760405162461bcd60e51b8152600401610a8a9061358c565b5060185490565b6010546001600160a01b031681565b6001600160a01b03918216600090815260056020908152604080832093909416825291909152205460ff1690565b611cae611daa565b6001600160a01b0316611cbf6112c0565b6001600160a01b031614611ce55760405162461bcd60e51b8152600401610a8a9061345b565b6001600160a01b038116611d0b5760405162461bcd60e51b8152600401610a8a906130b0565b611d1481612063565b50565b600062030d40601d5410611d3d5760405162461bcd60e51b8152600401610a8a9061358c565b611d48601854612356565b905090565b60006001600160e01b031982166380ac58cd60e01b1480611d7e57506001600160e01b03198216635b5e139f60e01b145b806109c957506109c982612536565b6000908152600260205260409020546001600160a01b0316151590565b3390565b600081815260046020526040902080546001600160a01b0319166001600160a01b0384169081179091558190611de382610fa9565b6001600160a01b03167f8c5be1e5ebec7d5bd14f71427d1e84f3dd0314c0f7b2291e5b200ac8c7c3b92560405160405180910390a45050565b6000611e2782611d8d565b611e435760405162461bcd60e51b8152600401610a8a90613216565b6000611e4e83610fa9565b9050806001600160a01b0316846001600160a01b03161480611e895750836001600160a01b0316611e7e84610a63565b6001600160a01b0316145b80611bc35750611bc38185611c78565b826001600160a01b0316611eac82610fa9565b6001600160a01b031614611ed25760405162461bcd60e51b8152600401610a8a906130f6565b6001600160a01b038216611ef85760405162461bcd60e51b8152600401610a8a9061319b565b611f0383838361254f565b611f0e600082611dae565b6001600160a01b0383166000908152600360205260408120805460019290611f379084906137cc565b90915550506001600160a01b0382166000908152600360205260408120805460019290611f65908490613781565b909155505060008181526002602052604080822080546001600160a01b0319166001600160a01b0386811691821790925591518493918716917fddf252ad1be2c89b69c2b068fc378daa952ba7f163c4a11628f55a4df523b3ef91a4610b42838383610b42565b80546001019055565b6000805b61201c629896804233611fec601f6125d8565b604051602001611ffe93929190612f7c565b60408051601f198184030181529190528051602090910120906125dc565b60008181526019602052604090205490915060ff1661203a57611d48565b612044601f611fcc565b611fd9565b61108c8282604051806020016040528060008152506125e8565b600a80546001600160a01b038381166001600160a01b0319831681179093556040519116919082907f8be0079c531659141344cd1fd0a4f28419497f9722a3daafe3b4186f6b6457e090600090a35050565b60006120c182846137ad565b9392505050565b60006120c18284613799565b816001600160a01b0316836001600160a01b031614156121065760405162461bcd60e51b8152600401610a8a906131df565b6001600160a01b0383811660008181526005602090815260408083209487168084529490915290819020805460ff1916851515179055517f17307eab39ab6107e8899845ad3d59bd9653f200f220920489ca2b5937696c319061216a908590612ff5565b60405180910390a3505050565b612182848484611e99565b61218e8484848461261b565b6118985760405162461bcd60e51b8152600401610a8a9061305e565b6060601780546109e09061380f565b6060816121de57506040805180820190915260018152600360fc1b60208201526109cc565b8160005b811561220857806121f28161384a565b91506122019050600a83613799565b91506121e2565b60008167ffffffffffffffff81111561223157634e487b7160e01b600052604160045260246000fd5b6040519080825280601f01601f19166020018201604052801561225b576020820181803683370190505b5090505b8415611bc3576122706001836137cc565b915061227d600a86613865565b612288906030613781565b60f81b8183815181106122ab57634e487b7160e01b600052603260045260246000fd5b60200101906001600160f81b031916908160001a9053506122cd600a86613799565b945061225f565b60606122df82611d8d565b6122fb5760405162461bcd60e51b8152600401610a8a906134fc565b60006123056121aa565b9050600081511161232557604051806020016040528060008152506120c1565b8061232f846121b9565b604051602001612340929190612f4a565b6040516020818303038152906040529392505050565b6040805160028082526060820183526000928392919060208301908036833701905050905073cb1e72786a6eb3b44c2a2429e317c8a2462cfeb1816000815181106123b157634e487b7160e01b600052603260045260246000fd5b6001600160a01b03928316602091820292909201810191909152601b54604080516315ab88c960e31b81529051919093169263ad5c4648926004808301939192829003018186803b15801561240557600080fd5b505afa158015612419573d6000803e3d6000fd5b505050506040513d601f19601f8201168201806040525081019061243d9190612b66565b8160018151811061245e57634e487b7160e01b600052603260045260246000fd5b6001600160a01b039283166020918202929092010152601b5460405163d06ca61f60e01b8152600092919091169063d06ca61f906124a290879086906004016136c8565b60006040518083038186803b1580156124ba57600080fd5b505afa1580156124ce573d6000803e3d6000fd5b505050506040513d6000823e601f3d908101601f191682016040526124f69190810190612dfd565b9050806001835161250791906137cc565b8151811061252557634e487b7160e01b600052603260045260246000fd5b602002602001015192505050919050565b6001600160e01b031981166301ffc9a760e01b14919050565b61255a838383610b42565b6001600160a01b0383166125765761257181612736565b612599565b816001600160a01b0316836001600160a01b03161461259957612599838261277a565b6001600160a01b0382166125b5576125b081612817565b610b42565b826001600160a01b0316826001600160a01b031614610b4257610b4282826128f0565b5490565b60006120c18284613865565b6125f28383612934565b6125ff600084848461261b565b610b425760405162461bcd60e51b8152600401610a8a9061305e565b600061262f846001600160a01b0316612a1b565b1561272b57836001600160a01b031663150b7a0261264b611daa565b8786866040518563ffffffff1660e01b815260040161266d9493929190612fb8565b602060405180830381600087803b15801561268757600080fd5b505af19250505080156126b7575060408051601f3d908101601f191682019092526126b491810190612eb7565b60015b612711573d8080156126e5576040519150601f19603f3d011682016040523d82523d6000602084013e6126ea565b606091505b5080516127095760405162461bcd60e51b8152600401610a8a9061305e565b805181602001fd5b6001600160e01b031916630a85bd0160e11b149050611bc3565b506001949350505050565b600880546000838152600960205260408120829055600182018355919091527ff3f7a9fe364faab93b216da50a3214154f22a0a2b415b23a84c8169e8b636ee30155565b600060016127878461117d565b61279191906137cc565b6000838152600760205260409020549091508082146127e4576001600160a01b03841660009081526006602090815260408083208584528252808320548484528184208190558352600790915290208190555b5060009182526007602090815260408084208490556001600160a01b039094168352600681528383209183525290812055565b600854600090612829906001906137cc565b6000838152600960205260408120546008805493945090928490811061285f57634e487b7160e01b600052603260045260246000fd5b90600052602060002001549050806008838154811061288e57634e487b7160e01b600052603260045260246000fd5b60009182526020808320909101929092558281526009909152604080822084905585825281205560088054806128d457634e487b7160e01b600052603160045260246000fd5b6001900381819060005260206000200160009055905550505050565b60006128fb8361117d565b6001600160a01b039093166000908152600660209081526040808320868452825280832085905593825260079052919091209190915550565b6001600160a01b03821661295a5760405162461bcd60e51b8152600401610a8a90613389565b61296381611d8d565b156129805760405162461bcd60e51b8152600401610a8a9061313b565b61298c6000838361254f565b6001600160a01b03821660009081526003602052604081208054600192906129b5908490613781565b909155505060008181526002602052604080822080546001600160a01b0319166001600160a01b03861690811790915590518392907fddf252ad1be2c89b69c2b068fc378daa952ba7f163c4a11628f55a4df523b3ef908290a461108c60008383610b42565b6001600160a01b03163b151590565b828054612a369061380f565b90600052602060002090601f016020900481019282612a585760008555612a9e565b82601f10612a7157805160ff1916838001178555612a9e565b82800160010185558215612a9e579182015b82811115612a9e578251825591602001919060010190612a83565b50612aaa929150612aae565b5090565b5b80821115612aaa5760008155600101612aaf565b600067ffffffffffffffff831115612add57612add6138a5565b612af0601f8401601f191660200161372c565b9050828152838383011115612b0457600080fd5b828260208301376000602084830101529392505050565b803580151581146109cc57600080fd5b600082601f830112612b3b578081fd5b6120c183833560208501612ac3565b600060208284031215612b5b578081fd5b81356120c1816138bb565b600060208284031215612b77578081fd5b81516120c1816138bb565b60008060408385031215612b94578081fd5b8235612b9f816138bb565b91506020830135612baf816138bb565b809150509250929050565b600080600060608486031215612bce578081fd5b8335612bd9816138bb565b92506020840135612be9816138bb565b929592945050506040919091013590565b60008060008060808587031215612c0f578081fd5b8435612c1a816138bb565b93506020850135612c2a816138bb565b925060408501359150606085013567ffffffffffffffff811115612c4c578182fd5b8501601f81018713612c5c578182fd5b612c6b87823560208401612ac3565b91505092959194509250565b60008060408385031215612c89578182fd5b8235612c94816138bb565b9150612ca260208401612b1b565b90509250929050565b60008060408385031215612cbd578182fd5b8235612cc8816138bb565b946020939093013593505050565b60006020808385031215612ce8578182fd5b823567ffffffffffffffff811115612cfe578283fd5b8301601f81018513612d0e578283fd5b8035612d21612d1c8261375d565b61372c565b8181528381019083850185840285018601891015612d3d578687fd5b8694505b83851015612d68578035612d54816138bb565b835260019490940193918501918501612d41565b50979650505050505050565b60006020808385031215612d86578182fd5b823567ffffffffffffffff811115612d9c578283fd5b8301601f81018513612dac578283fd5b8035612dba612d1c8261375d565b81815283810190838501865b84811015612def57612ddd8a888435890101612b2b565b84529286019290860190600101612dc6565b509098975050505050505050565b60006020808385031215612e0f578182fd5b825167ffffffffffffffff811115612e25578283fd5b8301601f81018513612e35578283fd5b8051612e43612d1c8261375d565b8181528381019083850185840285018601891015612e5f578687fd5b8694505b83851015612d68578051835260019490940193918501918501612e63565b600060208284031215612e92578081fd5b6120c182612b1b565b600060208284031215612eac578081fd5b81356120c1816138d0565b600060208284031215612ec8578081fd5b81516120c1816138d0565b600060208284031215612ee4578081fd5b813567ffffffffffffffff811115612efa578182fd5b611bc384828501612b2b565b600060208284031215612f17578081fd5b5035919050565b60008151808452612f368160208601602086016137e3565b601f01601f19169290920160200192915050565b60008351612f5c8184602088016137e3565b835190830190612f708183602088016137e3565b01949350505050565b90565b92835260609190911b6bffffffffffffffffffffffff19166020830152603482015260540190565b6001600160a01b0391909116815260200190565b6001600160a01b0385811682528416602082015260408101839052608060608201819052600090612feb90830184612f1e565b9695505050505050565b901515815260200190565b6000602082526120c16020830184612f1e565b6020808252602b908201527f455243373231456e756d657261626c653a206f776e657220696e646578206f7560408201526a74206f6620626f756e647360a81b606082015260800190565b60208082526032908201527f4552433732313a207472616e7366657220746f206e6f6e20455243373231526560408201527131b2b4bb32b91034b6b83632b6b2b73a32b960711b606082015260800190565b60208082526026908201527f4f776e61626c653a206e6577206f776e657220697320746865207a65726f206160408201526564647265737360d01b606082015260800190565b60208082526025908201527f4552433732313a207472616e736665722066726f6d20696e636f72726563742060408201526437bbb732b960d91b606082015260800190565b6020808252601c908201527f4552433732313a20746f6b656e20616c7265616479206d696e74656400000000604082015260600190565b6020808252600f908201526e4f6e676f696e67204d696e74696e6760881b604082015260600190565b60208082526024908201527f4552433732313a207472616e7366657220746f20746865207a65726f206164646040820152637265737360e01b606082015260800190565b60208082526019908201527f4552433732313a20617070726f766520746f2063616c6c657200000000000000604082015260600190565b6020808252602c908201527f4552433732313a206f70657261746f7220717565727920666f72206e6f6e657860408201526b34b9ba32b73a103a37b5b2b760a11b606082015260800190565b60208082526038908201527f4552433732313a20617070726f76652063616c6c6572206973206e6f74206f7760408201527f6e6572206e6f7220617070726f76656420666f7220616c6c0000000000000000606082015260800190565b6020808252602a908201527f4552433732313a2062616c616e636520717565727920666f7220746865207a65604082015269726f206164647265737360b01b606082015260800190565b60208082526029908201527f4552433732313a206f776e657220717565727920666f72206e6f6e657869737460408201526832b73a103a37b5b2b760b91b606082015260800190565b60208082526019908201527f4578636564656420746865204d696e74696e6720436f756e7400000000000000604082015260600190565b6020808252818101527f4552433732313a206d696e7420746f20746865207a65726f2061646472657373604082015260600190565b60208082526031908201527f45524337323155524953746f726167653a2055524920717565727920666f72206040820152703737b732bc34b9ba32b73a103a37b5b2b760791b606082015260800190565b6020808252602c908201527f4552433732313a20617070726f76656420717565727920666f72206e6f6e657860408201526b34b9ba32b73a103a37b5b2b760a11b606082015260800190565b6020808252818101527f4f776e61626c653a2063616c6c6572206973206e6f7420746865206f776e6572604082015260600190565b6020808252600e908201526d11985a5b1959081c185e5b595b9d60921b604082015260600190565b6020808252600c908201526b5a65726f204164647265737360a01b604082015260600190565b60208082526004908201526302737ba160e51b604082015260600190565b6020808252602f908201527f4552433732314d657461646174613a2055524920717565727920666f72206e6f60408201526e3732bc34b9ba32b73a103a37b5b2b760891b606082015260800190565b60208082526021908201527f4552433732313a20617070726f76616c20746f2063757272656e74206f776e656040820152603960f91b606082015260800190565b60208082526016908201527514d85b19481a185cc8185b1c9958591e48195b99195960521b604082015260600190565b60208082526031908201527f4552433732313a207472616e736665722063616c6c6572206973206e6f74206f6040820152701ddb995c881b9bdc88185c1c1c9bdd9959607a1b606082015260800190565b6020808252602c908201527f455243373231456e756d657261626c653a20676c6f62616c20696e646578206f60408201526b7574206f6620626f756e647360a01b606082015260800190565b6020808252601d908201527f4554482076616c75652073656e74206973206e6f7420636f7272656374000000604082015260600190565b6020808252601590820152745461782063616e2774206265206f7665722031302560581b604082015260600190565b90815260200190565b60006040820184835260206040818501528185518084526060860191508287019350845b818110156137115784516001600160a01b0316835293830193918301916001016136ec565b5090979650505050505050565b918252602082015260400190565b604051601f8201601f1916810167ffffffffffffffff81118282101715613755576137556138a5565b604052919050565b600067ffffffffffffffff821115613777576137776138a5565b5060209081020190565b6000821982111561379457613794613879565b500190565b6000826137a8576137a861388f565b500490565b60008160001904831182151516156137c7576137c7613879565b500290565b6000828210156137de576137de613879565b500390565b60005b838110156137fe5781810151838201526020016137e6565b838111156118985750506000910152565b60028104600182168061382357607f821691505b6020821081141561384457634e487b7160e01b600052602260045260246000fd5b50919050565b600060001982141561385e5761385e613879565b5060010190565b6000826138745761387461388f565b500690565b634e487b7160e01b600052601160045260246000fd5b634e487b7160e01b600052601260045260246000fd5b634e487b7160e01b600052604160045260246000fd5b6001600160a01b0381168114611d1457600080fd5b6001600160e01b031981168114611d1457600080fdfea2646970667358221220016d6c5b6370fb1eead4b28ccce11d4d8aa29c511dcd0c5aafe684ab81cd721464736f6c6343000801003368747470733a2f2f676174657761792e70696e6174612e636c6f75642f697066732f",
  "immutableReferences": {},
  "source": "// SPDX-License-Identifier: MIT\r\n\r\npragma solidity ^0.8.0;\r\n\r\nimport \"@openzeppelin/contracts/token/ERC721/extensions/ERC721Enumerable.sol\";\r\nimport \"@openzeppelin/contracts/access/Ownable.sol\";\r\nimport \"@openzeppelin/contracts/utils/math/SafeMath.sol\";\r\nimport \"@openzeppelin/contracts/utils/Counters.sol\";\r\nimport \"./uniswapv2/interfaces/IUniswapV2Router02.sol\";\r\n\r\ncontract RagnarokProject is ERC721Enumerable, Ownable {\r\n    using Strings for uint256;\r\n    using SafeMath for uint256;\r\n\r\n    uint256 public feeDivisor = 10000;\r\n    uint256 public devFee = 1000;   // 1000: 10%\r\n    uint256 public marketFee = 1000;\r\n    uint256 public otherFee = 1000;\r\n\r\n    address public devWallet = address(0);\r\n    address public marketWallet = address(0);\r\n    address public otherWallet = address(0);\r\n\r\n    bool public publicSale = true;\r\n    mapping(address => bool) whitelist;\r\n\r\n    mapping (uint256 => string) private revealURI;\r\n    string public unrevealURI = \"https://gateway.pinata.cloud/ipfs/\";\r\n    string[] public revealURIs;\r\n    bool public reveal = false;\r\n\r\n    bool public endSale = false;\r\n\r\n    string private _baseURIextended;\r\n    uint256 private _priceextended;  // busd\r\n    mapping (uint256 => bool) registerID;\r\n    mapping (uint256 => uint256) public tokenIds;\r\n\r\n    IUniswapV2Router02 public uniswapV2Router;\r\n\r\n    address public routerAddress = address(0x8954AfA98594b838bda56FE4C12a09D7739D179b);\r\n\r\n    // pancakeswap testnet router address\r\n    // testnet PCS router: 0x9Ac64Cc6e4415144C455BD8E4837Fea55603e5c3\r\n    // mainnet PCS V2 router: 0x10ED43C718714eb63d5aA57B78B54704E256024E\r\n\r\n    // mumbai router:   0x8954AfA98594b838bda56FE4C12a09D7739D179b\r\n    // polygon router:  0xa5E0829CaCEd8fFDD4De3c43696c57F7D7A678ff -- not confirmed\r\n\r\n    address public constant stableToken = address(0xcB1e72786A6eb3b44C2a2429e317c8a2462CFeb1);\r\n    // BUSD mainnet 0xe9e7CEA3DedcA5984780Bafc599bD69ADd087D56\r\n    // BUSD testnet 0x78867BbEeF44f2326bF8DDd1941a4439382EF2A7\r\n\r\n    // DAI mumbai  0xcB1e72786A6eb3b44C2a2429e317c8a2462CFeb1\r\n    // USDT polygon \r\n\r\n    uint256 public tokenMinted = 0;\r\n    uint256 public subMintedCount = 0;\r\n\r\n    using Counters for Counters.Counter;\r\n    Counters.Counter private _tokenIdentifiers;\r\n\r\n    uint256 private constant MAX_TOKENID_NUMBER = 1 * 10 ** 7;\r\n    uint256 public constant MAX_NFT_SUPPLY = 200000;\r\n\r\n    \r\n    /**\r\n     * @dev Emitted when new Token minted.\r\n     */\r\n    event MintNFT(\r\n        uint256 indexed tokenId,\r\n        address indexed minter, \r\n        uint256 tokenCount,\r\n        uint256 tokenPrice\r\n    );\r\n\r\n\r\n    constructor() ERC721(\"World of Ragnarok\", \"WOR\") {\r\n        _baseURIextended = \"https://ipfs.io/ipfs/\";\r\n        _priceextended = 10000000000000000000; // 10 DAI\r\n        // _priceextended = 10000000000000000; // 0.01 MATIC\r\n\r\n        IUniswapV2Router02 _uniswapV2Router = IUniswapV2Router02(routerAddress);\r\n        uniswapV2Router = _uniswapV2Router;\r\n    }\r\n\r\n    function setEndSale(bool _endSale) public onlyOwner {\r\n        endSale = _endSale;\r\n    }\r\n\r\n    function setWhitelist(address _add) public onlyOwner {\r\n        require(_add != address(0), \"Zero Address\");\r\n        whitelist[_add] = true;\r\n    }\r\n\r\n    function setWhitelistAll(address[] memory _adds) public onlyOwner {\r\n        for(uint256 i = 0; i < _adds.length; i++) {\r\n            address tmp = address(_adds[i]);\r\n            whitelist[tmp] = true;\r\n        }\r\n    }\r\n\r\n    function getNFTBalance(address _owner) public view returns (uint256) {\r\n       return ERC721.balanceOf(_owner);\r\n    }\r\n\r\n    function getNFTPrice() public view returns (uint256) {\r\n        require(tokenMinted < MAX_NFT_SUPPLY, \"Sale has already ended\");\r\n        return getAmountsTokenForETH(_priceextended);\r\n        // return _priceextended;\r\n    }\r\n\r\n    function getNFTPriceStable() public view returns (uint256) {\r\n        require(tokenMinted < MAX_NFT_SUPPLY, \"Sale has already ended\");\r\n        return _priceextended;\r\n    }\r\n\r\n    function getAmountsTokenForETH(uint256 busdAmount) internal view returns(uint256) {\r\n\r\n        address[] memory path = new address[](2);\r\n        path[0] = address(stableToken);\r\n        path[1] = uniswapV2Router.WETH();\r\n\r\n        uint256[] memory amountOutMins = uniswapV2Router.getAmountsOut(busdAmount, path);\r\n        return amountOutMins[path.length - 1];\r\n    }\r\n\r\n    function random() internal returns (uint) {\r\n        uint256 ran = 0;\r\n        while(true) {\r\n            ran = uint256(keccak256(abi.encodePacked(block.timestamp, msg.sender, _tokenIdentifiers.current()))).mod(MAX_TOKENID_NUMBER);\r\n            if(registerID[ran] == false)\r\n                break;\r\n            _tokenIdentifiers.increment();\r\n        }\r\n        return ran;        \r\n    }\r\n\r\n    function claimNFT() public onlyOwner {\r\n        require(tokenMinted < MAX_NFT_SUPPLY, \"Sale has already ended\");\r\n\r\n        _tokenIdentifiers.increment();\r\n        uint256 newRECIdentifier = random();\r\n        _safeMint(msg.sender, newRECIdentifier);\r\n        registerID[newRECIdentifier] = true;\r\n        tokenMinted += 1;\r\n        tokenIds[newRECIdentifier] = tokenMinted;\r\n        subMintedCount += 1;\r\n    }\r\n\r\n    function mintNFT(uint256 _cnt) public payable {\r\n        require(tokenMinted < MAX_NFT_SUPPLY, \"Sale has already ended\");\r\n        // slippage 1%\r\n        uint256 minPriceForSale = getNFTPrice().mul(_cnt).mul(99).div(100);\r\n        require(minPriceForSale <= msg.value, \"ETH value sent is not correct\");\r\n\r\n        if(!publicSale) {\r\n            require(whitelist[msg.sender], \"Not \");\r\n            require(_cnt <= 5, \"Exceded the Minting Count\");\r\n        }\r\n\r\n        uint256 devFeePrice = msg.value * devFee /  feeDivisor;\r\n        uint256 marketFeePrice = msg.value * marketFee /  feeDivisor;\r\n        uint256 otherFeePrice = msg.value * otherFee /  feeDivisor;\r\n\r\n        if (marketWallet != address(0) && devFeePrice > 0) {\r\n            (bool sent, ) = payable(marketWallet).call{value: marketFeePrice}(\"\");\r\n            require(sent, \"Failed payment\");\r\n        }\r\n\r\n        if (devWallet != address(0) && devFeePrice > 0) {\r\n            (bool sent, ) = payable(devWallet).call{value: devFeePrice}(\"\");\r\n            require(sent, \"Failed payment\");\r\n        }\r\n\r\n        if (otherWallet != address(0) && devFeePrice > 0) {\r\n            (bool sent, ) = payable(otherWallet).call{value: otherFeePrice}(\"\");\r\n            require(sent, \"Failed payment\");\r\n        }\r\n\r\n        for(uint256 i = 0; i < _cnt; i++) {\r\n            _tokenIdentifiers.increment();\r\n            uint256 newRECIdentifier = random();\r\n\r\n            // price increasing\r\n            if (subMintedCount >= 1000) {\r\n                subMintedCount = 0;\r\n                _priceextended = _priceextended.mul(101).div(100);\r\n            }\r\n\r\n            _safeMint(msg.sender, newRECIdentifier);\r\n            registerID[newRECIdentifier] = true;\r\n            tokenMinted += 1;\r\n            tokenIds[newRECIdentifier] = tokenMinted;\r\n            subMintedCount += 1;\r\n        }\r\n\r\n        emit MintNFT(tokenMinted, _msgSender(), _cnt, _priceextended);\r\n    }\r\n\r\n    function batchURLs(string[] memory _revealURIs) public onlyOwner {\r\n        for(uint i = 0; i < _revealURIs.length; i++) {\r\n            revealURIs.push(_revealURIs[i]);\r\n        }\r\n    }\r\n\r\n    function withdraw() public onlyOwner {\r\n        require(endSale, \"Ongoing Minting\");\r\n        uint balance = address(this).balance;\r\n        address payable ownerAddress = payable(msg.sender);\r\n        ownerAddress.transfer(balance);\r\n    }\r\n\r\n    function tokenURI(uint256 tokenId) public view virtual override returns (string memory) {\r\n        require(_exists(tokenId), \"ERC721URIStorage: URI query for nonexistent token\");\r\n\r\n        string memory _tokenURI;        \r\n        if(reveal) {\r\n            _tokenURI = revealURI[tokenId];\r\n        } else {\r\n            _tokenURI = unrevealURI;\r\n        }\r\n        string memory base = _baseURI();\r\n\r\n        if (bytes(base).length == 0) {\r\n            return _tokenURI;\r\n        }\r\n\r\n        if (bytes(_tokenURI).length > 0) {\r\n            return string(abi.encodePacked(_tokenURI, tokenIds[tokenId].toString()));\r\n        }\r\n\r\n        return super.tokenURI(tokenIds[tokenId]);\r\n    }\r\n\r\n    function _baseURI() internal view virtual override returns (string memory) {\r\n        return _baseURIextended;\r\n    }\r\n\r\n    function setUnrevealURI(string memory _uri) external onlyOwner() {\r\n        unrevealURI = _uri;\r\n    }\r\n\r\n    function _price() public view returns (uint256) {\r\n        return _priceextended;\r\n    }\r\n\r\n    function setPrice(uint256 _priceextended_) external onlyOwner() {\r\n        _priceextended = _priceextended_; // as busd\r\n    }\r\n\r\n    function setMarketWallet(address _addr) external onlyOwner {\r\n        require(_addr != address(0), \"Zero Address\");\r\n        marketWallet = _addr;\r\n    }\r\n\r\n    function setDevWallet(address _addr) external onlyOwner {\r\n        require(_addr != address(0), \"Zero Address\");\r\n        devWallet = _addr;\r\n    }\r\n\r\n    function setOtherWallet(address _addr) external onlyOwner {\r\n        require(_addr != address(0), \"Zero Address\");\r\n        otherWallet = _addr;\r\n    }\r\n\r\n    function setMarketFee(uint256 _newFee) external onlyOwner {\r\n        require(_newFee <= 1000, \"Tax can't be over 10%\");\r\n        marketFee = _newFee;\r\n    }\r\n\r\n    function setDevFee(uint256 _newFee) external onlyOwner {\r\n        require(_newFee <= 1000, \"Tax can't be over 10%\");\r\n        devFee = _newFee;\r\n    }\r\n\r\n    function setOtherFee(uint256 _newFee) external onlyOwner {\r\n        require(_newFee <= 1000, \"Tax can't be over 10%\");\r\n        otherFee = _newFee;\r\n    }\r\n}",
  "sourcePath": "E:\\work\\hiccup\\Ragnarok\\contracts\\Ragnarok.sol",
  "compiler": {
    "name": "solc",
    "version": "0.8.1+commit.df193b15.Emscripten.clang"
  },
  "schemaVersion": "3.4.4",
  "updatedAt": "2022-02-23T08:32:47.650Z",
  "networkType": "ethereum",
  "devdoc": {
    "events": {
      "MintNFT(uint256,address,uint256,uint256)": {
        "details": "Emitted when new Token minted."
      }
    },
    "kind": "dev",
    "methods": {
      "approve(address,uint256)": {
        "details": "See {IERC721-approve}."
      },
      "balanceOf(address)": {
        "details": "See {IERC721-balanceOf}."
      },
      "getApproved(uint256)": {
        "details": "See {IERC721-getApproved}."
      },
      "isApprovedForAll(address,address)": {
        "details": "See {IERC721-isApprovedForAll}."
      },
      "name()": {
        "details": "See {IERC721Metadata-name}."
      },
      "owner()": {
        "details": "Returns the address of the current owner."
      },
      "ownerOf(uint256)": {
        "details": "See {IERC721-ownerOf}."
      },
      "renounceOwnership()": {
        "details": "Leaves the contract without owner. It will not be possible to call `onlyOwner` functions anymore. Can only be called by the current owner. NOTE: Renouncing ownership will leave the contract without an owner, thereby removing any functionality that is only available to the owner."
      },
      "safeTransferFrom(address,address,uint256)": {
        "details": "See {IERC721-safeTransferFrom}."
      },
      "safeTransferFrom(address,address,uint256,bytes)": {
        "details": "See {IERC721-safeTransferFrom}."
      },
      "setApprovalForAll(address,bool)": {
        "details": "See {IERC721-setApprovalForAll}."
      },
      "supportsInterface(bytes4)": {
        "details": "See {IERC165-supportsInterface}."
      },
      "symbol()": {
        "details": "See {IERC721Metadata-symbol}."
      },
      "tokenByIndex(uint256)": {
        "details": "See {IERC721Enumerable-tokenByIndex}."
      },
      "tokenOfOwnerByIndex(address,uint256)": {
        "details": "See {IERC721Enumerable-tokenOfOwnerByIndex}."
      },
      "tokenURI(uint256)": {
        "details": "See {IERC721Metadata-tokenURI}."
      },
      "totalSupply()": {
        "details": "See {IERC721Enumerable-totalSupply}."
      },
      "transferFrom(address,address,uint256)": {
        "details": "See {IERC721-transferFrom}."
      },
      "transferOwnership(address)": {
        "details": "Transfers ownership of the contract to a new account (`newOwner`). Can only be called by the current owner."
      }
    },
    "version": 1
  },
  "userdoc": {
    "kind": "user",
    "methods": {},
    "version": 1
  }
}