{
  "contractName": "RagnarokProject",
  "abi": [
    {
      "inputs": [],
      "stateMutability": "nonpayable",
      "type": "constructor"
    },
    {
      "anonymous": false,
      "inputs": [
        {
          "indexed": true,
          "internalType": "address",
          "name": "owner",
          "type": "address"
        },
        {
          "indexed": true,
          "internalType": "address",
          "name": "approved",
          "type": "address"
        },
        {
          "indexed": true,
          "internalType": "uint256",
          "name": "tokenId",
          "type": "uint256"
        }
      ],
      "name": "Approval",
      "type": "event"
    },
    {
      "anonymous": false,
      "inputs": [
        {
          "indexed": true,
          "internalType": "address",
          "name": "owner",
          "type": "address"
        },
        {
          "indexed": true,
          "internalType": "address",
          "name": "operator",
          "type": "address"
        },
        {
          "indexed": false,
          "internalType": "bool",
          "name": "approved",
          "type": "bool"
        }
      ],
      "name": "ApprovalForAll",
      "type": "event"
    },
    {
      "anonymous": false,
      "inputs": [
        {
          "indexed": true,
          "internalType": "uint256",
          "name": "tokenId",
          "type": "uint256"
        },
        {
          "indexed": true,
          "internalType": "address",
          "name": "minter",
          "type": "address"
        },
        {
          "indexed": false,
          "internalType": "uint256",
          "name": "tokenCount",
          "type": "uint256"
        },
        {
          "indexed": false,
          "internalType": "uint256",
          "name": "tokenPrice",
          "type": "uint256"
        }
      ],
      "name": "MintNFT",
      "type": "event"
    },
    {
      "anonymous": false,
      "inputs": [
        {
          "indexed": true,
          "internalType": "address",
          "name": "previousOwner",
          "type": "address"
        },
        {
          "indexed": true,
          "internalType": "address",
          "name": "newOwner",
          "type": "address"
        }
      ],
      "name": "OwnershipTransferred",
      "type": "event"
    },
    {
      "anonymous": false,
      "inputs": [
        {
          "indexed": true,
          "internalType": "address",
          "name": "from",
          "type": "address"
        },
        {
          "indexed": true,
          "internalType": "address",
          "name": "to",
          "type": "address"
        },
        {
          "indexed": true,
          "internalType": "uint256",
          "name": "tokenId",
          "type": "uint256"
        }
      ],
      "name": "Transfer",
      "type": "event"
    },
    {
      "inputs": [],
      "name": "MAX_NFT_SUPPLY",
      "outputs": [
        {
          "internalType": "uint256",
          "name": "",
          "type": "uint256"
        }
      ],
      "stateMutability": "view",
      "type": "function",
      "constant": true
    },
    {
      "inputs": [
        {
          "internalType": "address",
          "name": "to",
          "type": "address"
        },
        {
          "internalType": "uint256",
          "name": "tokenId",
          "type": "uint256"
        }
      ],
      "name": "approve",
      "outputs": [],
      "stateMutability": "nonpayable",
      "type": "function"
    },
    {
      "inputs": [
        {
          "internalType": "address",
          "name": "owner",
          "type": "address"
        }
      ],
      "name": "balanceOf",
      "outputs": [
        {
          "internalType": "uint256",
          "name": "",
          "type": "uint256"
        }
      ],
      "stateMutability": "view",
      "type": "function",
      "constant": true
    },
    {
      "inputs": [],
      "name": "devFee",
      "outputs": [
        {
          "internalType": "uint256",
          "name": "",
          "type": "uint256"
        }
      ],
      "stateMutability": "view",
      "type": "function",
      "constant": true
    },
    {
      "inputs": [],
      "name": "devWallet",
      "outputs": [
        {
          "internalType": "address",
          "name": "",
          "type": "address"
        }
      ],
      "stateMutability": "view",
      "type": "function",
      "constant": true
    },
    {
      "inputs": [],
      "name": "endSale",
      "outputs": [
        {
          "internalType": "bool",
          "name": "",
          "type": "bool"
        }
      ],
      "stateMutability": "view",
      "type": "function",
      "constant": true
    },
    {
      "inputs": [],
      "name": "feeDivisor",
      "outputs": [
        {
          "internalType": "uint256",
          "name": "",
          "type": "uint256"
        }
      ],
      "stateMutability": "view",
      "type": "function",
      "constant": true
    },
    {
      "inputs": [
        {
          "internalType": "uint256",
          "name": "tokenId",
          "type": "uint256"
        }
      ],
      "name": "getApproved",
      "outputs": [
        {
          "internalType": "address",
          "name": "",
          "type": "address"
        }
      ],
      "stateMutability": "view",
      "type": "function",
      "constant": true
    },
    {
      "inputs": [
        {
          "internalType": "address",
          "name": "owner",
          "type": "address"
        },
        {
          "internalType": "address",
          "name": "operator",
          "type": "address"
        }
      ],
      "name": "isApprovedForAll",
      "outputs": [
        {
          "internalType": "bool",
          "name": "",
          "type": "bool"
        }
      ],
      "stateMutability": "view",
      "type": "function",
      "constant": true
    },
    {
      "inputs": [],
      "name": "marketFee",
      "outputs": [
        {
          "internalType": "uint256",
          "name": "",
          "type": "uint256"
        }
      ],
      "stateMutability": "view",
      "type": "function",
      "constant": true
    },
    {
      "inputs": [],
      "name": "marketWallet",
      "outputs": [
        {
          "internalType": "address",
          "name": "",
          "type": "address"
        }
      ],
      "stateMutability": "view",
      "type": "function",
      "constant": true
    },
    {
      "inputs": [],
      "name": "name",
      "outputs": [
        {
          "internalType": "string",
          "name": "",
          "type": "string"
        }
      ],
      "stateMutability": "view",
      "type": "function",
      "constant": true
    },
    {
      "inputs": [],
      "name": "otherFee",
      "outputs": [
        {
          "internalType": "uint256",
          "name": "",
          "type": "uint256"
        }
      ],
      "stateMutability": "view",
      "type": "function",
      "constant": true
    },
    {
      "inputs": [],
      "name": "otherWallet",
      "outputs": [
        {
          "internalType": "address",
          "name": "",
          "type": "address"
        }
      ],
      "stateMutability": "view",
      "type": "function",
      "constant": true
    },
    {
      "inputs": [],
      "name": "owner",
      "outputs": [
        {
          "internalType": "address",
          "name": "",
          "type": "address"
        }
      ],
      "stateMutability": "view",
      "type": "function",
      "constant": true
    },
    {
      "inputs": [
        {
          "internalType": "uint256",
          "name": "tokenId",
          "type": "uint256"
        }
      ],
      "name": "ownerOf",
      "outputs": [
        {
          "internalType": "address",
          "name": "",
          "type": "address"
        }
      ],
      "stateMutability": "view",
      "type": "function",
      "constant": true
    },
    {
      "inputs": [],
      "name": "publicSale",
      "outputs": [
        {
          "internalType": "bool",
          "name": "",
          "type": "bool"
        }
      ],
      "stateMutability": "view",
      "type": "function",
      "constant": true
    },
    {
      "inputs": [],
      "name": "renounceOwnership",
      "outputs": [],
      "stateMutability": "nonpayable",
      "type": "function"
    },
    {
      "inputs": [],
      "name": "reveal",
      "outputs": [
        {
          "internalType": "bool",
          "name": "",
          "type": "bool"
        }
      ],
      "stateMutability": "view",
      "type": "function",
      "constant": true
    },
    {
      "inputs": [
        {
          "internalType": "uint256",
          "name": "",
          "type": "uint256"
        }
      ],
      "name": "revealURIs",
      "outputs": [
        {
          "internalType": "string",
          "name": "",
          "type": "string"
        }
      ],
      "stateMutability": "view",
      "type": "function",
      "constant": true
    },
    {
      "inputs": [
        {
          "internalType": "address",
          "name": "from",
          "type": "address"
        },
        {
          "internalType": "address",
          "name": "to",
          "type": "address"
        },
        {
          "internalType": "uint256",
          "name": "tokenId",
          "type": "uint256"
        }
      ],
      "name": "safeTransferFrom",
      "outputs": [],
      "stateMutability": "nonpayable",
      "type": "function"
    },
    {
      "inputs": [
        {
          "internalType": "address",
          "name": "from",
          "type": "address"
        },
        {
          "internalType": "address",
          "name": "to",
          "type": "address"
        },
        {
          "internalType": "uint256",
          "name": "tokenId",
          "type": "uint256"
        },
        {
          "internalType": "bytes",
          "name": "_data",
          "type": "bytes"
        }
      ],
      "name": "safeTransferFrom",
      "outputs": [],
      "stateMutability": "nonpayable",
      "type": "function"
    },
    {
      "inputs": [
        {
          "internalType": "address",
          "name": "operator",
          "type": "address"
        },
        {
          "internalType": "bool",
          "name": "approved",
          "type": "bool"
        }
      ],
      "name": "setApprovalForAll",
      "outputs": [],
      "stateMutability": "nonpayable",
      "type": "function"
    },
    {
      "inputs": [],
      "name": "subMintedCount",
      "outputs": [
        {
          "internalType": "uint256",
          "name": "",
          "type": "uint256"
        }
      ],
      "stateMutability": "view",
      "type": "function",
      "constant": true
    },
    {
      "inputs": [
        {
          "internalType": "bytes4",
          "name": "interfaceId",
          "type": "bytes4"
        }
      ],
      "name": "supportsInterface",
      "outputs": [
        {
          "internalType": "bool",
          "name": "",
          "type": "bool"
        }
      ],
      "stateMutability": "view",
      "type": "function",
      "constant": true
    },
    {
      "inputs": [],
      "name": "symbol",
      "outputs": [
        {
          "internalType": "string",
          "name": "",
          "type": "string"
        }
      ],
      "stateMutability": "view",
      "type": "function",
      "constant": true
    },
    {
      "inputs": [
        {
          "internalType": "uint256",
          "name": "index",
          "type": "uint256"
        }
      ],
      "name": "tokenByIndex",
      "outputs": [
        {
          "internalType": "uint256",
          "name": "",
          "type": "uint256"
        }
      ],
      "stateMutability": "view",
      "type": "function",
      "constant": true
    },
    {
      "inputs": [],
      "name": "tokenMinted",
      "outputs": [
        {
          "internalType": "uint256",
          "name": "",
          "type": "uint256"
        }
      ],
      "stateMutability": "view",
      "type": "function",
      "constant": true
    },
    {
      "inputs": [
        {
          "internalType": "address",
          "name": "owner",
          "type": "address"
        },
        {
          "internalType": "uint256",
          "name": "index",
          "type": "uint256"
        }
      ],
      "name": "tokenOfOwnerByIndex",
      "outputs": [
        {
          "internalType": "uint256",
          "name": "",
          "type": "uint256"
        }
      ],
      "stateMutability": "view",
      "type": "function",
      "constant": true
    },
    {
      "inputs": [],
      "name": "totalSupply",
      "outputs": [
        {
          "internalType": "uint256",
          "name": "",
          "type": "uint256"
        }
      ],
      "stateMutability": "view",
      "type": "function",
      "constant": true
    },
    {
      "inputs": [
        {
          "internalType": "address",
          "name": "from",
          "type": "address"
        },
        {
          "internalType": "address",
          "name": "to",
          "type": "address"
        },
        {
          "internalType": "uint256",
          "name": "tokenId",
          "type": "uint256"
        }
      ],
      "name": "transferFrom",
      "outputs": [],
      "stateMutability": "nonpayable",
      "type": "function"
    },
    {
      "inputs": [
        {
          "internalType": "address",
          "name": "newOwner",
          "type": "address"
        }
      ],
      "name": "transferOwnership",
      "outputs": [],
      "stateMutability": "nonpayable",
      "type": "function"
    },
    {
      "inputs": [],
      "name": "unrevealURI",
      "outputs": [
        {
          "internalType": "string",
          "name": "",
          "type": "string"
        }
      ],
      "stateMutability": "view",
      "type": "function",
      "constant": true
    },
    {
      "inputs": [
        {
          "internalType": "bool",
          "name": "_endSale",
          "type": "bool"
        }
      ],
      "name": "setEndSale",
      "outputs": [],
      "stateMutability": "nonpayable",
      "type": "function"
    },
    {
      "inputs": [
        {
          "internalType": "address",
          "name": "_add",
          "type": "address"
        }
      ],
      "name": "setWhitelist",
      "outputs": [],
      "stateMutability": "nonpayable",
      "type": "function"
    },
    {
      "inputs": [
        {
          "internalType": "address[]",
          "name": "_adds",
          "type": "address[]"
        }
      ],
      "name": "setWhitelistAll",
      "outputs": [],
      "stateMutability": "nonpayable",
      "type": "function"
    },
    {
      "inputs": [
        {
          "internalType": "address",
          "name": "_owner",
          "type": "address"
        }
      ],
      "name": "getNFTBalance",
      "outputs": [
        {
          "internalType": "uint256",
          "name": "",
          "type": "uint256"
        }
      ],
      "stateMutability": "view",
      "type": "function",
      "constant": true
    },
    {
      "inputs": [],
      "name": "getNFTPrice",
      "outputs": [
        {
          "internalType": "uint256",
          "name": "",
          "type": "uint256"
        }
      ],
      "stateMutability": "view",
      "type": "function",
      "constant": true
    },
    {
      "inputs": [],
      "name": "claimNFT",
      "outputs": [],
      "stateMutability": "nonpayable",
      "type": "function"
    },
    {
      "inputs": [
        {
          "internalType": "uint256",
          "name": "_cnt",
          "type": "uint256"
        }
      ],
      "name": "mintNFT",
      "outputs": [],
      "stateMutability": "payable",
      "type": "function",
      "payable": true
    },
    {
      "inputs": [
        {
          "internalType": "string[]",
          "name": "_revealURIs",
          "type": "string[]"
        }
      ],
      "name": "batchURLs",
      "outputs": [],
      "stateMutability": "nonpayable",
      "type": "function"
    },
    {
      "inputs": [],
      "name": "withdraw",
      "outputs": [],
      "stateMutability": "nonpayable",
      "type": "function"
    },
    {
      "inputs": [
        {
          "internalType": "uint256",
          "name": "tokenId",
          "type": "uint256"
        }
      ],
      "name": "tokenURI",
      "outputs": [
        {
          "internalType": "string",
          "name": "",
          "type": "string"
        }
      ],
      "stateMutability": "view",
      "type": "function",
      "constant": true
    },
    {
      "inputs": [
        {
          "internalType": "string",
          "name": "_uri",
          "type": "string"
        }
      ],
      "name": "setUnrevealURI",
      "outputs": [],
      "stateMutability": "nonpayable",
      "type": "function"
    },
    {
      "inputs": [],
      "name": "_price",
      "outputs": [
        {
          "internalType": "uint256",
          "name": "",
          "type": "uint256"
        }
      ],
      "stateMutability": "view",
      "type": "function",
      "constant": true
    },
    {
      "inputs": [
        {
          "internalType": "uint256",
          "name": "_priceextended_",
          "type": "uint256"
        }
      ],
      "name": "setPrice",
      "outputs": [],
      "stateMutability": "nonpayable",
      "type": "function"
    },
    {
      "inputs": [
        {
          "internalType": "address",
          "name": "_addr",
          "type": "address"
        }
      ],
      "name": "setMarketWallet",
      "outputs": [],
      "stateMutability": "nonpayable",
      "type": "function"
    },
    {
      "inputs": [
        {
          "internalType": "address",
          "name": "_addr",
          "type": "address"
        }
      ],
      "name": "setDevWallet",
      "outputs": [],
      "stateMutability": "nonpayable",
      "type": "function"
    },
    {
      "inputs": [
        {
          "internalType": "address",
          "name": "_addr",
          "type": "address"
        }
      ],
      "name": "setOtherWallet",
      "outputs": [],
      "stateMutability": "nonpayable",
      "type": "function"
    },
    {
      "inputs": [
        {
          "internalType": "uint256",
          "name": "_newFee",
          "type": "uint256"
        }
      ],
      "name": "setMarketFee",
      "outputs": [],
      "stateMutability": "nonpayable",
      "type": "function"
    },
    {
      "inputs": [
        {
          "internalType": "uint256",
          "name": "_newFee",
          "type": "uint256"
        }
      ],
      "name": "setDevFee",
      "outputs": [],
      "stateMutability": "nonpayable",
      "type": "function"
    },
    {
      "inputs": [
        {
          "internalType": "uint256",
          "name": "_newFee",
          "type": "uint256"
        }
      ],
      "name": "setOtherFee",
      "outputs": [],
      "stateMutability": "nonpayable",
      "type": "function"
    }
  ],
  "bytecode": "0x612710600b556103e8600c819055600d819055600e55600f80546001600160a01b0319908116909155601080549091169055601180546001600160a81b031916600160a01b17905560e060405260226080818152906200371260a03980516200007191601491602090910190620001ce565b506016805461ffff191690556000601a819055601b553480156200009457600080fd5b50604080518082018252601081526f149859db985c9bdac8141c9bda9958dd60821b6020808301918252835180850190945260088452675261676e61726f6b60c01b908401528151919291620000ed91600091620001ce565b50805162000103906001906020840190620001ce565b505050620001206200011a6200017860201b60201c565b6200017c565b6040805180820190915260158082527f68747470733a2f2f697066732e696f2f697066732f000000000000000000000060209092019182526200016691601791620001ce565b5066038d7ea4c68000601855620002b1565b3390565b600a80546001600160a01b038381166001600160a01b0319831681179093556040519116919082907f8be0079c531659141344cd1fd0a4f28419497f9722a3daafe3b4186f6b6457e090600090a35050565b828054620001dc9062000274565b90600052602060002090601f0160209004810192826200020057600085556200024b565b82601f106200021b57805160ff19168380011785556200024b565b828001600101855582156200024b579182015b828111156200024b5782518255916020019190600101906200022e565b50620002599291506200025d565b5090565b5b808211156200025957600081556001016200025e565b6002810460018216806200028957607f821691505b60208210811415620002ab57634e487b7160e01b600052602260045260246000fd5b50919050565b61345180620002c16000396000f3fe6080604052600436106102ff5760003560e01c8063715018a611610190578063aeb0bc79116100dc578063c87b56dd11610095578063e4440a861161006f578063e4440a861461084f578063e985e9c514610864578063f2fde38b14610884578063fb107a4f146108a4576102ff565b8063c87b56dd146107fa578063d5f517171461081a578063dee6dd411461082f576102ff565b8063aeb0bc7914610745578063b5077f4414610765578063b88d4fde1461077a578063b9f236a61461079a578063bf8ebd85146107ba578063c04508de146107da576102ff565b8063926427441161014957806397bc411c1161012357806397bc411c146106db5780639a36f932146106fb578063a22cb46514610710578063a475b5dd14610730576102ff565b8063926427441461069e57806395d89b41146106b157806396356355146106c6576102ff565b8063715018a6146105ff5780638256b44814610614578063854cff2f146106345780638da5cb5b146106545780638ea5220f1461066957806391b7f5ed1461067e576102ff565b80632f745c591161024f5780634f6ccce711610208578063650db3ac116101e2578063650db3ac14610595578063672756ad146105b55780636827e764146105ca57806370a08231146105df576102ff565b80634f6ccce71461053557806354332266146105555780636352211e14610575576102ff565b80632f745c59146104a157806333bc1c5c146104c1578063343ab216146104d6578063380d831b146104eb5780633ccfd60b1461050057806342842e0e14610515576102ff565b806318160ddd116102bc5780632126ea81116102965780632126ea8114610437578063235b6ea11461044c57806323b872dd1461046157806326b825d214610481576102ff565b806318160ddd146103e25780631c75b6b2146103f75780631f53ac0214610417576102ff565b806301ffc9a71461030457806306fdde031461033a578063081812fc1461035c578063095ea7b3146103895780630ccf2156146103ab5780630d36f564146103cd575b600080fd5b34801561031057600080fd5b5061032461031f366004612a19565b6108b9565b6040516103319190612b95565b60405180910390f35b34801561034657600080fd5b5061034f6108e6565b6040516103319190612ba0565b34801561036857600080fd5b5061037c610377366004612a84565b610978565b6040516103319190612b44565b34801561039557600080fd5b506103a96103a43660046128b1565b6109c4565b005b3480156103b757600080fd5b506103c0610a5c565b604051610331919061325f565b3480156103d957600080fd5b5061037c610a62565b3480156103ee57600080fd5b506103c0610a71565b34801561040357600080fd5b506103a9610412366004612a84565b610a77565b34801561042357600080fd5b506103a9610432366004612788565b610add565b34801561044357600080fd5b5061034f610b64565b34801561045857600080fd5b506103c0610bf2565b34801561046d57600080fd5b506103a961047c3660046127d4565b610bf8565b34801561048d57600080fd5b506103a961049c366004612a84565b610c30565b3480156104ad57600080fd5b506103c06104bc3660046128b1565b610c96565b3480156104cd57600080fd5b50610324610ce8565b3480156104e257600080fd5b506103c0610cf8565b3480156104f757600080fd5b50610324610cfe565b34801561050c57600080fd5b506103a9610d0c565b34801561052157600080fd5b506103a96105303660046127d4565b610da3565b34801561054157600080fd5b506103c0610550366004612a84565b610dbe565b34801561056157600080fd5b506103a9610570366004612788565b610e19565b34801561058157600080fd5b5061037c610590366004612a84565b610ea0565b3480156105a157600080fd5b506103a96105b03660046128da565b610ed5565b3480156105c157600080fd5b506103a9610f87565b3480156105d657600080fd5b506103c0611021565b3480156105eb57600080fd5b506103c06105fa366004612788565b611027565b34801561060b57600080fd5b506103a961106b565b34801561062057600080fd5b5061034f61062f366004612a84565b6110b6565b34801561064057600080fd5b506103a961064f366004612788565b6110e1565b34801561066057600080fd5b5061037c61116a565b34801561067557600080fd5b5061037c611179565b34801561068a57600080fd5b506103a9610699366004612a84565b611188565b6103a96106ac366004612a84565b6111cc565b3480156106bd57600080fd5b5061034f6115d9565b3480156106d257600080fd5b506103c06115e8565b3480156106e757600080fd5b506103a96106f6366004612a51565b6115ee565b34801561070757600080fd5b506103c0611640565b34801561071c57600080fd5b506103a961072b366004612888565b611646565b34801561073c57600080fd5b50610324611658565b34801561075157600080fd5b506103a9610760366004612a84565b611661565b34801561077157600080fd5b506103c06116c7565b34801561078657600080fd5b506103a961079536600461280f565b6116ce565b3480156107a657600080fd5b506103a96107b5366004612976565b61170d565b3480156107c657600080fd5b506103c06107d5366004612788565b6117bf565b3480156107e657600080fd5b506103a96107f5366004612788565b6117ca565b34801561080657600080fd5b5061034f610815366004612a84565b611851565b34801561082657600080fd5b506103c0611a13565b34801561083b57600080fd5b506103a961084a3660046129ff565b611a19565b34801561085b57600080fd5b5061037c611a72565b34801561087057600080fd5b5061032461087f3660046127a2565b611a81565b34801561089057600080fd5b506103a961089f366004612788565b611aaf565b3480156108b057600080fd5b506103c0611b20565b60006001600160e01b0319821663780e9d6360e01b14806108de57506108de82611b4d565b90505b919050565b6060600080546108f590613359565b80601f016020809104026020016040519081016040528092919081815260200182805461092190613359565b801561096e5780601f106109435761010080835404028352916020019161096e565b820191906000526020600020905b81548152906001019060200180831161095157829003601f168201915b5050505050905090565b600061098382611b8d565b6109a85760405162461bcd60e51b815260040161099f90612faf565b60405180910390fd5b506000908152600460205260409020546001600160a01b031690565b60006109cf82610ea0565b9050806001600160a01b0316836001600160a01b03161415610a035760405162461bcd60e51b815260040161099f906130eb565b806001600160a01b0316610a15611baa565b6001600160a01b03161480610a315750610a318161087f611baa565b610a4d5760405162461bcd60e51b815260040161099f90612e02565b610a578383611bae565b505050565b600d5481565b6011546001600160a01b031681565b60085490565b610a7f611baa565b6001600160a01b0316610a9061116a565b6001600160a01b031614610ab65760405162461bcd60e51b815260040161099f90612ffb565b6103e8811115610ad85760405162461bcd60e51b815260040161099f90613230565b600c55565b610ae5611baa565b6001600160a01b0316610af661116a565b6001600160a01b031614610b1c5760405162461bcd60e51b815260040161099f90612ffb565b6001600160a01b038116610b425760405162461bcd60e51b815260040161099f90613058565b600f80546001600160a01b0319166001600160a01b0392909216919091179055565b60148054610b7190613359565b80601f0160208091040260200160405190810160405280929190818152602001828054610b9d90613359565b8015610bea5780601f10610bbf57610100808354040283529160200191610bea565b820191906000526020600020905b815481529060010190602001808311610bcd57829003601f168201915b505050505081565b60185490565b610c09610c03611baa565b82611c1c565b610c255760405162461bcd60e51b815260040161099f9061315c565b610a57838383611c99565b610c38611baa565b6001600160a01b0316610c4961116a565b6001600160a01b031614610c6f5760405162461bcd60e51b815260040161099f90612ffb565b6103e8811115610c915760405162461bcd60e51b815260040161099f90613230565b600d55565b6000610ca183611027565b8210610cbf5760405162461bcd60e51b815260040161099f90612bb3565b506001600160a01b03919091166000908152600660209081526040808320938352929052205490565b601154600160a01b900460ff1681565b600e5481565b601654610100900460ff1681565b610d14611baa565b6001600160a01b0316610d2561116a565b6001600160a01b031614610d4b5760405162461bcd60e51b815260040161099f90612ffb565b601654610100900460ff16610d725760405162461bcd60e51b815260040161099f90612d12565b60405147903390819083156108fc029084906000818181858888f19350505050158015610a57573d6000803e3d6000fd5b610a57838383604051806020016040528060008152506116ce565b6000610dc8610a71565b8210610de65760405162461bcd60e51b815260040161099f906131ad565b60088281548110610e0757634e487b7160e01b600052603260045260246000fd5b90600052602060002001549050919050565b610e21611baa565b6001600160a01b0316610e3261116a565b6001600160a01b031614610e585760405162461bcd60e51b815260040161099f90612ffb565b6001600160a01b038116610e7e5760405162461bcd60e51b815260040161099f90613058565b601080546001600160a01b0319166001600160a01b0392909216919091179055565b6000818152600260205260408120546001600160a01b0316806108de5760405162461bcd60e51b815260040161099f90612ea9565b610edd611baa565b6001600160a01b0316610eee61116a565b6001600160a01b031614610f145760405162461bcd60e51b815260040161099f90612ffb565b60005b8151811015610f83576000828281518110610f4257634e487b7160e01b600052603260045260246000fd5b6020908102919091018101516001600160a01b03166000908152601290915260409020805460ff191660011790555080610f7b81613394565b915050610f17565b5050565b610f8f611baa565b6001600160a01b0316610fa061116a565b6001600160a01b031614610fc65760405162461bcd60e51b815260040161099f90612ffb565b62030d40601a5410610fea5760405162461bcd60e51b815260040161099f9061312c565b610ff4601c611dcc565b61100733611002601c611dd5565b611dd9565b6001601a600082825461101a91906132cb565b9091555050565b600c5481565b60006001600160a01b03821661104f5760405162461bcd60e51b815260040161099f90612e5f565b506001600160a01b031660009081526003602052604090205490565b611073611baa565b6001600160a01b031661108461116a565b6001600160a01b0316146110aa5760405162461bcd60e51b815260040161099f90612ffb565b6110b46000611df3565b565b601581815481106110c657600080fd5b906000526020600020016000915090508054610b7190613359565b6110e9611baa565b6001600160a01b03166110fa61116a565b6001600160a01b0316146111205760405162461bcd60e51b815260040161099f90612ffb565b6001600160a01b0381166111465760405162461bcd60e51b815260040161099f90613058565b6001600160a01b03166000908152601260205260409020805460ff19166001179055565b600a546001600160a01b031690565b600f546001600160a01b031681565b611190611baa565b6001600160a01b03166111a161116a565b6001600160a01b0316146111c75760405162461bcd60e51b815260040161099f90612ffb565b601855565b62030d40601a54106111f05760405162461bcd60e51b815260040161099f9061312c565b34611203826111fd611b20565b90611e45565b11156112215760405162461bcd60e51b815260040161099f906131f9565b601154600160a01b900460ff16611282573360009081526012602052604090205460ff166112615760405162461bcd60e51b815260040161099f9061307e565b60058111156112825760405162461bcd60e51b815260040161099f90612ef2565b6000600b54600c543461129591906132f7565b61129f91906132e3565b90506000600b54600d54346112b491906132f7565b6112be91906132e3565b90506000600b54600e54346112d391906132f7565b6112dd91906132e3565b6010549091506001600160a01b0316158015906112fa5750600083115b15611382576010546040516000916001600160a01b031690849061131d90612b19565b60006040518083038185875af1925050503d806000811461135a576040519150601f19603f3d011682016040523d82523d6000602084013e61135f565b606091505b50509050806113805760405162461bcd60e51b815260040161099f90613030565b505b600f546001600160a01b03161580159061139c5750600083115b1561142457600f546040516000916001600160a01b03169085906113bf90612b19565b60006040518083038185875af1925050503d80600081146113fc576040519150601f19603f3d011682016040523d82523d6000602084013e611401565b606091505b50509050806114225760405162461bcd60e51b815260040161099f90613030565b505b6011546001600160a01b03161580159061143e5750600083115b156114c6576011546040516000916001600160a01b031690839061146190612b19565b60006040518083038185875af1925050503d806000811461149e576040519150601f19603f3d011682016040523d82523d6000602084013e6114a3565b606091505b50509050806114c45760405162461bcd60e51b815260040161099f90613030565b505b60005b84811015611583576114db601c611dcc565b60006114e5611e58565b90506103e8601b5410611516576000601b556018546115129060649061150c906065611e45565b90611ed3565b6018555b6115203382611dd9565b6000818152601960205260408120805460ff19166001908117909155601a80549192909161154f9084906132cb565b925050819055506001601b600082825461156991906132cb565b9091555082915061157b905081613394565b9150506114c9565b5061158c611baa565b6001600160a01b0316601a547fa8df055256606ba5aac9eb70062e4896d61ca7e3a678b0e783be2a1c18cdc0e6866018546040516115cb929190613268565b60405180910390a350505050565b6060600180546108f590613359565b601a5481565b6115f6611baa565b6001600160a01b031661160761116a565b6001600160a01b03161461162d5760405162461bcd60e51b815260040161099f90612ffb565b8051610f83906014906020840190612651565b600b5481565b610f83611651611baa565b8383611edf565b60165460ff1681565b611669611baa565b6001600160a01b031661167a61116a565b6001600160a01b0316146116a05760405162461bcd60e51b815260040161099f90612ffb565b6103e88111156116c25760405162461bcd60e51b815260040161099f90613230565b600e55565b62030d4081565b6116df6116d9611baa565b83611c1c565b6116fb5760405162461bcd60e51b815260040161099f9061315c565b61170784848484611f82565b50505050565b611715611baa565b6001600160a01b031661172661116a565b6001600160a01b03161461174c5760405162461bcd60e51b815260040161099f90612ffb565b60005b8151811015610f8357601582828151811061177a57634e487b7160e01b600052603260045260246000fd5b602090810291909101810151825460018101845560009384529282902081516117ac9491909101929190910190612651565b50806117b781613394565b91505061174f565b60006108de82611027565b6117d2611baa565b6001600160a01b03166117e361116a565b6001600160a01b0316146118095760405162461bcd60e51b815260040161099f90612ffb565b6001600160a01b03811661182f5760405162461bcd60e51b815260040161099f90613058565b601180546001600160a01b0319166001600160a01b0392909216919091179055565b606061185c82611b8d565b6118785760405162461bcd60e51b815260040161099f90612f5e565b60165460609060ff1615611924576000838152601360205260409020805461189f90613359565b80601f01602080910402602001604051908101604052809291908181526020018280546118cb90613359565b80156119185780601f106118ed57610100808354040283529160200191611918565b820191906000526020600020905b8154815290600101906020018083116118fb57829003601f168201915b505050505090506119b2565b6014805461193190613359565b80601f016020809104026020016040519081016040528092919081815260200182805461195d90613359565b80156119aa5780601f1061197f576101008083540402835291602001916119aa565b820191906000526020600020905b81548152906001019060200180831161198d57829003601f168201915b505050505090505b60006119bc611fb5565b90508051600014156119d0575090506108e1565b815115611a025781846040516020016119ea929190612af7565b604051602081830303815290604052925050506108e1565b611a0b84611fc4565b949350505050565b601b5481565b611a21611baa565b6001600160a01b0316611a3261116a565b6001600160a01b031614611a585760405162461bcd60e51b815260040161099f90612ffb565b601680549115156101000261ff0019909216919091179055565b6010546001600160a01b031681565b6001600160a01b03918216600090815260056020908152604080832093909416825291909152205460ff1690565b611ab7611baa565b6001600160a01b0316611ac861116a565b6001600160a01b031614611aee5760405162461bcd60e51b815260040161099f90612ffb565b6001600160a01b038116611b145760405162461bcd60e51b815260040161099f90612c50565b611b1d81611df3565b50565b600062030d40601a5410611b465760405162461bcd60e51b815260040161099f9061312c565b5060185490565b60006001600160e01b031982166380ac58cd60e01b1480611b7e57506001600160e01b03198216635b5e139f60e01b145b806108de57506108de82612046565b6000908152600260205260409020546001600160a01b0316151590565b3390565b600081815260046020526040902080546001600160a01b0319166001600160a01b0384169081179091558190611be382610ea0565b6001600160a01b03167f8c5be1e5ebec7d5bd14f71427d1e84f3dd0314c0f7b2291e5b200ac8c7c3b92560405160405180910390a45050565b6000611c2782611b8d565b611c435760405162461bcd60e51b815260040161099f90612db6565b6000611c4e83610ea0565b9050806001600160a01b0316846001600160a01b03161480611c895750836001600160a01b0316611c7e84610978565b6001600160a01b0316145b80611a0b5750611a0b8185611a81565b826001600160a01b0316611cac82610ea0565b6001600160a01b031614611cd25760405162461bcd60e51b815260040161099f90612c96565b6001600160a01b038216611cf85760405162461bcd60e51b815260040161099f90612d3b565b611d0383838361205f565b611d0e600082611bae565b6001600160a01b0383166000908152600360205260408120805460019290611d37908490613316565b90915550506001600160a01b0382166000908152600360205260408120805460019290611d659084906132cb565b909155505060008181526002602052604080822080546001600160a01b0319166001600160a01b0386811691821790925591518493918716917fddf252ad1be2c89b69c2b068fc378daa952ba7f163c4a11628f55a4df523b3ef91a4610a57838383610a57565b80546001019055565b5490565b610f838282604051806020016040528060008152506120e8565b600a80546001600160a01b038381166001600160a01b0319831681179093556040519116919082907f8be0079c531659141344cd1fd0a4f28419497f9722a3daafe3b4186f6b6457e090600090a35050565b6000611e5182846132f7565b9392505050565b6000805b611ea16402540be4004233611e71601c611dd5565b604051602001611e8393929190612b1c565b60408051601f1981840301815291905280516020909101209061211b565b60008181526019602052604090205490915060ff16611ebf57611ece565b611ec9601c611dcc565b611e5c565b905090565b6000611e5182846132e3565b816001600160a01b0316836001600160a01b03161415611f115760405162461bcd60e51b815260040161099f90612d7f565b6001600160a01b0383811660008181526005602090815260408083209487168084529490915290819020805460ff1916851515179055517f17307eab39ab6107e8899845ad3d59bd9653f200f220920489ca2b5937696c3190611f75908590612b95565b60405180910390a3505050565b611f8d848484611c99565b611f9984848484612127565b6117075760405162461bcd60e51b815260040161099f90612bfe565b6060601780546108f590613359565b6060611fcf82611b8d565b611feb5760405162461bcd60e51b815260040161099f9061309c565b6000611ff5611fb5565b905060008151116120155760405180602001604052806000815250611e51565b8061201f84612242565b604051602001612030929190612ac8565b6040516020818303038152906040529392505050565b6001600160e01b031981166301ffc9a760e01b14919050565b61206a838383610a57565b6001600160a01b038316612086576120818161235d565b6120a9565b816001600160a01b0316836001600160a01b0316146120a9576120a983826123a1565b6001600160a01b0382166120c5576120c08161243e565b610a57565b826001600160a01b0316826001600160a01b031614610a5757610a578282612517565b6120f2838361255b565b6120ff6000848484612127565b610a575760405162461bcd60e51b815260040161099f90612bfe565b6000611e5182846133af565b600061213b846001600160a01b0316612642565b1561223757836001600160a01b031663150b7a02612157611baa565b8786866040518563ffffffff1660e01b81526004016121799493929190612b58565b602060405180830381600087803b15801561219357600080fd5b505af19250505080156121c3575060408051601f3d908101601f191682019092526121c091810190612a35565b60015b61221d573d8080156121f1576040519150601f19603f3d011682016040523d82523d6000602084013e6121f6565b606091505b5080516122155760405162461bcd60e51b815260040161099f90612bfe565b805181602001fd5b6001600160e01b031916630a85bd0160e11b149050611a0b565b506001949350505050565b60608161226757506040805180820190915260018152600360fc1b60208201526108e1565b8160005b8115612291578061227b81613394565b915061228a9050600a836132e3565b915061226b565b60008167ffffffffffffffff8111156122ba57634e487b7160e01b600052604160045260246000fd5b6040519080825280601f01601f1916602001820160405280156122e4576020820181803683370190505b5090505b8415611a0b576122f9600183613316565b9150612306600a866133af565b6123119060306132cb565b60f81b81838151811061233457634e487b7160e01b600052603260045260246000fd5b60200101906001600160f81b031916908160001a905350612356600a866132e3565b94506122e8565b600880546000838152600960205260408120829055600182018355919091527ff3f7a9fe364faab93b216da50a3214154f22a0a2b415b23a84c8169e8b636ee30155565b600060016123ae84611027565b6123b89190613316565b60008381526007602052604090205490915080821461240b576001600160a01b03841660009081526006602090815260408083208584528252808320548484528184208190558352600790915290208190555b5060009182526007602090815260408084208490556001600160a01b039094168352600681528383209183525290812055565b60085460009061245090600190613316565b6000838152600960205260408120546008805493945090928490811061248657634e487b7160e01b600052603260045260246000fd5b9060005260206000200154905080600883815481106124b557634e487b7160e01b600052603260045260246000fd5b60009182526020808320909101929092558281526009909152604080822084905585825281205560088054806124fb57634e487b7160e01b600052603160045260246000fd5b6001900381819060005260206000200160009055905550505050565b600061252283611027565b6001600160a01b039093166000908152600660209081526040808320868452825280832085905593825260079052919091209190915550565b6001600160a01b0382166125815760405162461bcd60e51b815260040161099f90612f29565b61258a81611b8d565b156125a75760405162461bcd60e51b815260040161099f90612cdb565b6125b36000838361205f565b6001600160a01b03821660009081526003602052604081208054600192906125dc9084906132cb565b909155505060008181526002602052604080822080546001600160a01b0319166001600160a01b03861690811790915590518392907fddf252ad1be2c89b69c2b068fc378daa952ba7f163c4a11628f55a4df523b3ef908290a4610f8360008383610a57565b6001600160a01b03163b151590565b82805461265d90613359565b90600052602060002090601f01602090048101928261267f57600085556126c5565b82601f1061269857805160ff19168380011785556126c5565b828001600101855582156126c5579182015b828111156126c55782518255916020019190600101906126aa565b506126d19291506126d5565b5090565b5b808211156126d157600081556001016126d6565b600067ffffffffffffffff831115612704576127046133ef565b612717601f8401601f1916602001613276565b905082815283838301111561272b57600080fd5b828260208301376000602084830101529392505050565b80356001600160a01b03811681146108e157600080fd5b803580151581146108e157600080fd5b600082601f830112612779578081fd5b611e51838335602085016126ea565b600060208284031215612799578081fd5b611e5182612742565b600080604083850312156127b4578081fd5b6127bd83612742565b91506127cb60208401612742565b90509250929050565b6000806000606084860312156127e8578081fd5b6127f184612742565b92506127ff60208501612742565b9150604084013590509250925092565b60008060008060808587031215612824578081fd5b61282d85612742565b935061283b60208601612742565b925060408501359150606085013567ffffffffffffffff81111561285d578182fd5b8501601f8101871361286d578182fd5b61287c878235602084016126ea565b91505092959194509250565b6000806040838503121561289a578182fd5b6128a383612742565b91506127cb60208401612759565b600080604083850312156128c3578182fd5b6128cc83612742565b946020939093013593505050565b600060208083850312156128ec578182fd5b823567ffffffffffffffff811115612902578283fd5b8301601f81018513612912578283fd5b8035612925612920826132a7565b613276565b8181528381019083850185840285018601891015612941578687fd5b8694505b8385101561296a5761295681612742565b835260019490940193918501918501612945565b50979650505050505050565b60006020808385031215612988578182fd5b823567ffffffffffffffff81111561299e578283fd5b8301601f810185136129ae578283fd5b80356129bc612920826132a7565b81815283810190838501865b848110156129f1576129df8a888435890101612769565b845292860192908601906001016129c8565b509098975050505050505050565b600060208284031215612a10578081fd5b611e5182612759565b600060208284031215612a2a578081fd5b8135611e5181613405565b600060208284031215612a46578081fd5b8151611e5181613405565b600060208284031215612a62578081fd5b813567ffffffffffffffff811115612a78578182fd5b611a0b84828501612769565b600060208284031215612a95578081fd5b5035919050565b60008151808452612ab481602086016020860161332d565b601f01601f19169290920160200192915050565b60008351612ada81846020880161332d565b835190830190612aee81836020880161332d565b01949350505050565b60008351612b0981846020880161332d565b9190910191825250602001919050565b90565b92835260609190911b6bffffffffffffffffffffffff19166020830152603482015260540190565b6001600160a01b0391909116815260200190565b6001600160a01b0385811682528416602082015260408101839052608060608201819052600090612b8b90830184612a9c565b9695505050505050565b901515815260200190565b600060208252611e516020830184612a9c565b6020808252602b908201527f455243373231456e756d657261626c653a206f776e657220696e646578206f7560408201526a74206f6620626f756e647360a81b606082015260800190565b60208082526032908201527f4552433732313a207472616e7366657220746f206e6f6e20455243373231526560408201527131b2b4bb32b91034b6b83632b6b2b73a32b960711b606082015260800190565b60208082526026908201527f4f776e61626c653a206e6577206f776e657220697320746865207a65726f206160408201526564647265737360d01b606082015260800190565b60208082526025908201527f4552433732313a207472616e736665722066726f6d20696e636f72726563742060408201526437bbb732b960d91b606082015260800190565b6020808252601c908201527f4552433732313a20746f6b656e20616c7265616479206d696e74656400000000604082015260600190565b6020808252600f908201526e4f6e676f696e67204d696e74696e6760881b604082015260600190565b60208082526024908201527f4552433732313a207472616e7366657220746f20746865207a65726f206164646040820152637265737360e01b606082015260800190565b60208082526019908201527f4552433732313a20617070726f766520746f2063616c6c657200000000000000604082015260600190565b6020808252602c908201527f4552433732313a206f70657261746f7220717565727920666f72206e6f6e657860408201526b34b9ba32b73a103a37b5b2b760a11b606082015260800190565b60208082526038908201527f4552433732313a20617070726f76652063616c6c6572206973206e6f74206f7760408201527f6e6572206e6f7220617070726f76656420666f7220616c6c0000000000000000606082015260800190565b6020808252602a908201527f4552433732313a2062616c616e636520717565727920666f7220746865207a65604082015269726f206164647265737360b01b606082015260800190565b60208082526029908201527f4552433732313a206f776e657220717565727920666f72206e6f6e657869737460408201526832b73a103a37b5b2b760b91b606082015260800190565b60208082526019908201527f4578636564656420746865204d696e74696e6720436f756e7400000000000000604082015260600190565b6020808252818101527f4552433732313a206d696e7420746f20746865207a65726f2061646472657373604082015260600190565b60208082526031908201527f45524337323155524953746f726167653a2055524920717565727920666f72206040820152703737b732bc34b9ba32b73a103a37b5b2b760791b606082015260800190565b6020808252602c908201527f4552433732313a20617070726f76656420717565727920666f72206e6f6e657860408201526b34b9ba32b73a103a37b5b2b760a11b606082015260800190565b6020808252818101527f4f776e61626c653a2063616c6c6572206973206e6f7420746865206f776e6572604082015260600190565b6020808252600e908201526d11985a5b1959081c185e5b595b9d60921b604082015260600190565b6020808252600c908201526b5a65726f204164647265737360a01b604082015260600190565b60208082526004908201526302737ba160e51b604082015260600190565b6020808252602f908201527f4552433732314d657461646174613a2055524920717565727920666f72206e6f60408201526e3732bc34b9ba32b73a103a37b5b2b760891b606082015260800190565b60208082526021908201527f4552433732313a20617070726f76616c20746f2063757272656e74206f776e656040820152603960f91b606082015260800190565b60208082526016908201527514d85b19481a185cc8185b1c9958591e48195b99195960521b604082015260600190565b60208082526031908201527f4552433732313a207472616e736665722063616c6c6572206973206e6f74206f6040820152701ddb995c881b9bdc88185c1c1c9bdd9959607a1b606082015260800190565b6020808252602c908201527f455243373231456e756d657261626c653a20676c6f62616c20696e646578206f60408201526b7574206f6620626f756e647360a01b606082015260800190565b6020808252601d908201527f4554482076616c75652073656e74206973206e6f7420636f7272656374000000604082015260600190565b6020808252601590820152745461782063616e2774206265206f7665722031302560581b604082015260600190565b90815260200190565b918252602082015260400190565b604051601f8201601f1916810167ffffffffffffffff8111828210171561329f5761329f6133ef565b604052919050565b600067ffffffffffffffff8211156132c1576132c16133ef565b5060209081020190565b600082198211156132de576132de6133c3565b500190565b6000826132f2576132f26133d9565b500490565b6000816000190483118215151615613311576133116133c3565b500290565b600082821015613328576133286133c3565b500390565b60005b83811015613348578181015183820152602001613330565b838111156117075750506000910152565b60028104600182168061336d57607f821691505b6020821081141561338e57634e487b7160e01b600052602260045260246000fd5b50919050565b60006000198214156133a8576133a86133c3565b5060010190565b6000826133be576133be6133d9565b500690565b634e487b7160e01b600052601160045260246000fd5b634e487b7160e01b600052601260045260246000fd5b634e487b7160e01b600052604160045260246000fd5b6001600160e01b031981168114611b1d57600080fdfea26469706673582212204d60b030f5d57d55f6badbe7c0bfd5fa73b4780fd7c9161649f7e6922619158e64736f6c6343000801003368747470733a2f2f676174657761792e70696e6174612e636c6f75642f697066732f",
  "immutableReferences": {},
  "source": "// SPDX-License-Identifier: MIT\n\npragma solidity ^0.8.0;\n\nimport \"@openzeppelin/contracts/token/ERC721/extensions/ERC721Enumerable.sol\";\nimport \"@openzeppelin/contracts/access/Ownable.sol\";\nimport \"@openzeppelin/contracts/utils/math/SafeMath.sol\";\nimport \"@openzeppelin/contracts/utils/Counters.sol\";\n\ncontract RagnarokProject is ERC721Enumerable, Ownable {\n    using Strings for uint256;\n    using SafeMath for uint256;\n\n    uint256 public feeDivisor = 10000;\n    uint256 public devFee = 1000;   // 1000: 10%\n    uint256 public marketFee = 1000;\n    uint256 public otherFee = 1000;\n\n    address public devWallet = address(0);\n    address public marketWallet = address(0);\n    address public otherWallet = address(0);\n\n    bool public publicSale = true;\n    mapping(address => bool) whitelist;\n\n    mapping (uint256 => string) private revealURI;\n    string public unrevealURI = \"https://gateway.pinata.cloud/ipfs/\";\n    string[] public revealURIs;\n    bool public reveal = false;\n\n    bool public endSale = false;\n\n    string private _baseURIextended;\n    uint256 private _priceextended;\n    mapping (uint256 => bool) registerID;\n\n    uint256 public tokenMinted = 0;\n    uint256 public subMintedCount = 0;\n\n    using Counters for Counters.Counter;\n    Counters.Counter private _tokenIdentifiers;\n\n    uint256 private constant MAX_TOKENID_NUMBER = 1 * 10 ** 10;\n    uint256 public constant MAX_NFT_SUPPLY = 200000;\n\n    \n    /**\n     * @dev Emitted when new Token minted.\n     */\n    event MintNFT(\n        uint256 indexed tokenId,\n        address indexed minter, \n        uint256 tokenCount,\n        uint256 tokenPrice\n    );\n\n\n    constructor() ERC721(\"Ragnarok Project\", \"Ragnarok\") {\n        _baseURIextended = \"https://ipfs.io/ipfs/\";\n        _priceextended = 1000000000000000; // 0.001\n    }\n\n    function setEndSale(bool _endSale) public onlyOwner {\n        endSale = _endSale;\n    }\n\n    function setWhitelist(address _add) public onlyOwner {\n        require(_add != address(0), \"Zero Address\");\n        whitelist[_add] = true;\n    }\n\n    function setWhitelistAll(address[] memory _adds) public onlyOwner {\n        for(uint256 i = 0; i < _adds.length; i++) {\n            address tmp = address(_adds[i]);\n            whitelist[tmp] = true;\n        }\n    }\n\n    function getNFTBalance(address _owner) public view returns (uint256) {\n       return ERC721.balanceOf(_owner);\n    }\n\n    function getNFTPrice() public view returns (uint256) {\n        require(tokenMinted < MAX_NFT_SUPPLY, \"Sale has already ended\");\n        return _priceextended;\n    }\n\n    function random() internal returns (uint) {\n        uint256 ran = 0;\n        while(true) {\n            ran = uint256(keccak256(abi.encodePacked(block.timestamp, msg.sender, _tokenIdentifiers.current()))).mod(MAX_TOKENID_NUMBER);\n            if(registerID[ran] == false)\n                break;\n            _tokenIdentifiers.increment();\n        }\n        return ran;        \n    }\n\n    function claimNFT() public onlyOwner {\n        require(tokenMinted < MAX_NFT_SUPPLY, \"Sale has already ended\");\n\n        _tokenIdentifiers.increment();\n        _safeMint(msg.sender, _tokenIdentifiers.current());\n        tokenMinted += 1;\n    }\n\n    function mintNFT(uint256 _cnt) public payable {\n        require(tokenMinted < MAX_NFT_SUPPLY, \"Sale has already ended\");\n        require(getNFTPrice().mul(_cnt) <= msg.value, \"ETH value sent is not correct\");\n\n        if(!publicSale) {\n            require(whitelist[msg.sender], \"Not \");\n            require(_cnt <= 5, \"Exceded the Minting Count\");\n        }\n\n        uint256 devFeePrice = msg.value * devFee /  feeDivisor;\n        uint256 marketFeePrice = msg.value * marketFee /  feeDivisor;\n        uint256 otherFeePrice = msg.value * otherFee /  feeDivisor;\n\n        if (marketWallet != address(0) && devFeePrice > 0) {\n            (bool sent, ) = payable(marketWallet).call{value: marketFeePrice}(\"\");\n            require(sent, \"Failed payment\");\n        }\n\n        if (devWallet != address(0) && devFeePrice > 0) {\n            (bool sent, ) = payable(devWallet).call{value: devFeePrice}(\"\");\n            require(sent, \"Failed payment\");\n        }\n\n        if (otherWallet != address(0) && devFeePrice > 0) {\n            (bool sent, ) = payable(otherWallet).call{value: otherFeePrice}(\"\");\n            require(sent, \"Failed payment\");\n        }\n\n        for(uint256 i = 0; i < _cnt; i++) {\n            _tokenIdentifiers.increment();\n            uint256 newRECIdentifier = random();\n\n            // price increasing\n            if (subMintedCount >= 1000) {\n                subMintedCount = 0;\n                _priceextended = _priceextended.mul(101).div(100);\n            }\n\n            _safeMint(msg.sender, newRECIdentifier);\n            registerID[newRECIdentifier] = true;\n            tokenMinted += 1;\n            subMintedCount += 1;\n        }\n\n        emit MintNFT(tokenMinted, _msgSender(), _cnt, _priceextended);\n    }\n\n    function batchURLs(string[] memory _revealURIs) public onlyOwner {\n        for(uint i = 0; i < _revealURIs.length; i++) {\n            revealURIs.push(_revealURIs[i]);\n        }\n    }\n\n    function withdraw() public onlyOwner {\n        require(endSale, \"Ongoing Minting\");\n        uint balance = address(this).balance;\n        address payable ownerAddress = payable(msg.sender);\n        ownerAddress.transfer(balance);\n    }\n\n    function tokenURI(uint256 tokenId) public view virtual override returns (string memory) {\n        require(_exists(tokenId), \"ERC721URIStorage: URI query for nonexistent token\");\n\n        string memory _tokenURI;        \n        if(reveal) {\n            _tokenURI = revealURI[tokenId];\n        } else {\n            _tokenURI = unrevealURI;\n        }\n        string memory base = _baseURI();\n\n        if (bytes(base).length == 0) {\n            return _tokenURI;\n        }\n\n        if (bytes(_tokenURI).length > 0) {\n            return string(abi.encodePacked(_tokenURI, tokenId));\n        }\n\n        return super.tokenURI(tokenId);\n    }\n\n    function _baseURI() internal view virtual override returns (string memory) {\n        return _baseURIextended;\n    }\n\n    function setUnrevealURI(string memory _uri) external onlyOwner() {\n        unrevealURI = _uri;\n    }\n\n    function _price() public view returns (uint256) {\n        return _priceextended;\n    }\n\n    function setPrice(uint256 _priceextended_) external onlyOwner() {\n        _priceextended = _priceextended_;\n    }\n\n    function setMarketWallet(address _addr) external onlyOwner {\n        require(_addr != address(0), \"Zero Address\");\n        marketWallet = _addr;\n    }\n\n    function setDevWallet(address _addr) external onlyOwner {\n        require(_addr != address(0), \"Zero Address\");\n        devWallet = _addr;\n    }\n\n    function setOtherWallet(address _addr) external onlyOwner {\n        require(_addr != address(0), \"Zero Address\");\n        otherWallet = _addr;\n    }\n\n    function setMarketFee(uint256 _newFee) external onlyOwner {\n        require(_newFee <= 1000, \"Tax can't be over 10%\");\n        marketFee = _newFee;\n    }\n\n    function setDevFee(uint256 _newFee) external onlyOwner {\n        require(_newFee <= 1000, \"Tax can't be over 10%\");\n        devFee = _newFee;\n    }\n\n    function setOtherFee(uint256 _newFee) external onlyOwner {\n        require(_newFee <= 1000, \"Tax can't be over 10%\");\n        otherFee = _newFee;\n    }\n}",
  "sourcePath": "E:\\work\\hiccup\\Ragnarok\\contracts\\Ragnarok.sol",
  "compiler": {
    "name": "solc",
    "version": "0.8.1+commit.df193b15.Emscripten.clang"
  },
  "schemaVersion": "3.4.4",
  "updatedAt": "2022-02-17T10:55:16.063Z",
  "networkType": "ethereum",
  "devdoc": {
    "events": {
      "MintNFT(uint256,address,uint256,uint256)": {
        "details": "Emitted when new Token minted."
      }
    },
    "kind": "dev",
    "methods": {
      "approve(address,uint256)": {
        "details": "See {IERC721-approve}."
      },
      "balanceOf(address)": {
        "details": "See {IERC721-balanceOf}."
      },
      "getApproved(uint256)": {
        "details": "See {IERC721-getApproved}."
      },
      "isApprovedForAll(address,address)": {
        "details": "See {IERC721-isApprovedForAll}."
      },
      "name()": {
        "details": "See {IERC721Metadata-name}."
      },
      "owner()": {
        "details": "Returns the address of the current owner."
      },
      "ownerOf(uint256)": {
        "details": "See {IERC721-ownerOf}."
      },
      "renounceOwnership()": {
        "details": "Leaves the contract without owner. It will not be possible to call `onlyOwner` functions anymore. Can only be called by the current owner. NOTE: Renouncing ownership will leave the contract without an owner, thereby removing any functionality that is only available to the owner."
      },
      "safeTransferFrom(address,address,uint256)": {
        "details": "See {IERC721-safeTransferFrom}."
      },
      "safeTransferFrom(address,address,uint256,bytes)": {
        "details": "See {IERC721-safeTransferFrom}."
      },
      "setApprovalForAll(address,bool)": {
        "details": "See {IERC721-setApprovalForAll}."
      },
      "supportsInterface(bytes4)": {
        "details": "See {IERC165-supportsInterface}."
      },
      "symbol()": {
        "details": "See {IERC721Metadata-symbol}."
      },
      "tokenByIndex(uint256)": {
        "details": "See {IERC721Enumerable-tokenByIndex}."
      },
      "tokenOfOwnerByIndex(address,uint256)": {
        "details": "See {IERC721Enumerable-tokenOfOwnerByIndex}."
      },
      "tokenURI(uint256)": {
        "details": "See {IERC721Metadata-tokenURI}."
      },
      "totalSupply()": {
        "details": "See {IERC721Enumerable-totalSupply}."
      },
      "transferFrom(address,address,uint256)": {
        "details": "See {IERC721-transferFrom}."
      },
      "transferOwnership(address)": {
        "details": "Transfers ownership of the contract to a new account (`newOwner`). Can only be called by the current owner."
      }
    },
    "version": 1
  },
  "userdoc": {
    "kind": "user",
    "methods": {},
    "version": 1
  }
}